:100000000C94A8000C94C5000C94C5000C94C50079
:100010000C94C5000C94C5000C94C5000C94B70C4E
:100020000C940B130C94C5000C94C5000C94C700E1
:100030000C94C5000C94B3160C94E9160C94C500EE
:100040000C94C5000C94C5000C94C5000C94C5001C
:100050000C94C5001F1B1B001B1B1F1F1F1F1F0015
:100060001F1F1F1F1F1B110A1B1B1B1F1F1B1B1BDF
:100070000A111B1F1F1D1D1D1501171F0814150A2E
:10008000050B1101170A151B170D1D1D1F1F1F1F23
:100090001F1F1F1F1F1111111111111F0202060E28
:1000A0000C0808001008040E0402010000001C0ED9
:1000B000070000000102040E040810006375737449
:1000C0006F6D004C58484C2D4E2A3938203157005E
:1000D0004C58484C2D4D2A312A203157004C584855
:1000E0004C2D4C2A3343203357004C58484C2D4C50
:1000F0002A3543203557005A2D506F772E20503423
:10010000203357005A2D506F772E20503920302E33
:10011000355700434C2D4C31393020352E365700A1
:10012000BC00C300D000DD00EA00F70004011301A9
:1001300000005E015E01BC02BC025E019600E001AF
:100140000000F401F401E803E803E803C800200319
:1001500011241FBECFE5D8E0DEBFCDBF15E0A0E67D
:10016000B0E0E8E7F8E502C005900D92AA3CB107BF
:10017000D9F716E0AAECB5E001C01D92AD35B10784
:10018000E1F70E94670E0C943A2C0C9400001F9229
:100190000F920FB60F9211242F933F938F939F933B
:1001A0008091D3059091D40501969093D4058093C6
:1001B000D3052091D3053091D405809146069091C6
:1001C00047062817390740F08BB390E189278BBB8E
:1001D0001092D4051092D3059F918F913F912F914A
:1001E0000F900FBE0F901F90189520913B063091F5
:1001F0003C0600D000D000D0EDB7FEB7319680911C
:10020000E2059091E305ADB7BEB712969C938E932D
:10021000119780E690E093838283358324830E9444
:10022000C8278DB79EB706960FB6F8949EBF0FBE2F
:100230008DBF08954091E2055091E3058091E70557
:10024000882319F021E330E002C020E330E000D041
:1002500000D000D0EDB7FEB73196ADB7BEB712965D
:100260005C934E93119785E690E093838283358368
:1002700024830E94C8278DB79EB706960FB6F894C0
:100280009EBF0FBE8DBF089520914A0630914B0648
:1002900000D000D000D0EDB7FEB731968091E205D6
:1002A0009091E305ADB7BEB712969C938E931197CC
:1002B00080E690E093838283358324830E94C8275D
:1002C0008DB79EB706960FB6F8949EBF0FBE8DBF32
:1002D00008952091E5053091E60500D000D000D0CA
:1002E000EDB7FEB731968091E2059091E305ADB789
:1002F000BEB712969C938E93119780E690E09383FD
:100300008283358324830E94C8278DB79EB70696C3
:100310000FB6F8949EBF0FBE8DBF08952091D105F2
:100320003091D20500D000D000D0EDB7FEB73196A5
:100330008091E2059091E305ADB7BEB712969C930C
:100340008E93119780E690E0938382833583248394
:100350000E94C8278DB79EB706960FB6F8949EBF29
:100360000FBE8DBF089520914D0630914E0600D0EE
:1003700000D000D0EDB7FEB731968091E2059091A4
:10038000E305ADB7BEB712969C938E93119780E6A6
:1003900090E093838283358324830E94C8278DB79E
:1003A0009EB706960FB6F8949EBF0FBE8DBF0895F8
:1003B0008DB79EB70A970FB6F8949EBF0FBE8DBF3C
:1003C000EDB7FEB731968091E2059091E305ADB7A8
:1003D000BEB712969C938E9311978AE690E0938312
:1003E000828384ED93E0958384838CEC93E0978300
:1003F00086838FEC93E0918780870E94C8278DB712
:100400009EB70A960FB6F8949EBF0FBE8DBF089593
:1004100000D000D000D0EDB7FEB731968091E20554
:100420009091E305ADB7BEB712969C938E9311974A
:1004300087E790E09383828384ED93E095838483C0
:100440000E94C8278DB79EB706960FB6F8949EBF38
:100450000FBE8DBF81E990E00E942F17ADB7BEB7E8
:1004600018970FB6F894BEBF0FBEADBFEDB7FEB77D
:1004700031968091E2059091E30512969C938E93BC
:1004800011978EEC90E0938382838CEC93E09583BC
:1004900084838FEC93E0978386830E94C8278DB76F
:1004A0009EB708960FB6F8949EBF0FBE8DBF80EF23
:1004B00090E00E942F170895FF920F931F93F82E3C
:1004C000062FCF9B1EC080E060E070E00E94A52355
:1004D0008F3AB9F481E060E070E00E94A5238E3F7E
:1004E00081F410E00CC0812F8F0D60E070E00E945D
:1004F000A523882331F05D9BFECF8CB91F5F1017B9
:1005000090F31F910F91FF9008958CE364E10E9496
:100510005C0289E191E00E942F17089588E264E16E
:100520000E945C0289E191E00E942F17089584E106
:1005300064E10E945C0289E191E00E942F17089516
:10054000CF92DF92EF92FF921F93DF93CF930F92A0
:10055000CDB7DEB78CE191E00E942F17198210E031
:100560006E010894C11CD11C9EE2E92E91E0F92E87
:10057000812FB6010E94A5232DB73EB728503040E9
:100580000FB6F8943EBF0FBE2DBFEDB7FEB7319644
:100590002091E2053091E305ADB7BEB712963C93CA
:1005A0002E931197F382E282848315828981868358
:1005B00017820E94C8271F5F2DB73EB7285F3F4FA5
:1005C0000FB6F8943EBF0FBE2DBF1F3F89F65D9B4F
:1005D000FECF8AE08CB910E06E010894C11CD11CDA
:1005E00087E3E82E81E0F82E812FB6010E94A52333
:1005F000ADB7BEB718970FB6F894BEBF0FBEADBF6C
:10060000EDB7FEB731962091E2053091E3051296E1
:100610003C932E931197F382E28284831582898121
:10062000868317820E94C8271F5F2DB73EB7285FB9
:100630003F4F0FB6F8943EBF0FBE2DBF1F3FA1F630
:1006400089E191E00E942F170F90CF91DF911F91C8
:10065000FF90EF90DF90CF900895DF92EF92FF929E
:100660000F931F93CF93DF93E090CC05F090CD05CF
:100670000091CE051091CF058FE090E0A0E0B0E0B2
:10068000E80EF91E0A1F1B1FC0E0D0E028E530E08D
:10069000DD2409C00E9444179C01C097029718F4FA
:1006A000D22EC1E0D0E08091CC059091CD05A091F3
:1006B000CE05B091CF058E159F05A007B10740F478
:1006C0002A30310529F02D30310511F0209711F332
:1006D0008091CC059091CD05A091CE05B091CF052C
:1006E0008E159F05A007B10738F490E3D91611F4D1
:1006F000C19A06C0C19804C08FE391E00E942F17F1
:10070000DF91CF911F910F91FF90EF90DF900895AF
:10071000DF92EF92FF920F931F93CF93DF93E090BE
:10072000CC05F090CD050091CE051091CF058FE05E
:1007300090E0A0E0B0E0E80EF91E0A1F1B1FC0E029
:10074000D0E028E530E0DD2409C00E9444179C0178
:10075000C097029718F4D22EC1E0D0E08091CC056A
:100760009091CD05A091CE05B091CF058E159F0536
:10077000A007B10740F42A30310529F02D303105AA
:1007800011F0209711F38091CC059091CD05A091A7
:10079000CE05B091CF058E159F05A007B10750F487
:1007A00090E3D91619F41092E70508C081E0809310
:1007B000E70504C08FE391E00E942F17DF91CF91EE
:1007C0001F910F91FF90EF90DF9008958F929F926D
:1007D000AF92BF92CF92DF92EF92FF920F931F934F
:1007E000DF93CF93CDB7DEB72C970FB6F894DEBF6B
:1007F0000FBECDBFFE0133968AE0DF011D928A95C0
:10080000E9F7E090CC05F090CD050091CE05109170
:10081000CF058FE090E0A0E0B0E0E80EF91E0A1FDF
:100820001B1FBB24CC24DD2428E530E04F0116C07B
:100830000E9444179C01BB2031F4C097029770F4CA
:10084000B22E222359F0C901C0970A9738F4F40157
:10085000EC0DFD1D20830894C11CD11C8091CC059A
:100860009091CD05A091CE05B091CF058E159F0535
:10087000A007B10750F42A30310539F02D30310589
:1008800021F098E0C916D1049CF28091CC0590919A
:10089000CD05A091CE05B091CF058E159F05A0077F
:1008A000B10718F58B2D80538230E0F4CE0103960A
:1008B000BE016F5F7F4F4AE050E00E945D269B01C2
:1008C000AC01E981FA818081882349F4B9018091E2
:1008D0004D0690914E068217930709F093C080E56C
:1008E00091E005C086E691E002C08FE391E00E94AE
:1008F0002F178FC0F894DC9A0E94C1245B016C0111
:1009000020E030E04AE755E40E9477257B018C0126
:1009100020E030E040E85FE30E94292488231CF4B3
:1009200061E070E024C0C801B70120E03FEF4FE76D
:1009300057E40E9473251816B4F4C601B50120E0EF
:1009400030E040E251E40E9477250E94952480E93E
:1009500091E005C0FC013197F1F7615070406115DD
:100960007105C1F707C0C801B7010E949524CB01EA
:100970000197F1F7DC9878944CC0F894C198DC9A10
:100980000E94C1245B016C0120E030E04AE755E49D
:100990000E9477257B018C0120E030E040E85FE396
:1009A0000E94292488231CF461E070E024C0C8015F
:1009B000B70120E03FEF4FE757E40E947325181678
:1009C000B4F4C601B50120E030E040E251E40E94F9
:1009D00077250E94952480E991E005C0FC013197BC
:1009E000F1F76150704061157105C1F707C0C8018A
:1009F000B7010E949524CB010197F1F7DC98C19AC9
:100A0000789407C080E090E0A0E3BA1609F0B5CF73
:100A100071CF2C960FB6F894DEBF0FBECDBFCF912D
:100A2000DF911F910F91FF90EF90DF90CF90BF90DB
:100A3000AF909F908F9008958F929F92AF92BF92A8
:100A4000CF92DF92EF92FF920F931F93DF93CF939A
:100A5000CDB7DEB72C970FB6F894DEBF0FBECDBF73
:100A6000FE0133968AE0DF011D928A95E9F7E09056
:100A7000CC05F090CD050091CE051091CF058FE00B
:100A800090E0A0E0B0E0E80EF91E0A1F1B1FBB2497
:100A9000CC24DD2428E530E04F0116C00E94441725
:100AA0009C01BB2031F4C097029770F4B22E222330
:100AB00059F0C901C0970A9738F4F401EC0DFD1DF7
:100AC00020830894C11CD11C8091CC059091CD0548
:100AD000A091CE05B091CF058E159F05A007B10757
:100AE00050F42A30310539F02D30310521F098E0ED
:100AF000C916D1049CF28091CC059091CD05A091AE
:100B0000CE05B091CF058E159F05A007B10718F54A
:100B10008B2D80538230E0F4CE010396BE016F5FCF
:100B20007F4F4AE050E00E945D269B01AC01E981C5
:100B3000FA818081882349F4B90180914D06909112
:100B40004E068217930709F0EFC080E591E005C0DB
:100B500086E691E002C08FE391E00E942F17EBC080
:100B6000F894DC9A0E94C1245B016C012BEA3AEAFA
:100B70004AEA50E40E9477257B018C0120E030E0B6
:100B800040E85FE30E942924882314F461E054C004
:100B9000C801B70120E030E04FE753E40E9473251D
:100BA00018160CF045C0C601B50120E030E04AE758
:100BB00054E40E942D245B016C0120E030E04AE700
:100BC00055E40E9477257B018C0120E030E040E86D
:100BD0005FE30E94292488231CF461E070E024C0B4
:100BE000C801B70120E03FEF4FE757E40E947325AB
:100BF0001816B4F4C601B50120E030E040E251E43B
:100C00000E9477250E94952480E991E005C0FC01AF
:100C10003197F1F76150704061157105C1F70EC051
:100C2000C801B7010E949524CB010197F1F706C0D6
:100C3000C801B7010E9495246A95F1F7DC98789471
:100C40007AC0F894C198DC9A0E94C1245B016C01BF
:100C50002BEA3AEA4AEA50E40E9477257B018C01AC
:100C600020E030E040E85FE30E942924882314F468
:100C700061E054C0C801B70120E030E04FE753E421
:100C80000E94732518160CF045C0C601B50120E07E
:100C900030E04AE754E40E942D245B016C0120E01F
:100CA00030E04AE755E40E9477257B018C0120E083
:100CB00030E040E85FE30E94292488231CF461E0CF
:100CC00070E024C0C801B70120E03FEF4FE757E4D0
:100CD0000E9473251816B4F4C601B50120E030E077
:100CE00040E251E40E9477250E94952480E991E03A
:100CF00005C0FC013197F1F7615070406115710535
:100D0000C1F70EC0C801B7010E949524CB0101971D
:100D1000F1F706C0C801B7010E9495246A95F1F762
:100D2000DC98C19A789407C080E090E0A0E3BA16FE
:100D300009F087CF15CF2C960FB6F894DEBF0FBE03
:100D4000CDBFCF91DF911F910F91FF90EF90DF907A
:100D5000CF90BF90AF909F908F900895EF92FF92A9
:100D60000F931F93DF93CF93CDB7DEB764970FB682
:100D7000F894DEBF0FBECDBF80914C0630EAE32E63
:100D800031E0F32E8823B9F400D000D000D0EDB7C5
:100D9000FEB731968091E2059091E305ADB7BEB7FD
:100DA00012969C938E931197F382E28288EE95E0DF
:100DB0009583848324C080914C06E82FF0E0EE0FE9
:100DC000FF1FE05EFE4F659174918E010F5F1F4F14
:100DD000C8010E946C2700D000D000D0EDB7FEB74C
:100DE00031968091E2059091E305ADB7BEB71296BA
:100DF0009C938E931197F382E282158304830E9461
:100E0000C8278DB79EB706960FB6F8949EBF0FBE43
:100E10008DBF64960FB6F894DEBF0FBECDBFCF91E5
:100E2000DF911F910F91FF90EF900895AF92BF92C5
:100E3000CF92DF92EF92FF920F931F93DF93CF93A6
:100E4000CDB7DEB7EE970FB6F894DEBF0FBECDBFBD
:100E500084E1DE011396FD01282F11922A95E9F70E
:100E60009E01295E3F4FF90111928A95E9F7E090C2
:100E7000CC05F090CD050091CE051091CF052FE067
:100E800030E040E050E0E20EF31E041F151FCC24BA
:100E9000DD2420E030E05D011AC00E9444179C016F
:100EA000C0970A9768F0C901815490404A9740F072
:100EB000C901815690404A9718F02F35310539F411
:100EC000F501EC0DFD1D20830894C11CD11C8091FF
:100ED000CC059091CD05A091CE05B091CF058E1592
:100EE0009F05A007B10780F42D33310589F02A3022
:100EF000310509F48BC02D30310509F487C033E189
:100F0000C316D10454F282C02D33310509F07EC0DE
:100F10008091CC059091CD05A091CE05B091CF05E3
:100F20008E159F05A007B10708F070C0E090CC05B2
:100F3000F090CD050091CE051091CF058FE090E0A7
:100F4000A0E0B0E0E80EF91E0A1F1B1FCC24DD2430
:100F500020E030E077E1A72EB12CAC0EBD1E3BC0E7
:100F60000E9444179C01C0970A9770F1C9018154EF
:100F700090404A9748F1C901815690404A9720F124
:100F80002F35310509F120323105F1F02E323105CE
:100F9000D9F02C323105C1F02A333105A9F02B33B9
:100FA000310591F02F32310579F02C35310561F0A2
:100FB0002B32310549F02A32310531F02332310527
:100FC00019F02D32310539F4F501EC0DFD1D2083AA
:100FD0000894C11CD11C8091CC059091CD05A091A5
:100FE000CE05B091CF058E159F05A007B10770F40F
:100FF0002D33310559F02A30310541F02D303105BE
:1010000029F093E1C916D1040CF4AACF8091CC0544
:101010009091CD05A091CE05B091CF058E159F057D
:10102000A007B10708F0A8C18E010D5F1F4F85EA28
:1010300091E0B8010E9473270097B1F4CE01479662
:10104000BE016F5F7F4F4AE050E00E945D269B012A
:10105000AC01E981FA818081882309F087C130934E
:101060003E0620933D068CC18FEA91E0B8010E94B4
:1010700073270097B1F4CE014796BE016F5F7F4F93
:101080004AE050E00E945D269B01AC01E981FA81B3
:101090008081882309F06AC130933806209337068F
:1010A0006FC18AEB91E0B8010E9473270097B1F4F9
:1010B000CE014796BE016F5F7F4F4AE050E00E942D
:1010C0005D269B01AC01E981FA818081882309F0CA
:1010D0004DC1309349062093480652C185EC91E0FA
:1010E000B8010E947327009791F4CE014796BE0184
:1010F0006F5F7F4F4AE050E00E945D26E981FA81F0
:101100008081882309F032C16093450639C183ED9F
:1011100091E0B8010E9473270097B1F4CE01479681
:10112000BE016F5F7F4F4AE050E00E945D269B0149
:10113000AC01E981FA818081882309F017C13093DD
:101140004B0620934A061CC18FED91E0B8010E9426
:1011500073270097B1F4CE014796BE016F5F7F4FB2
:101160004AE050E00E945D269B01AC01E981FA81D2
:101170008081882309F0FAC030933C0620933B0617
:10118000FFC08BEE91E0B8010E9473270097B1F485
:10119000CE014796BE016F5F7F4F4AE050E00E944C
:1011A0005D269B01AC01E981FA818081882309F0E9
:1011B000DDC030933A0620933906E2C08DEF91E00E
:1011C000B8010E9473270097B1F4CE014796BE0183
:1011D0006F5F7F4F4AE050E00E945D269B01AC01AB
:1011E000E981FA818081882309F0C0C030933606F6
:1011F00020933506C5C08FE092E0B8010E947327A6
:101200000097B1F4CE014796BE016F5F7F4F4AE071
:1012100050E00E945D269B01AC01E981FA8180814A
:10122000882309F0A3C03093340620933306A8C066
:101230008E010D5F1F4F89E192E0B8010E94732774
:101240000097B1F4CE014796BE016F5F7F4F4AE031
:1012500050E00E945D269B01AC01E981FA8180810A
:10126000882309F083C03093400620933F0688C04E
:1012700083E292E0B8010E9473270097B1F4CE0197
:101280004796BE016F5F7F4F4AE050E00E945D26A7
:101290009B01AC01E981FA818081882309F066C055
:1012A00030933206209331066BC08DE292E0B80194
:1012B0000E947327009769F560E2E62E61E0F62E42
:1012C00000E010E05BE2C52ED12CCC0EDD1E47E124
:1012D000A42EB12CAC0EBD1E15C0F7016591749102
:1012E000C6010E946C27C601B5010E947327A2E0C7
:1012F000B0E0EA0EFB1E009719F400934C0640C0C4
:101300000F5F1F4F8091C30590E0081719072CF35A
:101310004AC081E392E0B8010E947327009749F523
:10132000CE014796BE016F5F7F4F4AE050E00E94BA
:101330005D269B01AC01E981FA8180818823B1F4AB
:10134000209341063093420640934306509344064F
:101350006091410670914206809143069091440647
:1013600048E021E000E00E9449170AC080E591E0D2
:1013700005C08AE392E002C08FE391E00E942F173C
:101380000E94C518EE960FB6F894DEBF0FBECDBF13
:10139000CF91DF911F910F91FF90EF90DF90CF9051
:1013A000BF90AF90089585E592E0E8CF9F92AF920D
:1013B000BF92CF92DF92EF92FF920F931F93CF9342
:1013C000DF93982EE090CC05F090CD050091CE05EE
:1013D0001091CF058FE090E0A0E0B0E0E80EF91E9C
:1013E0000A1F1B1FCC24DD24C0E0D0E0A62EBB24A6
:1013F0000EC00E944417EC018032910544F0892D03
:101400008C0D6C2F0E94D2230894C11CD11C80919A
:10141000CC059091CD05A091CE05B091CF058E154C
:101420009F05A007B10758F4CC32D10541F0CA306E
:10143000D10529F02D9719F0CA14DB04D4F2DF91FD
:10144000CF911F910F91FF90EF90DF90CF90BF90C1
:10145000AF909F9008958CE364E10E94D6090895AF
:1014600088E264E10E94D609089584E164E10E9463
:10147000D6090895AF92BF92CF92DF92EF92FF927A
:101480000F931F93DF93CF93CDB7DEB76D970FB652
:10149000F894DEBF0FBECDBFDE0153968BE0FD0199
:1014A00011928A95E9F786E09E01295F3F4FF90185
:1014B000482F11924A95E9F79E01235F3F4FF901AA
:1014C00011928A95E9F7E090CC05F090CD05009156
:1014D000CE051091CF052FE030E040E050E0E20E65
:1014E000F31E041F151FCC24DD2420E030E05D0135
:1014F00014C00E9444179C018032910574F08C3214
:10150000910559F04AE0C416D1043CF4F501EC0D04
:10151000FD1D80830894C11CD11C8091CC05909145
:10152000CD05A091CE05B091CF058E159F05A007E2
:10153000B10758F42C32310561F02A30310509F435
:10154000B0C02D303105A9F6ACC02C32310509F000
:10155000A8C08091CC059091CD05A091CE05B09109
:10156000CF058E159F05A007B10708F09AC0E0903F
:10157000CC05F090CD050091CE051091CF058FE000
:1015800090E0A0E0B0E0E80EF91E0A1F1B1FCC247B
:10159000DD2420E030E0FDE0AF2EB12CAC0EBD1E0E
:1015A00011C00E9444179C01C0970A9758F495E017
:1015B000C916D1043CF4F501EC0DFD1D20830894FF
:1015C000C11CD11C8091CC059091CD05A091CE0578
:1015D000B091CF058E159F05A007B10758F42C32A6
:1015E000310561F02A30310509F45BC02D30310539
:1015F000C1F657C02C32310509F053C08091CC059B
:101600009091CD05A091CE05B091CF058E159F0587
:10161000A007B10708F045C0E090CC05F090CD05DB
:101620000091CE051091CF052FE030E040E050E072
:10163000E20EF31E041F151FCC24DD2420E030E051
:10164000E7E0AE2EB12CAC0EBD1E11C00E944417B7
:101650009C01C0970A9758F445E0C416D1043CF4A5
:10166000F501EC0DFD1D20830894C11CD11C809157
:10167000CC059091CD05A091CE05B091CF058E15EA
:101680009F05A007B10748F42C32310531F02A300C
:10169000310519F02D303105C9F6CD2811F021E0C2
:1016A00001C020E08091CC059091CD05A091CE05A0
:1016B000B091CF058E159F05A007B10708F0A4C013
:1016C000222309F470C080E06FEA0E94D2238823AD
:1016D00091F081E06EEF0E94D223882361F082E0D6
:1016E000BE016D5E7F4F4AE00E940E24082F112735
:1016F00007FD109502C000E010E0CE010D96BE017E
:101700006F5F7F4F4AE050E00E945D267C836B83D1
:101710000115110559F08CE0BE016D5F7F4F42E06D
:101720000E940E24082F112707FD1095CE01079661
:10173000BE016F5F7F4F4AE050E00E945D267E83CE
:101740006D83012B69F18EE0BE016B5F7F4F42E03C
:101750000E940E24882321F18DB79EB70A970FB6F9
:10176000F8949EBF0FBE8DBFEDB7FEB73196809146
:10177000E2059091E305ADB7BEB712969C938E93A8
:1017800011978AE692E093838283CE0143969583F4
:1017900084838B819C81978386838D819E8127C0E2
:1017A00087E792E033C02DB73EB72A5030400FB6DE
:1017B000F8943EBF0FBE2DBFEDB7FEB731968091B6
:1017C000E2059091E305ADB7BEB712969C938E9358
:1017D000119781E992E093838283CE0143969583AA
:1017E0008483CE010D9697838683CE0107969187D9
:1017F00080870E94C827EDB7FEB73A960FB6F894D7
:10180000FEBF0FBEEDBF04C08FE391E00E942F1713
:101810000E94C5186D960FB6F894DEBF0FBECDBFFF
:10182000CF91DF911F910F91FF90EF90DF90CF90BC
:10183000BF90AF900895AF92BF92CF92DF92EF9298
:10184000FF920F931F93DF93CF93CDB7DEB72C9703
:101850000FB6F894DEBF0FBECDBFFE0133968AE00F
:10186000DF011D928A95E9F7E090CC05F090CD0557
:101870000091CE051091CF058FE090E0A0E0B0E0A0
:10188000E80EF91E0A1F1B1FCC24DD2428E530E0DA
:101890005F0113C00E9444179C01C0970A9730F063
:1018A0002B32310519F02D32310539F4F501EC0DEB
:1018B000FD1D20830894C11CD11C8091CC05909102
:1018C000CD05A091CE05B091CF058E159F05A0073F
:1018D000B10750F42A30310539F02D30310521F0AF
:1018E00094E0C916D104B4F28091CC059091CD0555
:1018F000A091CE05B091CF058E159F05A007B10729
:1019000008F5CE010396BE016F5F7F4F4AE050E0BD
:101910000E945D269B01AC01E981FA8180818823C8
:1019200071F480914D0690914E068217930739F01D
:1019300030934E0620934D060E94BC1807C080E5E8
:1019400091E002C08FE391E00E942F172C960FB612
:10195000F894DEBF0FBECDBFCF91DF911F910F91E5
:10196000FF90EF90DF90CF90BF90AF9008951F92BF
:101970000F920FB60F9211242F933F934F935F93C3
:101980006F937F938F939F93AF93BF93EF93FF9347
:101990008091CC059091CD05A091CE05B091CF0559
:1019A0000196A11DB11D8093CC059093CD05A09308
:1019B000CE05B093CF0580B3982F907184FF07C0F8
:1019C0008091FC05882319F481E08093D5059093DC
:1019D000FC058091D505882309F0A7C080B3282F86
:1019E000207486FD0CC080910006882341F0809110
:1019F000E70590E0882309F491E09093E7052093B0
:101A0000000680B383993BC08091E405893260F081
:101A100080914D0690914E064497B0F080914D060E
:101A200090914E06449778C08091E405853188F006
:101A300080914D0690914E060A9730F080914D06A8
:101A400090914E060A9768C010924E0610924D066D
:101A500067C08091E4058F5F8093E40580914D0617
:101A600090914E06892B09F460C08091E40580FDB9
:101A70005CC080914D0690914E0601974DC082FD4D
:101A800052C08091E405893290F020914D0630914A
:101A90004E0680914A0690914B0644978217930711
:101AA000E0F080914D0690914E06449635C08091AD
:101AB000E4058531B8F020914D0630914E068091B5
:101AC0004A0690914B060A978217930730F080914F
:101AD0004D0690914E060A961FC080914A0690913D
:101AE0004B061AC08091E4058F5F8093E405209136
:101AF0004D0630914E0680914A0690914B06019713
:101B00008217930790F08091E40580FD0EC08091CC
:101B10004D0690914E06019690934E0680934D0689
:101B20000E94BC1802C01092E405FF91EF91BF9192
:101B3000AF919F918F917F916F915F914F913F9165
:101B40002F910F900FBE0F901F9018950F931F931A
:101B50000091E2051091E3058091350690913606DB
:101B600060913306709134060E94561400D000D064
:101B700000D0EDB7FEB73196ADB7BEB712961C9345
:101B80000E93119720E630E033832283958384837C
:101B90000E94C8278DB79EB706960FB6F8949EBFD1
:101BA0000FBE8DBF1F910F9108958F929F92AF929C
:101BB000BF92CF92DF92FF920F931F93CF93DF9349
:101BC000C090E205D090E30580904D0690904E06BF
:101BD000A090D105B090D2058091E705882319F037
:101BE000C1E3D0E002C0C0E3D0E00091E505109170
:101BF000E605F090D005809135069091360660910B
:101C00003306709134060E9456142DB73EB720510A
:101C100030400FB6F8943EBF0FBE2DBFEDB7FEB7F4
:101C20003196ADB7BEB71296DC92CE9211972DEBDE
:101C300032E03383228395828482B782A682D18761
:101C4000C08713870287F4861586978786870E9448
:101C5000C8272DB73EB7205F3F4F0FB6F8943EBF61
:101C60000FBE2DBFDF91CF911F910F91FF90DF909D
:101C7000CF90BF90AF909F908F90089581E064E6E1
:101C800070E00E948C1682E06CE670E00E948C1678
:101C900083E064E770E00E948C1684E064E870E002
:101CA0000E948C1685E06CE970E00E948C1686E03C
:101CB00064EA70E00E948C1687E06CEA70E00E9493
:101CC0008C1688E064EB70E00E948C1608952F92C9
:101CD0003F924F925F926F927F928F929F92AF92BC
:101CE000BF92CF92DF92EF92FF920F931F93DF93F9
:101CF000CF93CDB7DEB7AD970FB6F894DEBF0FBE6A
:101D0000CDBF1092E7051092E40581E08093FC05B9
:101D10008EE39EE09093E0058093DF05F8940E94A7
:101D2000A71A0E942F130E943C130E9445130E9481
:101D30005A230E948A150E943E0E609141067091BE
:101D40004206809143069091440648E021E000E07D
:101D50000E94491787E296E160E070E00E947C27CC
:101D60009093FE058093FD0589E297E16EE377E1AC
:101D70000E947C279093E3058093E2050E948215E0
:101D80000E94D9152DB73EB7205130400FB6F894B8
:101D90003EBF0FBE2DBFEDB7FEB731968091FD055A
:101DA0009091FE05ADB7BEB712969C938E93119796
:101DB00086ED92E09383828381E090E0A0E0B0E042
:101DC00084839583A683B78380879187A287B3870F
:101DD0008CEC93E0958784878FEC93E097878687D8
:101DE0000E94C82720E137E2EDB7FEB770960FB624
:101DF000F894FEBF0FBEEDBF40E951E0CA01019764
:101E0000F1F721503040D1F70E94080280B380746E
:101E1000809300060E944E1378943E010894611C42
:101E2000711C95E1A92EB12CAC0EBD1E85E8482E83
:101E300083E0582E0AE6202E00E0302E10E6812E98
:101E400010E0912E86E068E045E050E00E947413B7
:101E50008254914062E070E00E940D267093E60586
:101E60006093E5052091E5053091E60580913D06FA
:101E700090913E068217930744F560914806709151
:101E800049068091E5059091E60520913D06309147
:101E90003E064091370650913806821B930B849F73
:101EA0009001859F300D949F300D1124260F371F10
:101EB0002F3F310529F024F08FEF8093D00502C029
:101EC0002093D0058091D00503C01092D00580E00A
:101ED0000E944C138091D5058130D9F589B78F7E4A
:101EE00089BF8091FD059091FE050E94722260914C
:101EF000410670914206809143069091440648E065
:101F000021E000E00E94491784EF91E0E0E9F1E070
:101F10003197F1F70197D1F789E297E16EE377E125
:101F20000E947C279093E3058093E2058AEF92E07C
:101F30000E942F1784E193E00E942F1785E393E01E
:101F40000E942F1789E493E00E942F170E944E13DE
:101F500040C28091CC059091CD05A091CE05B09165
:101F6000CF0583709070A070B0700097A105B10587
:101F700009F08EC08091CB058F5F8093CB05809157
:101F8000D005209148063091490690E082179307CA
:101F900010F003E001C004E0E091D0052091480674
:101FA000309149064091480650914906F0E08FEF84
:101FB00090E0841B950B63E070E00E94F925260FEA
:101FC000371FE217F30708F002E0E091D0052091F7
:101FD0004806309149064091480650914906F0E084
:101FE0008FEF90E0841B950B63E070E00E94F92571
:101FF000660F771F260F371FE217F30708F001E07F
:102000008091D005882339F486E062E00E94E115D2
:102010008CE593E03BC08091CB050817C8F5809113
:10202000CA058F5F8093CA051092CB058091CA05BF
:10203000853018F081E08093CA058091CA0582300E
:1020400089F0833018F4813019F505C0833089F0A8
:102050008430F1F415C086E062E00E94E11580E66C
:1020600093E014C086E062E00E94E11584E693E00C
:102070000DC086E062E00E94E11588E693E006C0AC
:1020800086E062E00E94E1158CE693E00E94F7157D
:10209000809145060E9443138091E705882331F023
:1020A00080914D0690914E06892B21F4DC9889B7DA
:1020B0008E7F08C08091310690913206892B21F0E5
:1020C00089B7816089BF04C089B78E7F89BFDC9AD8
:1020D0008091E705882311F4959801C0959A609145
:1020E000390670913A0640913F065091400685E0CE
:1020F0000E947413880F991F880F991F9093D2051F
:102100008093D10520914D0630914E0680914A066C
:1021100090914B068217930740F480914A06909164
:102120004B0690934E0680934D0680914D069091FC
:102130004E060E9448146091CC057091CD058091A7
:10214000CE059091CF0525E030E040E050E00E94C0
:102150002026611571058105910531F5CF9B24C0BD
:1021600080E060E070E00E94A5238F3AF9F481E0FE
:1021700060E070E00E94A5238E3FC1F488EE95E0F8
:1021800062E04AE00E94F32310924C068BE396E053
:102190006CE042E00E94F3238AE496E06EE042E0C5
:1021A0000E94F32305E603C000E201C008E7609146
:1021B000CC057091CD058091CE059091CF0525E09D
:1021C00030E040E050E00E94202661157105810555
:1021D000910509F0FEC08091E705882351F58091B3
:1021E0004D0690914E062DB73EB7285030400FB6A1
:1021F000F8943EBF0FBE2DBFEDB7FEB73196ADB719
:10220000BEB71296BC92AE92119720E733E03383AB
:10221000228395838483068317820E9405284DB705
:102220005EB7485F5F4F0FB6F8945EBF0FBE4DBFFD
:102230004EC08091310690913206892BE9F0809151
:102240004D0690914E062091D1053091D2054DB7A3
:102250005EB74A5050400FB6F8945EBF0FBE4DBFF8
:10226000EDB7FEB73196ADB7BEB71296BC92AE923F
:10227000119743E953E019C080914D0690914E06A5
:102280002091D1053091D205ADB7BEB71A970FB6E0
:10229000F894BEBF0FBEADBFEDB7FEB73196129634
:1022A000BC92AE92119749EA53E0538342839583DF
:1022B000848337832683008711860E9405288DB783
:1022C0009EB70A960FB6F8949EBF0FBE8DBF80E0F2
:1022D00061E00E94E115C5010E94F7158091E505B6
:1022E0009091E60500D000D000D0EDB7FEB7319652
:1022F000ADB7BEB71296BC92AE921197538242828E
:10230000958384830E940528EDB7FEB736960FB6F5
:10231000F894FEBF0FBEEDBF89E062E00E94E115B8
:10232000C5010E94F71580913B0690913C06892BD0
:1023300009F43FC060914D0670914E06E0903B0657
:10234000F0903C0600D000D000D0CDB6DEB60894A8
:10235000C11CD11CADB7BEB712967C926E9211977C
:102360002FEB33E0F6013383228380E090E024E614
:1023700030E040E050E00E94DA2500E010E0A801E3
:1023800097010E942026D60115963C932E93149710
:102390000E940528EDB7FEB736960FB6F894FEBF3B
:1023A0000FBEEDBF80E062E00E94E115C3010E9414
:1023B000F7158EE061E00E94E11586EC93E00E9443
:1023C000F7158EE062E00E94E11589EC93E00E942F
:1023D000F7150E9444178093FF058F34910509F487
:1023E00084C080359105E4F58734910509F4C3C0B4
:1023F00088349105E4F48334910509F4DFC0843412
:10240000910564F48F33910509F466C08134910518
:1024100009F474C0859709F015CDE6C084349105A0
:1024200009F4D7C08634910509F00CCDF1C08C3485
:10243000910509F457C08D3491054CF48934910508
:1024400009F44DC08A34910509F0FCCCDBC08D3411
:10245000910509F456C08E34910509F0F3CCB3C050
:102460008635910509F453C087359105C4F4833549
:10247000910509F440C08435910544F480359105F7
:10248000B9F18135910509F0DDCCB6C084359105EF
:1024900009F46CC08535910509F0D4CC35C0893577
:1024A000910509F499C08A3591054CF48735910559
:1024B00009F48CC08835910509F0C4CC90C08A36E7
:1024C000910509F49CC08137910509F492C08636C4
:1024D000910509F0B7CC99C00E940802B3CC0E94C4
:1024E0001B0CB0CC0E948803ADCC0E942D03AACC5B
:1024F0000E941607A7CC0E94D50DA4CC0E94A60D61
:10250000A1CC0E94E6039ECC0E941C059BCC2DB75B
:102510003EB72A5030400FB6F8943EBF0FBE2DBFD5
:10252000EDB7FEB731968091E2059091E305ADB726
:10253000BEB712969C938E9311973382228224ED1C
:1025400033E0358324834CEC53E0578346838FEC90
:1025500093E0918780870E94C827ADB7BEB71A96CF
:102560000FB6F894BEBF0FBEADBF6CCC2091E50591
:102570003091E60504C020914D0630914E0600D002
:1025800000D000D0EDB7FEB731968091E205909172
:10259000E305ADB7BEB712969C938E9311979382C5
:1025A0008282358324830E94C827EDB7FEB7369612
:1025B0000FB6F894FEBF0FBEEDBF44CC2091D105FD
:1025C0003091D205DCCF0E941A013CCC0E943A0A1D
:1025D00039CC0E94A00236CC0E94AE0633CC2091AA
:1025E0004A0630914B06CBCF20913B0630913C06FA
:1025F000C6CF0E948E0226CC0E94300A23CC0E94B5
:10260000850220CC0E942B0A1DCC0E9497021ACC76
:102610000E94350A17CC1F920F920FB60F92112409
:102620002F933F934F935F936F937F938F939F93DA
:10263000AF93BF93EF93FF930E94C322FF91EF915B
:10264000BF91AF919F918F917F916F915F914F91CA
:102650003F912F910F900FBE0F901F90189580E122
:102660008ABB8EEB87BB8DEF84BB82EA81BB82E5A0
:102670008DB981E08EB9089589E683BF12BE1CBE74
:10268000089513BE08958CBF089589E685BD14BCD6
:1026900013BC089515BC089583BD08952FB7F89411
:1026A00019BE1DBC1CBC1FBC8DE08EBD1DBC1CBC5E
:1026B0008DE093E09BBD8ABD89B7806189BF2FBF44
:1026C00008952FB7F89419BE1DBC1CBC1FBC8DE02B
:1026D0008EBD1DBC1CBC8DE093E099BD88BD89B743
:1026E000886089BF2FBF08952F923F924F925F92CB
:1026F0006F927F928F929F92AF92BF92CF92DF9212
:10270000EF92FF920F931F93DF93CF9300D000D0EF
:10271000CDB7DEB7462E1A018F7087B983E886B928
:10272000369A3699FECF84B195B11C821B8255240E
:1027300031018824992481C0369A3699FECF24B17C
:1027400035B13A8329832114310409F46DC0C401E1
:10275000B3010E94C1245B016C012BEA3AEA4AEA08
:1027600050E40E9477257B018C0120E030E040E8B6
:102770005FE30E942924882314F461E053C0C80158
:10278000B70120E030E04FE753E40E9473251816AC
:102790000CF044C0C601B50120E030E04AE754E443
:1027A0000E942D245B016C0120E030E04AE755E4F3
:1027B0000E9477257B018C0120E030E040E85FE358
:1027C0000E94292488231CF461E070E023C0C80122
:1027D000B70120E03FEF4FE757E40E94732518163A
:1027E000ACF4C601B50120E030E040E251E40E94C3
:1027F00077250E94952406C080E991E00197F1F7C2
:102800006150704061157105B9F70EC0C801B7017C
:102810000E949524CB010197F1F706C0C801B701CA
:102820000E9495246A95F1F78B819C81E981FA8158
:102830008E0F9F1F9C838B835394541408F47CCF7A
:1028400037988B819C81642D70E00E94F925CB0123
:102850000F900F900F900F90CF91DF911F910F91DC
:10286000FF90EF90DF90CF90BF90AF909F908F90B0
:102870007F906F905F904F903F902F9008958FB909
:10288000779BFECF08958FB9779BFECF8FB10895C8
:10289000C49AC29AC4989F7090679FB9779BFECFE5
:1028A0008FB9779BFECFC49AC29A08952F923F9218
:1028B0004F925F926F927F928F929F92AF92BF9250
:1028C000CF92DF92EF92FF920F931F93DF93CF93FC
:1028D000CDB7DEB729970FB6F894DEBF0FBECDBFD8
:1028E00089831B014424552466247724282F30E053
:1028F0003B832A83CB01A0E0B0E08C839D83AE8331
:10290000BF8397C0C49AC29AC2981FB8779BFECF64
:102910009FB11FB8779BFECF8FB12FE1922E9922E6
:102920008824D401A80FB11DB987A887E0E1A030A1
:10293000BE071CF0B06FB987A887C49AC29A211449
:10294000310409F46FC06C817D818E819F810E946A
:10295000C1245B016C012BEA3AEA4AEA50E40E9486
:1029600077257B018C0120E030E040E85FE30E94A6
:102970002924882314F461E053C0C801B70120E082
:1029800030E04FE753E40E94732518160CF044C062
:10299000C601B50120E030E04AE754E40E942D244E
:1029A0005B016C0120E030E04AE755E40E947725A6
:1029B0007B018C0120E030E040E85FE30E942924A5
:1029C00088231CF461E070E023C0C801B70120E057
:1029D0003FEF4FE757E40E9473251816ACF4C60189
:1029E000B50120E030E040E251E40E9477250E94EA
:1029F000952406C080E991E00197F1F7615070409D
:102A000061157105B9F70EC0C801B7010E94952480
:102A1000CB010197F1F706C0C801B7010E949524C8
:102A20006A95F1F728853985420E531E0894611C7A
:102A3000711C8A819B81681679060CF463CFC201F0
:102A4000698170E00E94F925CB0129960FB6F894B0
:102A5000DEBF0FBECDBFCF91DF911F910F91FF90D1
:102A6000EF90DF90CF90BF90AF909F908F907F902E
:102A70006F905F904F903F902F900895AA9A95B3D2
:102A80009F7095BB25B3982F907F922B95BBAB9AE7
:102A900025E3922F9A95F1F7AB9895B39F7095BB6C
:102AA00095B38295807F982B95BBAB9A2A95F1F7C9
:102AB000AB9880EF8A95F1F70895AA9895B39F7027
:102AC00095BB25B3982F907F922B95BBAB9A25E3AE
:102AD000922F9A95F1F7AB9895B39F7095BB95B3EC
:102AE0008295807F982B95BBAB9A2A95F1F7AB988E
:102AF00080EF8A95F1F70895AB9A85E38A95F1F70F
:102B0000AB98089581E00E945D1580E99AE10197F4
:102B1000F1F7089584B38C6F84BB88EC90E020E9D2
:102B200031E0F9013197F1F70197D9F788EC90E09E
:102B300020E931E0F9013197F1F70197D9F785B331
:102B40008F7085BB85B3806385BBAA98AB9A95E3EC
:102B5000892F8A95F1F7AB98E0EAFFE03197F1F71A
:102B6000AB9A892F8A95F1F7AB9820E23EE4F90100
:102B70003197F1F7AB9A892F8A95F1F7AB98F90164
:102B80003197F1F785B38F7085BBAD9AAB9A9A9563
:102B9000F1F7AB98C9010197F1F788E20E945D1542
:102BA0008CE00E945D1586E00E945D150E948215F2
:102BB000089582E00E945D1580E99AE10197F1F79E
:102BC0000895623061F0633018F4613079F405C023
:102BD000633039F0643051F406C0805805C0805429
:102BE00003C0805701C080530E945D150895CF93A4
:102BF000DF93EC0126C0803B11F48FED1FC08130C4
:102C000011F480E01BC0823011F481E017C08330E2
:102C100011F482E013C0843011F483E00FC08530DA
:102C200011F484E00BC0863011F485E007C08730D2
:102C300011F486E003C0883009F487E00E943E1555
:102C4000219688818823B9F6DF91CF9108958C3041
:102C500019F480E061E004C08A3029F480E062E089
:102C60000E94E11533C0883019F480E063E0F8CFAA
:102C70008D3019F480E064E0F3CF803B11F48FEDE8
:102C800023C0853209F18C37F9F0853B11F484EECD
:102C90001BC08034C9F08F3D11F482EE15C080381E
:102CA00011F483EE11C0843E11F0843C11F481EEE6
:102CB0000BC0863F11F0863D11F48FEE05C08C3FAE
:102CC00011F08C3D09F485EF0E943E1580E090E004
:102CD00008950F931F93CF93DF938B0190E001979B
:102CE00023E0880F991F2A95E1F78F7380640E9473
:102CF0005D15C0E0D0E0F801EC0FFD1F80810E945F
:102D00003E152196C830D105B1F70E94D915DF9143
:102D1000CF911F910F910895EF92FF921F93DF9330
:102D2000CF93CDB7DEB728970FB6F894DEBF0FBEAE
:102D3000CDBF182F7E010894E11CF11CC70148E0AB
:102D400050E00E946327812FB7010E9469162896E0
:102D50000FB6F894DEBF0FBECDBFCF91DF911F91AC
:102D6000FF90EF9008951F920F920FB60F921124CB
:102D70002F938F939F93EF93FF932CB1909119060C
:102D800080911A069817D8F4E0911D06F0911E065E
:102D9000219380912006815021F480911A06E81B2E
:102DA000F10980932006F0931E06E0931D069FB75D
:102DB000F894809119068F5F809319069FBFFF9149
:102DC000EF919F918F912F910F900FBE0F901F90B9
:102DD00018951F920F920FB60F9211242F938F9375
:102DE0009F93EF93FF93809111068823E9F0E09180
:102DF0001306F0911406219180911706815021F459
:102E000080911206E81BF109F0931406E093130673
:102E1000809317069FB7F894809111068150809394
:102E200011069FBF2CB901C05598FF91EF919F915A
:102E30008F912F910F900FBE0F901F901895FC014E
:102E400084913196882321F05D9BFECF8CB9F8CF19
:102E500008955D9BFECF8CB980E090E00895FC0161
:102E600080815D9BFECF8CB9882311F03196F8CF1D
:102E7000089589E196E00E94491B089589E196E052
:102E80000E94491B90E0089589E196E00E94611B31
:102E90000895AF92BF92CF92DF92EF92FF920F937D
:102EA0001F936B017C01142FB22EAFB680E0C816C1
:102EB00081EED80680E0E80680E0F80609F4A3C0B9
:102EC00081E0C81681EED80680E0E80680E0F806CA
:102ED00008F047C080E8C81685E2D80680E0E8061A
:102EE00080E0F80609F487C081E8C81685E2D806B4
:102EF00080E0E80680E0F806A8F480E6C81689E0DD
:102F0000D80680E0E80680E0F80609F46DC080ECA1
:102F1000C81682E1D80680E0E80680E0F80609F0ED
:102F200085C067C080E0C8168BE4D80680E0E8065C
:102F300080E0F80609F463C080E8C81680E7D80688
:102F400080E0E80680E0F80609F45BC080E4C8167B
:102F500088E3D80680E0E80680E0F80609F066C05D
:102F60004CC080E0C81684E8D80683E0E80680E01C
:102F7000F80609F44EC081E0C81684E8D80683E05C
:102F8000E80680E0F806A0F480E0C8168CE2D806D7
:102F900081E0E80680E0F806C1F180E0C81682EC26
:102FA000D80681E0E80680E0F80609F03FC02FC0AF
:102FB00080E2C81681EAD80687E0E80680E0F806D5
:102FC00079F180E4C81682E4D8068FE0E80680E054
:102FD000F80649F180E9C81680EDD80683E0E806D6
:102FE00080E0F80619F51AC080EA89B981E080BD51
:102FF00039C08FEC16C087E614C084E412C083E3A6
:1030000010C082E20EC082E205C08CE00AC080E1FE
:1030100001C088E089B910BC91E025C083E001C0FF
:1030200081E089B901C019B810BC1CC0C701B60144
:1030300060587B47814E9F4F33E0660F771F881F94
:10304000991F3A95D1F724E0CC0CDD1CEE1CFF1C37
:103050002A95D1F7A70196010E94202621503040E1
:1030600029B930BD90E0F89488E98AB9013019F0A7
:10307000023039F403C080B5806A02C080B5806B2D
:1030800080BD173069F0183018F4163079F405C097
:10309000183049F0193051F406C080B5826805C077
:1030A00080B5846802C080B5866880BD82E0B816AD
:1030B00019F480B5886880BD913019F482E08BB92D
:1030C00001C01BB88CB15F99FDCF8BB1806C8BB9FF
:1030D000AFBE89E196E061E076E040E10E94241B0A
:1030E00081E196E061E276E040E10E94241B1F91BD
:1030F0000F91FF90EF90DF90CF90BF90AF90089529
:1031000080914C06882319F190914C068091C3055B
:103110009817E8F480914C06E82FF0E0EE0FFF1FBF
:10312000E05CFE4F8591949190934B0680934A0604
:1031300080914C06E82FF0E0EE0FFF1FE05DFE4FA0
:103140008591949190933C0680933B0602C0109227
:103150004C062091310630913206220F331F40E099
:1031600050E064E274EF80E090E00E9442263093E9
:1031700047062093460608958DE496E06AE070E0E5
:1031800042E050E00E941C2A0895DF93CF9300D0C4
:1031900000D000D0CDB7DEB70E94801880E090E06C
:1031A0006EEE7EEE0E94332ACE01019662E070E060
:1031B00042E050E00E94062A998180913D069817CE
:1031C00029F49A8180913E06981741F08DE396E0AC
:1031D00062E070E042E050E00E941C2ACE010196BD
:1031E00064E070E042E050E00E94062A99818091FC
:1031F0003706981729F49A8180913806981741F07C
:1032000087E396E064E070E042E050E00E941C2A10
:10321000CE01019666E070E042E050E00E94062A8E
:10322000998180914806981729F49A8180914906DE
:10323000981741F088E496E066E070E042E050E0E4
:103240000E941C2ACE01019668E070E042E050E046
:103250000E94062A998180914506981729F49A813F
:1032600080914606981741F085E496E068E070E0AA
:1032700042E050E00E941C2ACE0101966AE070E014
:1032800042E050E00E94062A998180914D069817ED
:1032900029F49A8180914E06981741F08DE496E0CA
:1032A0006AE070E042E050E00E941C2ACE010396E2
:1032B0006CE070E044E050E00E94062A9B8180911F
:1032C0004106981779F49C8180914206981751F431
:1032D0009D8180914306981729F49E818091440630
:1032E000981741F081E496E06CE070E044E050E033
:1032F0000E941C2ACE01019660E170E042E050E09D
:103300000E94062A998180914A06981729F49A8189
:1033100080914B06981741F08AE496E060E170E0F6
:1033200042E050E00E941C2ACE01019662E170E06A
:1033300042E050E00E94062A998180913B0698174E
:1033400029F49A8180913C06981741F08BE396E02E
:1033500062E170E042E050E00E941C2ACE0101963A
:1033600064E170E042E050E00E94062A9981809179
:103370004C06981729F49A8180914D06981741F0D0
:103380008CE496E064E170E042E050E00E941C2A88
:10339000CE01019666E170E042E050E00E94062A0C
:1033A000998180913906981729F49A8180913A067B
:1033B000981741F089E396E066E170E042E050E062
:1033C0000E941C2ACE0101966AE170E042E050E0C2
:1033D0000E94062A998180913506981729F49A81CE
:1033E00080913606981741F085E396E06AE170E037
:1033F00042E050E00E941C2ACE01019668E170E094
:1034000042E050E00E94062A998180913F06981779
:1034100029F49A8180914006981741F08FE396E055
:1034200068E170E042E050E00E941C2ACE01019663
:103430006CE170E042E050E00E94062A99818091A0
:103440003306981729F49A8180913406981741F031
:1034500083E396E06CE170E042E050E00E941C2AB9
:10346000CE0101966EE170E042E050E00E94062A33
:10347000998180913106981729F49A8180913206BA
:10348000981741F081E396E06EE170E042E050E091
:103490000E941C2A26960FB6F894DEBF0FBECDBF41
:1034A000CF91DF91089584E290E090933E0680935F
:1034B0003D0686E090E0909338068093370688E7D3
:1034C00090E090934906809348068DE780934506E7
:1034D00080E895E2A0E0B0E0809341069093420638
:1034E000A0934306B093440610924E0610924D06E8
:1034F00080ED97E090934B0680934A0680914A06B0
:1035000090914B0690933C0680933B0610924C069C
:1035100080E290E090933A068093390689E190E04A
:103520009093400680933F0681E090E090933606AA
:1035300080933506109234061092330610923206AC
:10354000109231060E9480180E94C518089580E0EC
:1035500090E00E94162A8E5E9E4E19F00E94531A29
:1035600070C08DE396E062E070E042E050E00E94BF
:10357000062A87E396E064E070E042E050E00E94B3
:10358000062A88E496E066E070E042E050E00E949F
:10359000062A85E496E068E070E041E050E00E9491
:1035A000062A8DE496E06AE070E042E050E00E9476
:1035B000062A8AE496E060E170E042E050E00E9472
:1035C000062A8BE396E062E170E042E050E00E9460
:1035D000062A81E496E06CE070E044E050E00E944E
:1035E000062A8CE496E064E170E041E050E00E943D
:1035F000062A89E396E066E170E042E050E00E942E
:10360000062A85E396E06AE170E042E050E00E941D
:10361000062A8FE396E068E170E042E050E00E9405
:10362000062A83E396E06CE170E042E050E00E94FD
:10363000062A81E396E06EE170E042E050E00E94ED
:10364000062A0E9480180895FC0110827583648305
:10365000738362834183478346830895FC0190818D
:103660008181981710F080E00895A481B5816D9351
:103670008781815019F48181A81BB1098783B583A3
:10368000A4839FB7F89480818F5F80839FBF81E080
:103690000895FC0180818823E9F3A281B3812D91F3
:1036A0008681815019F48181A81BB109B383A2835B
:1036B00086839FB7F8948081815080839FBF822F3B
:1036C0000895FC018081882319F42FEF3FEF13C088
:1036D000A281B3812D918681815019F48181A81B2B
:1036E000B109B383A28386839FB7F8948081815008
:1036F00080839FBF30E0C9010895FF920F931F930D
:10370000FC01F62E142F8091D7059091D805C39710
:1037100044F48091D9059091DA05C39714F4422FAF
:1037200003C0029F402D11248091D7059091D805A8
:10373000853691053CF48091D9059091DA0585365E
:1037400091051CF0409F402D11248091D705909148
:10375000D805019701F18091D7059091D8050B9775
:1037600054F08091D7059091D80563E070E00E94F5
:103770000D26892B81F08091D7059091D8050B9764
:10378000B4F08091D7059091D80563E070E00E9475
:103790000D26892B61F48081840F808381E08093E2
:1037A000E1058081181718F48150811B8083809176
:1037B000D9059091DA05019781F08091D905909112
:1037C000DA050B97DCF08091D9059091DA0563E07A
:1037D00070E00E940D26892B89F45081252F30E05E
:1037E0008F2D90E0840F911D8217930714F05F5F77
:1037F000510F541B508381E08093E1051F910F917D
:10380000FF900895FF920F931F93FC01F62E809175
:10381000D7059091D805C39744F48091D90590912C
:10382000DA05C39714F4122F03C0029F102D112440
:103830008091D7059091D805853691053CF480910B
:10384000D9059091DA05853691051CF0109F102D51
:1038500011248091D7059091D805019781F080912E
:10386000D7059091D8050B97A4F08091D70590913A
:10387000D80563E070E00E940D26892B51F4808109
:10388000810F808381E08093E1058081481708F4EF
:1038900040838091D9059091DA05019781F080915C
:1038A000D9059091DA050B97DCF08091D9059091BC
:1038B000DA0563E070E00E940D26892B89F44081CF
:1038C000242F30E08F2D90E0810F911D82179307F8
:1038D0001CF4411B408301C0F08281E08093E1052C
:1038E0001F910F91FF900895EF92FF920F93DF9336
:1038F000CF930F92CDB7DEB77C011982FC01808196
:103900009181A281B3818038F0E79F07F0E0AF0793
:10391000F0E0BF0709F478C0813820E7920720E083
:10392000A20720E0B20788F5803CE2E19E07E0E0D4
:10393000AE07E0E0BE0709F461C0813CF2E19F07F9
:10394000F0E0AF07F0E0BF0780F4803B24E092078F
:1039500020E0A20720E0B20709F44CC0805699404D
:10396000A040B04009F05EC047C08034F8E39F0734
:10397000F0E0AF07F0E0BF0709F442C080509B447D
:10398000A040B04009F04EC03DC08030F4EF9F072A
:10399000F1E0AF07F0E0BF0709F43CC0813024EF4D
:1039A000920721E0A20720E0B20770F48030E1EE38
:1039B0009E07E0E0AE07E0E0BE0741F18050924C88
:1039C000A140B04079F524C0803221EA920727E077
:1039D000A20720E0B20711F18034E2E49E07EFE095
:1039E000AE07E0E0BE07E1F08059904DA340B04043
:1039F000C9F412C0198218C081E015C082E013C05A
:103A000084E011C085E00FC086E00DC087E00BC0E8
:103A100088E009C089E007C08AE005C08BE003C0E8
:103A20008CE001C083E08983CE01019660E04CE028
:103A300021E001E00E94021C8981863009F441C026
:103A4000873078F4823049F1833030F48823D9F01C
:103A5000813009F05DC01CC0843049F1853060F5CB
:103A600021C08930E9F18A3030F4873079F188302B
:103A700009F04EC030C08B30E9F18B30B0F18C30A2
:103A800009F046C03CC080EB94E0A0E0B0E03BC051
:103A900080E699E0A0E0B0E036C080EC92E1A0E0E2
:103AA000B0E031C080E895E2A0E0B0E02CC080E456
:103AB00098E3A0E0B0E027C080E09BE4A0E0B0E0A5
:103AC00022C080E890E7A0E0B0E01DC080E091EE69
:103AD000A0E0B0E018C080E092ECA1E0B0E013C03C
:103AE00080E094EFA1E0B0E00EC080E990EDA3E0AB
:103AF000B0E009C080E291EAA7E0B0E004C080E451
:103B000092E4AFE0B0E0F70180839183A283B383B6
:103B10000F90CF91DF910F91FF90EF900895CF928A
:103B2000DF92EF92FF920F931F93CF93DF93FC01ED
:103B30006B017A018091D7059091D805C39744F421
:103B40008091D9059091DA05C39714F4E90107C073
:103B5000029FE001039FD00D129FD00D1124809190
:103B6000D7059091D805853691053CF48091D9050B
:103B70009091DA058536910544F0CE01809FE001F1
:103B8000819FD00D909FD00D11248091D7059091E9
:103B9000D805019781F08091D7059091D8050B97B2
:103BA000D4F08091D7059091D80563E070E00E9431
:103BB0000D26892B81F4808191818C0F9D1F91832B
:103BC000808381E08093E10580819181E816F90688
:103BD00010F4F182E0828091D9059091DA05019785
:103BE00081F08091D9059091DA050B97E4F08091EE
:103BF000D9059091DA0563E070E00E940D26892BCB
:103C000091F420813181CE018C0D9D1D8217930787
:103C100028F42C1B3D0B3183208302C0D182C0824B
:103C200081E08093E105DF91CF911F910F91FF908B
:103C3000EF90DF90CF9008950F931F93CF93DF9372
:103C40008091DD059091DE05019761F51092D50513
:103C500060914F067091500680EE93E00E94DC2741
:103C600081E08093E1050E94C518C0E0D0E000E942
:103C700011E080E00E94431382EE94E0F801319756
:103C8000F1F70197D9F7809145060E94431382EE20
:103C900094E0F8013197F1F70197D9F72196C430F4
:103CA000D10539F7DF91CF911F910F9108950F93AF
:103CB0001F93CF93DF938091DD059091DE050197EF
:103CC00051F50E94531A81E08093E10560914F06FF
:103CD0007091500683E094E00E94DC27C0E0D0E0C1
:103CE00000E911E080E00E94431382EE94E0F801C5
:103CF0003197F1F70197D9F7809145060E94431358
:103D000082EE94E0F8013197F1F70197D9F7219607
:103D1000C430D10539F7DF91CF911F910F910895EC
:103D20000F934091C305415060E021E001E00E9403
:103D30007D1B0E9480180F9108950F931F93DF93AE
:103D4000CF93CDB7DEB767970FB6F894DEBF0FBE3F
:103D5000CDBF883009F4D3C18930B0F4843009F480
:103D6000BEC0853050F4823009F45DC0833008F065
:103D700088C0813009F07EC31DC0863009F416C1A9
:103D8000873008F04EC1D9C08C3009F4A5C28D30FF
:103D900038F48A3009F444C28B3008F06FC212C282
:103DA0008E3009F404C38E3008F4C4C28F3009F099
:103DB00061C330C385E496E060E04FEF25E002E0A8
:103DC0000E94021C8091E105813011F40E9482154D
:103DD0008091E105813011F52091450600D000D099
:103DE00000D0EDB7FEB7319680914F069091500606
:103DF000ADB7BEB712969C938E93119783E494E06F
:103E000093838283248315820E94C8278DB79EB72F
:103E100006960FB6F8949EBF0FBE8DBF80914506E3
:103E20000E94431327C38DE396E064E170E042E310
:103E300050E022E030E002E010E00E948F1D80910F
:103E4000E105813011F40E9482158091E1058130F5
:103E500009F010C320913D0630913E0600D000D0FD
:103E600000D0EDB7FEB7319680914F069091500685
:103E7000ADB7BEB712969C938E93119789E594E0E7
:103E800086C287E396E061E070E044E150E021E023
:103E900030E001E010E00E948F1D8091E10581304B
:103EA00011F40E9482158091E105813009F0E2C28F
:103EB000209137063091380600D000D000D0EDB701
:103EC000FEB7319680914F0690915006ADB7BEB7C0
:103ED00012969C938E9311978EE694E058C288E4D4
:103EE00096E060E070E04FEF50E022E030E002E06A
:103EF00010E00E948F1D8091E105813011F40E9435
:103F000082158091E105813009F0B4C22091480604
:103F10003091490600D000D000D0EDB7FEB7319601
:103F200080914F0690915006ADB7BEB712969C9304
:103F30008E93119781E894E02AC281E496E00E9472
:103F4000741C8091E105813011F40E9482158091EA
:103F5000E105813009F08EC2209141063091420680
:103F60004091430650914406ADB7BEB718970FB6BF
:103F7000F894BEBF0FBEADBFEDB7FEB731968091CE
:103F80004F069091500612969C938E93119784E958
:103F900094E09383828324833583468357830E94EE
:103FA000C82711E08DB79EB70896FBC18CE496E058
:103FB0000E94901E90914C068091C305981728F09E
:103FC00010924C0681E08093E10580914C06E82F29
:103FD000F0E0EE0FFF1FE05EFE4F659174918E01E1
:103FE0000C5F1F4FC8010E946C278091E105813052
:103FF00009F040C200D000D000D0EDB7FEB7319636
:1040000080914F0690915006ADB7BEB712969C9323
:104010008E93119785EA94E09383828315830483BA
:10402000BAC180914C06882339F090914C0680915A
:10403000C305981708F441C08AE496E060E070E098
:1040400040ED57E021E030E00AE010E00E948F1DD3
:1040500020913B0630913C0680914A0690914B0698
:104060008217930740F480913B0690913C06909311
:104070004B0680934A068091E105813011F40E943D
:1040800082158091E105813009F0F4C120914A0642
:1040900030914B0600D000D000D0EDB7FEB731967E
:1040A00080914F0690915006ADB7BEB712969C9383
:1040B0008E93119787EB94E06AC18091E10581307E
:1040C00011F40E9482158091E105813009F0D4C17C
:1040D00020914A0630914B0600D000D000D0EDB7B9
:1040E000FEB7319680914F0690915006ADB7BEB79E
:1040F00012969C938E9311978CEC94E05BC0809108
:104100004C06882331F090914C068091C305981796
:1041100080F140914A0650914B068BE396E060E0B7
:1041200070E021E030E005E010E00E948F1D8091FA
:10413000E105813011F40E9482158091E105813002
:1041400009F098C120913B0630913C0600D000D088
:1041500000D0EDB7FEB7319680914F069091500692
:10416000ADB7BEB712969C938E93119784EE94E0F0
:104170000EC18091E105813011F40E948215809179
:10418000E105813009F078C120913B0630913C0671
:1041900000D000D000D0EDB7FEB7319680914F0629
:1041A00090915006ADB7BEB712969C938E9311971F
:1041B0008BEF94E093838283358324830E94C82706
:1041C00010E0ECC081E396E060E070E040E25EE485
:1041D00021E030E00AE010E00E948F1D8091E105AF
:1041E000813011F40E9482158091E105813009F03F
:1041F00041C1209131063091320600D000D000D06C
:10420000EDB7FEB7319680914F0690915006ADB74D
:10421000BEB712969C938E93119785E195E0B7C037
:1042200089E396E060E070E043E650E021E030E0B2
:1042300002E010E00E948F1D8091E105813011F4B1
:104240000E9482158091E105813009F013C120910F
:10425000390630913A0600D000D000D0EDB7FEB755
:10426000319680914F0690915006ADB7BEB7129629
:104270009C938E9311978DE295E089C08FE396E031
:1042800060E070E04FE057E221E030E00AE010E04B
:104290000E948F1D8091E105813011F40E948215EA
:1042A0008091E105813009F0E5C020913F06309111
:1042B000400600D000D000D0EDB7FEB73196809117
:1042C0004F0690915006ADB7BEB712969C938E9351
:1042D000119782E495E05BC085E396E060E070E0D2
:1042E00043E650E021E030E002E010E00E948F1D44
:1042F0008091E105813011F40E9482158091E105E1
:10430000813009F0B7C0209135063091360600D0D3
:1043100000D000D0EDB7FEB7319680914F06909156
:104320005006ADB7BEB712969C938E9311978AE54F
:1043300095E02DC083E396E060E070E04FE057E247
:1043400021E030E00AE010E00E948F1D8091E1053D
:10435000813011F40E9482158091E105813009F0CD
:1043600089C0209133063091340600D000D000D0AF
:10437000EDB7FEB7319680914F0690915006ADB7DC
:10438000BEB712969C938E9311978FE695E0938318
:104390008283358324830E94C82711E08DB79EB79E
:1043A00006960FB6F8949EBF0FBE8DBF66C00E94E2
:1043B000571E8091E105813011F40E948215809191
:1043C000E105813011F500D000D000D0EDB7FEB787
:1043D000319680914F0690915006ADB7BEB71296B8
:1043E0009C938E93119787E895E09383828381E471
:1043F00090E0958384830E94C8278DB79EB7069668
:104400000FB6F8949EBF0FBE8DBF809145060E94E7
:10441000431366C00E941C1E8091E105813011F497
:104420000E9482158091E105813009F059C000D0C9
:1044300000D000D0EDB7FEB7319680914F06909135
:104440005006ADB7BEB712969C938E9311978EE926
:1044500095E09383828381E490E0958384830E9436
:10446000C8278DB79EB706960FB6F8949EBF0FBEAD
:104470008DBF36C011E001C010E00E941C1E80916B
:10448000E105813001F58983112311F480E28983EC
:1044900083E08A831B828EE061E00E94E115CE01F9
:1044A00001960E94F71582E08983112311F480E2BE
:1044B000898381E48A838EE062E00E94E115CE0167
:1044C00001960E94F7151092E10567960FB6F894D1
:1044D000DEBF0FBECDBFCF91DF911F910F91089529
:1044E00010E0CDCF1F939093500680934F0610920B
:1044F000D8051092D7051092DA051092D9051092BE
:10450000DC051092DB0511E01093D5051093D6055C
:1045100081E064E670E00E948C1682E06CE670E058
:104520000E948C1683E064E770E00E948C1684E0A1
:1045300064E770E00E948C160E94D9150E948215D3
:104540001093E1058091D6050E949D1E0E94611383
:1045500078948091D5058130E1F389B7877F89BF51
:104560001092D5058091DF059091E005892B49F0E7
:10457000E091DF05F091E00509950E94D9150E94B0
:1045800082151F91089589B7877F89BFF89410928B
:10459000E1058091D7059091D8058B5F9F4F30F052
:1045A00081E090E09093D8058093D7058091D9055C
:1045B0009091DA058B5F9F4F30F081E090E090930F
:1045C000DA058093D9058091DB059091DC058B5F3E
:1045D0009F4F30F081E090E09093DC058093DB0505
:1045E0008091DD059091DE058B5F9F4F30F081E07B
:1045F00090E09093DE058093DD0582990AC080915A
:10460000D7059091D80501969093D8058093D7054A
:1046100004C01092D8051092D70583990AC08091E2
:10462000D9059091DA0501969093DA058093D90522
:1046300004C01092DA051092D90584990AC08091BD
:10464000DB059091DC0501969093DC058093DB05FA
:1046500004C01092DC051092DB0586990AC0809197
:10466000DD059091DE0501969093DE058093DD05D2
:1046700004C01092DE051092DD058091DB0590915B
:10468000DC05019741F48091D6058F5F8093D605B4
:1046900081E08093E1058091D605803118F081E0BA
:1046A0008093D6058091D6050E949D1E78940E9425
:1046B0006113089511B888E480B90895982F84EAA9
:1046C00086BF06B607FEFDCF81B1887F883021F016
:1046D000803111F090E012C093B984E886BF06B62D
:1046E00007FEFDCF81B1887F883111F491E006C0CB
:1046F00090E0803409F091E081E09827892F0895B7
:104700000E945E23089584E986BF06B604FCFDCFAF
:10471000089583B984E886BF06B607FEFDCF81B150
:1047200090E0887F883209F491E0892F089584EC25
:1047300086BF06B607FEFDCF83B1089584E886BF25
:1047400006B607FEFDCF83B108951F93CF93DF9385
:10475000182FEB0180EA0E945E23882339F0812F15
:104760000E948923882311F49EEF09C081EA0E94E8
:104770005E23982F882319F420E09DEF06C084E87B
:1047800086BF06B607FEFDCF23B184E986BF06B615
:1047900004FCFDCF209709F09883822FDF91CF9101
:1047A0001F9108950F931F93182F062F80EA0E94E0
:1047B0005E23282F882351F0812F0E948923282FE0
:1047C000882321F0802F0E948923282F84E986BF27
:1047D00006B604FCFDCF80EC9DE50197F1F7822F32
:1047E0001F910F910895FF920F931F93CF93DF9323
:1047F000F62E042FEC0110E008C0812F8F0D60E031
:1048000070E00E94A52389931F5F1017B0F381E029
:10481000DF91CF911F910F91FF900895FF920F9319
:104820001F93CF93DF93F82E042FEB0181E010E06C
:1048300008C0812F8F0D69910E94D223882319F01F
:104840001F5F1017B0F3DF91CF911F910F91FF9071
:104850000895D4D008F481E008950CD00AC102D1A3
:1048600040F0F9D030F021F45F3F19F0EBC0511166
:1048700034C1EEC00FD198F39923C9F35523B1F396
:10488000951B550BBB27AA2762177307840738F0BF
:104890009F5F5F4F220F331F441FAA1FA9F333D01E
:1048A0000E2E3AF0E0E830D091505040E695001CD2
:1048B000CAF729D0FE2F27D0660F771F881FBB1F8E
:1048C000261737074807AB07B0E809F0BB0B802D68
:1048D000BF01FF2793585F4F2AF09E3F510568F0B4
:1048E000B1C0FBC05F3FECF3983EDCF38695779553
:1048F0006795B795F7959F5FC9F7880F911D9695B6
:10490000879597F90895E1E0660F771F881FBB1F11
:10491000621773078407BA0720F0621B730B840BBE
:10492000BA0BEE1F88F7E0950895BCD088F09F572A
:1049300090F0B92F9927B751A0F0D1F0660F771FEB
:10494000881F991F1AF0BA95C9F712C0B13081F0CB
:10495000C3D0B1E00895C0C0672F782F8827B85F13
:1049600039F0B93FCCF3869577956795B395D9F72C
:104970003EF490958095709561957F4F8F4F9F4F36
:104980000895E89409C097FB3EF490958095709542
:1049900061957F4F8F4F9F4F9923A9F0F92F96E98B
:1049A000BB279395F695879577956795B795F11100
:1049B000F8CFFAF4BB0F11F460FF1BC06F5F7F4F9D
:1049C0008F4F9F4F16C0882311F096E911C07723AF
:1049D00021F09EE8872F762F05C0662371F096E8B8
:1049E000862F70E060E02AF09A95660F771F881F87
:1049F000DAF7880F9695879597F90895990F00082B
:104A0000550FAA0BE0E8FEEF16161706E807F907A0
:104A1000C0F012161306E407F50798F0621B730B3B
:104A2000840B950B39F40A2661F0232B242B252BBC
:104A300021F408950A2609F4A140A6958FEF811D5F
:104A4000811D089597F99F6780E870E060E0089500
:104A50009FEF80EC089500240A9416161706180696
:104A60000906089500240A94121613061406050672
:104A70000895092E0394000C11F4882352F0BB0F03
:104A800040F4BF2B11F460FF04C06F5F7F4F8F4F66
:104A90009F4F089557FD9058440F551F59F05F3FA1
:104AA00071F04795880F97FB991F61F09F3F79F050
:104AB00087950895121613061406551FF2CF4695D2
:104AC000F1DF08C0161617061806991FF1CF869554
:104AD0007105610508940895E894BB276627772738
:104AE000CB0197F908958ADF08F48FEF08950BD072
:104AF000C0CFB1DF28F0B6DF18F0952309F0A2CFC0
:104B0000A7CF1124EACFC6DFA0F3959FD1F3950F6D
:104B100050E0551F629FF001729FBB27F00DB11D41
:104B2000639FAA27F00DB11DAA1F649F6627B00DD1
:104B3000A11D661F829F2227B00DA11D621F739FBA
:104B4000B00DA11D621F839FA00D611D221F749FC8
:104B50003327A00D611D231F849F600D211D822F0F
:104B6000762F6A2F11249F5750408AF0E1F0882356
:104B70004AF0EE0FFF1FBB1F661F771F881F915063
:104B80005040A9F79E3F510570F05CCFA6CF5F3F24
:104B9000ECF3983EDCF3869577956795B795F79596
:104BA000E7959F5FC1F7FE2B880F911D969587951E
:104BB00097F90895629FD001739FF001829FE00DE5
:104BC000F11D649FE00DF11D929FF00D839FF00D8C
:104BD000749FF00D659FF00D9927729FB00DE11D38
:104BE000F91F639FB00DE11DF91FBD01CF01112415
:104BF0000895AA1BBB1B51E107C0AA1FBB1FA61724
:104C0000B70710F0A61BB70B881F991F5A95A9F775
:104C100080959095BC01CD01089597FB092E07263C
:104C20000AD077FD04D0E5DF06D000201AF4709595
:104C300061957F4F0895F6F7909581959F4F089560
:104C4000A1E21A2EAA1BBB1BFD010DC0AA1FBB1F90
:104C5000EE1FFF1FA217B307E407F50720F0A21B02
:104C6000B30BE40BF50B661F771F881F991F1A946F
:104C700069F760957095809590959B01AC01BD0199
:104C8000CF01089597FB092E05260ED057FD04D0BD
:104C9000D7DF0AD0001C38F4509540953095219507
:104CA0003F4F4F4F5F4F0895F6F790958095709561
:104CB00061957F4F8F4F9F4F0895A0E0B0E0E3E6EE
:104CC000F6E20C94042CEC012B016A0161157105CC
:104CD00019F0FB0191838083C114D10449F0C6010E
:104CE0000297839728F020E030E040E050E0DCC0FD
:104CF000A9908A2D90E00E945B27892BC9F7FDE2DD
:104D0000AF1621F4A9903324339405C08BE2A81682
:104D100009F4A9903324C114D10421F0E0E1CE16A6
:104D2000D10411F5F0E3AF1669F48881883711F0EA
:104D3000883541F4A980229682E0382A20E1C22EEB
:104D4000D12C12C0C114D10479F4E0E3AE1659F1AC
:104D500099E9E92E99E9F92E99E9092F99E1192F95
:104D60008AE0C82ED12C3AC0FAE0CF16D10491F0D7
:104D700080E1C816D10429F0E8E0CE16D104F9F498
:104D800015C0BFEFEB2EBFEFFB2EBFEF0B2FBFE029
:104D90001B2F24C0A9E9EA2EA9E9FA2EA9E90A2FB6
:104DA000A9E11A2F1BC0F8E0CF2ED12CEFEFEE2E89
:104DB000EFEFFE2EEFEF0E2FEFE11E2F0FC096014B
:104DC000442737FD4095542F6FEF7FEF8FEF9FEF14
:104DD0000E942026C901DA017C018D0120E030E02B
:104DE00040E050E060E03601882477FC8094982C05
:104DF00070EDB72EBA0CF9E0FB1570F48A2D8154D2
:104E00008A3118F499ECB92E06C08A2D81568A3160
:104E100048F589EAB82EBA0C8B2D90E08C159D05CB
:104E20000CF56F3FE9F0E216F30604071507B8F03A
:104E3000CA01B901A40193010E94DA259B01AC01CA
:104E40008B2D90E0A0E0B0E0280F391F4A1F5B1FB8
:104E5000281739074A075B0710F061E001C06FEFC0
:104E6000A990C6CF4114510451F0662311F0219747
:104E700003C031FE04C02297F201D183C08330FE0B
:104E800007C050954095309521953F4F4F4F5F4F4C
:104E900067FF0AC082E290E090935806809357061D
:104EA0002FEF3FEF4FEF5FEFB901CA01CDB7DEB78C
:104EB000E1E10C94202C9111FCC3803219F089504F
:104EC0008550D0F70895FB01DC0102C005900D92DA
:104ED00041505040D8F70895FB01DC0105900D9238
:104EE0000020E1F70895FB01DC018D91019080190C
:104EF0000110D9F3990B08950F931F93CF93DF936C
:104F00008C01EB01009731F46115710519F420E073
:104F100030E038C081E090E06EE070E00E94382A16
:104F2000FC019C01009771F180E88383209771F068
:104F3000D387C28781E8838380915106909152067E
:104F4000892B21F4F0935206E093510601151105C7
:104F5000C9F0118700878381826083838091530623
:104F600090915406892B71F4F0935406E093530604
:104F70008091550690915606892B21F4F0935606A0
:104F8000E0935506C901DF91CF911F910F910895CC
:104F9000A0E0B0E0EEECF7E20C94132C9E01275F4A
:104FA0003F4F8D819E816F817885A9010E942928BC
:104FB0002096E2E00C942F2CEF92FF920F931F9318
:104FC000CF93DF937C018B01DB0113968C9181FDE4
:104FD00003C0CFEFDFEF13C0C0E0D0E00BC0D801BB
:104FE0001896ED91FC911997B8010995892B11F04C
:104FF000CFEFDFEFF70181917F01882381F7CE01A9
:10500000CDB7DEB7E6E00C942B2CAEE0B0E0EBE0E1
:10501000F8E20C94112C0D891E8986E08C831A838A
:1050200009838FEF9FE79E838D839E01275E3F4F0D
:10503000CE0101966F89788DA9010E9429282F81C0
:105040003885020F131FF80110822E96E4E00C94AD
:105050002D2CABE0B0E0EFE2F8E20C94032C3C0125
:105060002B015A01FC0117821682838181FD03C046
:105070006FEF7FEFC6C19AE0892E1E010894211CB4
:10508000311CF3012381F20123FD859123FF8191DE
:105090002F01882309F4B2C1853239F423FD8591AB
:1050A00023FF81912F01853229F490E0B3010E9402
:1050B000792BE7CF982FFF24EE249924FFE1FF15E9
:1050C000D0F09B3269F09C3228F4903259F0933240
:1050D00091F40EC09D3249F0903369F441E024C050
:1050E00052E0F52A84E0F82A28C098E0F92A25C081
:1050F000E0E1FE2A22C0F7FC29C0892F80538A30C4
:1051000070F4F6FE05C0989C902C1124980E15C0E2
:10511000E89CE02C1124E80EF0E2FF2A0EC09E323B
:1051200029F4F6FC6BC140E4F42A07C09C3619F45C
:1051300050E8F52A02C0983649F4F20123FD959112
:1051400023FF91912F01992309F0B8CF892F85541E
:10515000833018F08052833038F444E050E0A40EDD
:10516000B51E5FE359830FC0933631F0933779F062
:10517000933509F056C020C0F5018081898342E053
:1051800050E0A40EB51E610101E010E012C0F5016F
:10519000C080D180F6FC03C06FEF7FEF02C0692DA5
:1051A00070E042E050E0A40EB51EC6010E946E2BD6
:1051B0008C015FE7F52214C0F501C080D180F6FCB8
:1051C00003C06FEF7FEF02C0692D70E042E050E056
:1051D000A40EB51EC6010E945C2B8C0150E8F52A76
:1051E000F3FE07C01AC080E290E0B3010E94792B61
:1051F000EA948E2D90E008171907A8F30EC0F60167
:10520000F7FC8591F7FE81916F0190E0B3010E9458
:10521000792BE110EA94015010400115110579F73E
:10522000EAC0943611F0993669F5F7FE08C0F50129
:10523000208131814281538184E090E00AC0F501F0
:10524000808191819C01442737FD4095542F82E055
:1052500090E0A80EB91E9FE6F92257FF09C05095AD
:105260004095309521953F4F4F4F5F4FE0E8FE2A24
:10527000CA01B901A1012AE030E00E94A52BD82E75
:10528000D21840C0953729F41F2D1F7E2AE030E048
:105290001DC01F2D197F9F3661F0903720F498357F
:1052A00009F0ACC00FC0903739F0983709F0A6C0AC
:1052B00004C028E030E00AC0106114FD146020E151
:1052C00030E004C014FD166020E132E017FF08C092
:1052D000F501608171818281938144E050E008C0D2
:1052E000F50180819181BC0180E090E042E050E0D6
:1052F000A40EB51EA1010E94A52BD82ED2188FE7AF
:10530000F82EF122F6FE0BC05EEFF522D91438F428
:10531000F4FE07C0F2FC05C08FEEF82202C01D2D7E
:1053200001C0192DF4FE0DC0FE01ED0DF11D8081AF
:10533000803319F499EEF92208C01F5FF2FE05C010
:1053400003C08F2D867809F01F5F0F2DF3FC14C06A
:10535000F0FE0FC01E1510F09D2C0BC09D2C9E0C56
:10536000911A1E2D06C080E290E0B3010E94792BB5
:105370001F5F1E15C0F304C01E1510F4E11A01C012
:10538000EE2404FF0FC080E390E0B3010E94792B6C
:1053900002FF1DC001FD03C088E790E00EC088E554
:1053A00090E00BC0802F867891F001FF02C08BE265
:1053B00001C080E2F7FC8DE290E0B3010E94792BFE
:1053C00006C080E390E0B3010E94792B9A94D9142F
:1053D000C0F3DA94F101ED0DF11D808190E0B3018D
:1053E0000E94792BDD20A9F706C080E290E0B3018E
:1053F0000E94792BEA94EE20C1F743CEF301668137
:105400007781CB012B96E2E10C941F2CDC01CB01C0
:10541000FC01E199FECF06C0FFBBEEBBE09A3196DE
:105420000DB20D9241505040B8F70895A8E1B0E098
:1054300042E050E00C94082ADC01CB0103C02D911E
:105440000E94272A41505040D0F70895262FE19915
:10545000FECF9FBB8EBB2DBB0FB6F894E29AE19AAC
:105460000FBE019608950E94262A272F0C94272A02
:105470000F931F93CF93DF93689F8001699F100D57
:10548000789F100D1124C8010E94542AEC01009746
:1054900029F060E070E0A8010E94672BCE01DF9147
:1054A000CF911F910F910895CF93DF93BC0182306C
:1054B000910510F462E070E0A0915B06B0915C068B
:1054C000ED01E0E0F0E040E050E021C0888199810A
:1054D0008617970769F48A819B81309719F0938327
:1054E000828304C090935C0680935B06FE0134C007
:1054F0006817790738F44115510519F08417950795
:1055000008F4AC01FE018A819B819C01E90120978E
:10551000E9F641155105A9F1CA01861B970B0497BD
:1055200008F4BA01E0E0F0E02AC08D919C91119757
:1055300084179507F9F46417750781F412968D9115
:105540009C911397309719F09383828304C09093B2
:105550005C0680935B06FD0132964FC0CA01861B34
:10556000970BFD01E80FF91F6193719302978D93DB
:105570009C9343C0FD01828193819C01D9011097C6
:10558000A1F68091590690915A06892B41F4809199
:10559000C6059091C70590935A068093590640918D
:1055A000C8055091C9054115510541F44DB75EB785
:1055B0008091C4059091C505481B590B209159064F
:1055C00030915A0624173507B0F4CA01821B930B99
:1055D0008617970780F0AB014E5F5F4F84179507E2
:1055E00050F0420F531F50935A0640935906F90149
:1055F0006193719302C0E0E0F0E0CF01DF91CF91C1
:105600000895CF93DF93009709F450C0EC012297DF
:105610001B821A82A0915B06B0915C06109709F17B
:1056200040E050E0AC17BD0708F1BB83AA83FE0140
:1056300021913191E20FF31FAE17BF0779F48D91DD
:105640009C911197280F391F2E5F3F4F3983288374
:1056500012968D919C9113979B838A8341155105D6
:1056600071F4D0935C06C0935B0620C012968D91B6
:105670009C911397AD01009711F0DC01D3CFFA0193
:10568000D383C28321913191E20FF31FCE17DF073D
:1056900069F488819981280F391F2E5F3F4FFA01E5
:1056A000318320838A819B8193838283DF91CF9191
:1056B0000895992788270895FC010590615070404E
:1056C0000110D8F7809590958E0F9F1F0895DC01EB
:1056D00001C06D9341505040E0F70895FC016150C6
:1056E000704001900110D8F7809590958E0F9F1F04
:1056F00008950F931F93CF93DF938C01EB018B8160
:1057000081FF1BC082FF0DC02E813F818C819D8156
:105710002817390764F4E881F9810193F983E88354
:1057200006C0E885F985802F0995892B31F48E8193
:105730009F8101969F838E8302C00FEF1FEFC801E8
:10574000DF91CF911F910F910895FA01AA27283078
:1057500051F1203181F1E8946F936E7F6E5F7F4F3E
:105760008F4F9F4FAF4FB1E03ED0B4E03CD0670FBA
:10577000781F891F9A1FA11D680F791F8A1F911D0D
:10578000A11D6A0F711D811D911DA11D20D009F45D
:1057900068943F912AE0269F11243019305D31939F
:1057A000DEF6CF010895462F4770405D4193B3E088
:1057B0000FD0C9F7F6CF462F4F70405D4A3318F02F
:1057C000495D31FD4052419302D0A9F7EACFB4E0E0
:1057D000A6959795879577956795BA95C9F7009798
:1057E0006105710508959B01AC010A2E0694579539
:1057F000479537952795BA95C9F7620F731F841F90
:10580000951FA01D08952F923F924F925F926F9225
:105810007F928F929F92AF92BF92CF92DF92EF9240
:10582000FF920F931F93CF93DF93CDB7DEB7CA1BC1
:10583000DB0B0FB6F894DEBF0FBECDBF09942A88EC
:10584000398848885F846E847D848C849B84AA8494
:10585000B984C884DF80EE80FD800C811B81AA8121
:10586000B981CE0FD11D0FB6F894DEBF0FBECDBFEC
:08587000ED010895F894FFCF4B
:1058780025640A0A0025630A0A002573202825736F
:105888002E2573290A0A000A2D2D2D3D3D3D205055
:105898004343532020762573203D3D3D2D2D2D0A71
:1058A800002050726F6772616D6D61626C65204394
:1058B8006F6E7374616E742043757272656E7420B6
:1058C800536F757263652028666F72206869676810
:1058D80020706F776572204C454473290A00202890
:1058E80063292025732E2573206279204A616E2052
:1058F8004B7269656765722028444B465A290A002D
:10590800206A2E6B72696567657240646B667A2ED1
:105918006465202D2D20206A616E406A6B7269656E
:105928006765722E64650A0A000A0A0045455052E6
:105938004F4D2D434F4E54454E54533A0A0025328D
:105948005828256429200025632825642920004536
:1059580052524F523A2054494D454F55540A0A0065
:105968004552524F523A20494E56414C49442044E0
:105978004154410A0A004552524F523A20494E5664
:10598800414C494420494E535452554354494F4E73
:1059980020284D303C2E2E2E3E206F72204D313C5B
:1059A8002E2E2E3E20616C6C6F776564290A0A00E2
:1059B80025730A0A0046414E5F535441525400462B
:1059C800414E5F464143544F520046414E5F4F4659
:1059D80046534554004C43445F4241434B4C49476E
:1059E80048540043555252454E545F4D4158004368
:1059F800555252454E545F31303000494144435F5F
:105A08004D4541535552454D454E5453004541442B
:105A1800435F4D4541535552454D454E54530045FE
:105A28004144435F5741495400494144435F57410A
:105A38004954004C45445F424C494E4B004C454448
:105A4800004241554452415445004552524F523A42
:105A580020554E4B4E4F574E20504152414D4554C4
:105A680045520A0A004552524F523A20554E4B4E63
:105A78004F574E204C45440A0A0025732C202564B4
:105A88002C2025640A0A004552524F523A204545B7
:105A980050524F4D205752495445204552524F526B
:105AA800004552524F523A2057524F4E4720464FC8
:105AB800524D4154206E616D653D2573207376709B
:105AC8003D25732073766D3D25730A0A0025642CE5
