:100000000C9494010C94B1010C94B1010C94B101C5
:100010000C94B1010C94B1010C94B1010C945E0BE1
:100020000C94B1010C94B1010C94B1010C94B10188
:100030000C94B1010C94780F0C94AE0F0C94B10198
:100040000C94B1010C94B1010C94B1010C94B10168
:100050000C94B101D4FFD4FFD5FFD5FFD6FFD7FF55
:10006000D7FFD8FFD8FFD9FFD9FFDAFFDBFFDBFFCF
:10007000DCFFDCFFDDFFDEFFDEFFDFFFDFFFE0FF99
:10008000E0FFE1FFE2FFE2FFE3FFE3FFE4FFE4FF65
:10009000E5FFE6FFE6FFE7FFE7FFE8FFE9FFE9FF2F
:1000A000EAFFEAFFEBFFEBFFECFFEDFFEDFFEEFFFA
:1000B000EEFFEFFFF0FFF0FFF1FFF1FFF2FFF3FFC4
:1000C000F3FFF4FFF4FFF5FFF6FFF6FFF7FFF7FF8E
:1000D000F8FFF8FFF9FFFAFFFAFFFBFFFBFFFCFF59
:1000E000FDFFFDFFFEFFFEFFFFFF0000000001001F
:1000F00001000200030003000400040005000600E4
:100100000600070007000800090009000A000A00AD
:100110000B000C000C000D000E000E000F000F0075
:10012000100011001100120012001300140014003E
:100130001500150016001700170018001900190007
:100140001A001A001B001C001C001D001D001E00D0
:100150001F001F0020002100210022002200230098
:100160002400240025002600260027002700280060
:10017000290029002A002B002B002C002C002D0028
:100180002E002E002F0030003000310031003200F0
:1001900033003300340035003500360037003700B7
:1001A0003800380039003A003A003B003C003C007F
:1001B0003D003E003E003F003F0040004100410046
:1001C000420043004300440045004500460047000C
:1001D00047004800480049004A004A004B004C00D4
:1001E0004C004D004E004E004F005000500051009A
:1001F0005200520053005300540055005500560061
:10020000570057005800590059005A005B005B0026
:100210005C005D005D005E005F005F0060006100EB
:1002200061006200630063006400650065006600B1
:10023000670067006800690069006A006A006B0077
:100240006C006C006D006E006E006F00700070003E
:100250007100720073007300740075007500760001
:10026000770077007800790079007A007B007B00C6
:100270007C007D007D007E007F007F00800081008B
:100280008100820083008300840085008500860051
:10029000870087008800890089008A008B008C0015
:1002A0008C008D008E008E008F00900090009100D9
:1002B000920092009300940094009500960097009D
:1002C0001F1B1B001B1B1F1F1F1F1F001F1F1F1F8C
:1002D0001F1B110A1B1B1B1F1F1B1B1B0A111B1F94
:1002E0001F1D1D1D1501171F0814150A050B1101EF
:1002F000170A151B170D1D1D1F1F1F1F1F1F1F1F57
:100300001F1111111111111F0202060E0C08080015
:100310001008040E0402010000001C0E070000007B
:100320000102040E0408100011241FBECFE5D8E01E
:10033000DEBFCDBF15E0A0E6B0E0E2E7FDE402C01D
:1003400005900D92AE36B107D9F716E0AEE6B5E0EE
:1003500001C01D92A230B107E1F70E9408080C9479
:10036000B7260C940000EF92FF920F931F93FC01AD
:1003700068177907F4F0841795071CF400E010E083
:1003800018C0E41BF50BEE9EC001EF9E900DFE9E83
:10039000900D11246AE070E00E94621F620F731FCB
:1003A0006217730710F4890104C06017710708F41D
:1003B0008B01C8011F910F91FF90EF900895DF927C
:1003C000EF92FF920F931F93CF93DF93E0906F050F
:1003D000F090700500917105109172058FE090E02A
:1003E000A0E0B0E0E80EF91E0A1F1B1FC0E0D0E03D
:1003F00028E530E0DD2409C00E9409109C01C09767
:10040000029718F4D22EC1E0D0E080916F05909150
:100410007005A0917105B09172058E159F05A0071A
:10042000B10740F42A30310529F02D30310511F0A3
:10043000209711F380916F0590917005A09171053F
:10044000B09172058E159F05A007B10750F490E397
:10045000D91619F410927F0508C081E080937F05BA
:1004600004C080E690E00E94F40FDF91CF911F91CD
:100470000F91FF90EF90DF9008958330910509F47C
:1004800075C08430910554F48130910569F1823052
:1004900091050CF052C0892B69F0089585309105C3
:1004A00009F49EC0853091050CF47BC0069709F0D5
:1004B000DEC0B9C020917505309176054091770571
:1004C000509178058DB79EB708970FB6F8949EBFE8
:1004D0000FBE8DBFEDB7FEB7319680919305909119
:1004E0009405ADB7BEB717C02091790530917A0554
:1004F00040917B0550917C05ADB7BEB718970FB6FC
:10050000F894BEBF0FBEADBFEDB7FEB73196809178
:1005100093059091940512969C938E93119781E781
:1005200090E09383828324833583468357830E949C
:1005300045228DB79EB7089670C02091E405309192
:10054000E50500D000D000D0EDB7FEB73196809120
:10055000930590919405ADB7BEB712969C938E9378
:10056000119787E790E09383828337C000D000D053
:1005700000D0EDB7FEB73196809193059091940528
:10058000ADB7BEB712969C938E93119787E790E014
:100590009383828380917D0590917E0595838483EA
:1005A00037C080917F0500D000D000D0EDB7FEB7F6
:1005B00031962091930530919405ADB7BEB7129650
:1005C0003C932E93119727E730E03383228320E07A
:1005D00030E0882311F021E030E03583248318C017
:1005E00000D000D000D0EDB7FEB7319680919305D2
:1005F00090919405ADB7BEB712969C938E931197C8
:1006000087E790E09383828380916E0584831582CF
:100610000E9445228DB79EB706960FB6F8949EBFEE
:100620000FBE8DBF0895209173053091740500D0E1
:1006300000D000D0EDB7FEB7319680919305909130
:100640009405ADB7BEB712969C938E93119787E72A
:1006500090E093838283358324830E9445228DB763
:100660009EB706960FB6F8949EBF0FBE8DBF089535
:10067000DF92EF92FF920F931F93CF93DF9320911E
:100680007505309176054091770550917805E09099
:100690007905F0907A0500917B0510917C056091B9
:1006A000E4057091E505D0907F05C0917305D09168
:1006B00074058DB79EB746970FB6F8949EBF0FBED0
:1006C0008DBFADB7BEB711968091930590919405FB
:1006D000EDB7FEB7928381838CE790E013969C93ED
:1006E0008E93129714962D933D934D935C93179789
:1006F0001896ED92FD920D931C931B971D967C937B
:100700006E931C9780917D0590917E051F969C931A
:100710008E931E9780E090E0DD2011F081E090E064
:1007200051969C938E93509780916E0552968C9320
:10073000529753961C9253975596DC93CE935497A9
:100740000E9445228DB79EB746960FB6F8949EBF7D
:100750000FBE8DBFDF91CF911F910F91FF90EF9052
:10076000DF9008958DB79EB70A970FB6F8949EBF95
:100770000FBE8DBFEDB7FEB7319680919305909176
:100780009405ADB7BEB712969C938E9311978BE9E3
:1007900090E0938382838BE392E09583848386E465
:1007A00092E09783868389E492E0918780870E9414
:1007B00045228DB79EB70A960FB6F8949EBF0FBE1E
:1007C0008DBF089500D000D000D0EDB7FEB73196B0
:1007D0008091930590919405ADB7BEB712969C9306
:1007E0008E93119788EA90E0938382838BE392E063
:1007F000958384830E94452200D0EDB7FEB73196E1
:100800008091930590919405ADB7BEB712969C93D5
:100810008E93119782EE90E09383828386E492E038
:100820009583848389E492E0978386830E9445229E
:100830008DB79EB708960FB6F8949EBF0FBE8DBFBA
:1008400084E091E00E94F40F0895AF92BF92CF929E
:10085000DF92EF92FF920F931F93DF93CF93CDB769
:10086000DEB7AA970FB6F894DEBF0FBECDBF84E106
:10087000DE011396FD01282F11922A95E9F79E01BA
:10088000295E3F4FF90111928A95E9F7E0906F05D3
:10089000F090700500917105109172052FE030E025
:1008A00040E050E0E20EF31E041F151FCC24DD24AF
:1008B00020E030E05D011AC00E9409109C01C09741
:1008C0000A9768F0C901815490404A9740F0C901E5
:1008D000815690404A9718F02F35310539F4F501CB
:1008E000EC0DFD1D20830894C11CD11C80916F0567
:1008F00090917005A0917105B09172058E159F05BC
:10090000A007B10780F42D33310589F02A30310575
:1009100009F4E5C12D30310509F4E1C133E1C31615
:10092000D10454F2CDC22D33310509F0D1C18091EB
:100930006F0590917005A0917105B09172058E15AB
:100940009F05A007B10708F0BBC2E0906F05F090CB
:10095000700500917105109172058FE090E0A0E0A4
:10096000B0E0E80EF91E0A1F1B1FCC24DD2420E096
:1009700030E087E1A82EB12CAC0EBD1E3BC00E941A
:1009800009109C01C0970A9770F1C90181549040E9
:100990004A9748F1C901815690404A9720F12F3576
:1009A000310509F120323105F1F02E323105D9F04F
:1009B0002C323105C1F02A333105A9F02B33310532
:1009C00091F02F32310579F02C35310561F02B3261
:1009D000310549F02A32310531F02332310519F061
:1009E0002D32310539F4F501EC0DFD1D20830894FD
:1009F000C11CD11C80916F0590917005A09171056B
:100A0000B09172058E159F05A007B10770F42D33C4
:100A1000310559F02A30310541F02D30310529F0EA
:100A200093E1C916D1040CF4AACF80916F0590917F
:100A30007005A0917105B09172058E159F05A007F4
:100A4000B10708F039C28E010D5F1F4F8DE291E0B2
:100A5000B8010E94F0210097C1F4CE014796BE0173
:100A60006F5F7F4F4AE050E00E94B21F9B01AC01D4
:100A7000E981FA818081882309F027C1233031057B
:100A80000CF023C12093E3051BC28BE491E0B80175
:100A90000E94F0210097B1F4CE014796BE016F5F2E
:100AA0007F4F4AE050E00E94B21F9B01AC01E981F8
:100AB000FA818081882309F008C13093EF052093E3
:100AC000EE05FEC189E591E0B8010E94F021009792
:100AD000B1F4CE014796BE016F5F7F4F4AE050E010
:100AE0000E94B21F9B01AC01E981FA8180818823B9
:100AF00009F0EBC03093DA052093D905E1C187E610
:100B000091E0B8010E94F0210097B1F4CE01479620
:100B1000BE016F5F7F4F4AE050E00E94B21F9B0111
:100B2000AC01E981FA818081882309F0CEC030933D
:100B3000E0052093DF05C4C180E791E0B8010E9481
:100B4000F0210097B1F4CE014796BE016F5F7F4F51
:100B50004AE050E00E94B21F9B01AC01E981FA819A
:100B60008081882309F0B1C03093E2052093E1052C
:100B7000A7C188E791E0B8010E94F0210097B1F485
:100B8000CE014796BE016F5F7F4F4AE050E00E9462
:100B9000B21F9B01AC01E981FA818081882309F0B1
:100BA00094C03093ED052093EC058AC185E891E06F
:100BB000B8010E94F0210097B1F4CE014796BE0122
:100BC0006F5F7F4F4AE050E00E94B21F9B01AC0173
:100BD000E981FA818081882309F077C03093E705A5
:100BE0002093E6056DC18BE891E0B8010E94F021E9
:100BF0000097F9F4CE014796BE016F5F7F4F4AE040
:100C000050E00E94B21F9B01AC01E981FA81808112
:100C1000882309F05AC0C901AA2797FDA095BA2FC9
:100C20008093DB059093DC05A093DD05B093DE0592
:100C300047C184E991E0B8010E94F0210097A9F42E
:100C4000CE014796BE016F5F7F4F4AE050E00E94A1
:100C5000B21F9B01AC01E981FA8180818823A9F54B
:100C60003093F1052093F0052BC18AE991E0BE0194
:100C70006D5F7F4F0E94F021009709F01AC1CE01ED
:100C80004796BE016F5F7F4F4AE050E00E94E1202F
:100C90009B01AC01E981FA8180818823B1F4209322
:100CA000E8053093E9054093EA055093EB05609120
:100CB000E8057091E9058091EA059091EB0548E01F
:100CC00021E000E00E940E10FBC085E391E0F6C039
:100CD0002A30310521F02D30310509F0F1C0809125
:100CE0006F0590917005A0917105B09172058E15F8
:100CF0009F05A007B10708F0DFC08E010D5F1F4FF1
:100D00008DE291E0B8010E94F0210097D1F420918A
:100D1000E30500D000D000D0EDB7FEB7319680914A
:100D2000930590919405ADB7BEB712969C938E93A0
:100D3000119787E790E093838283332727FD3095CF
:100D40001FC08BE491E0B8010E94F021009701F5EB
:100D50002091EE053091EF0500D000D000D0EDB726
:100D6000FEB731968091930590919405ADB7BEB7CB
:100D700012969C938E93119787E790E093838283DA
:100D8000358324830E944522EDB7FEB736968BC08B
:100D900089E591E0B8010E94F021009729F42091A3
:100DA000D9053091DA05D8CF87E691E0B8010E94E5
:100DB000F021009729F42091DF053091E005CCCF98
:100DC00080E791E0B8010E94F021009729F420917A
:100DD000E1053091E205C0CF88E791E0B8010E94BB
:100DE000F021009729F42091EC053091ED05B4CF66
:100DF00085E891E0B8010E94F021009729F4209144
:100E0000E6053091E705A8CF8BE891E0B8010E9494
:100E1000F021009749F42091DB053091DC054091E9
:100E2000DD055091DE051DC084E991E0B8010E9406
:100E3000F021009729F42091F0053091F1058CCF35
:100E40008AE991E0BE016D5F7F4F0E94F02100971B
:100E500081F52091E8053091E9054091EA0550912E
:100E6000EB058DB79EB708970FB6F8949EBF0FBEDF
:100E70008DBFEDB7FEB731968091930590919405A3
:100E8000ADB7BEB712969C938E93119781E790E011
:100E90009383828324833583468357830E9445222C
:100EA000EDB7FEB738960FB6F894FEBF0FBEEDBF94
:100EB00007C083EA91E002C080E690E00E94F40F50
:100EC0000E94C311AA960FB6F894DEBF0FBECDBF25
:100ED000CF91DF911F910F91FF90EF90DF90CF9016
:100EE000BF90AF900895AF92BF92CF92DF92EF92F2
:100EF000FF920F931F93DF93CF93CDB7DEB72C975D
:100F00000FB6F894DEBF0FBECDBFFE0133968AE068
:100F1000DF011D928A95E9F7E0906F05F09070056A
:100F200000917105109172058FE090E0A0E0B0E0B3
:100F3000E80EF91E0A1F1B1FCC24DD2428E530E033
:100F40005F0113C00E9409109C01C0970A9730F0FE
:100F50002B32310519F02D32310539F4F501EC0D44
:100F6000FD1D20830894C11CD11C80916F059091B8
:100F70007005A0917105B09172058E159F05A007AF
:100F8000B10750F42A30310539F02D30310521F008
:100F900094E0C916D104B4F280916F059091700568
:100FA000A0917105B09172058E159F05A007B1073C
:100FB000D0F4CE010396BE016F5F7F4F4AE050E050
:100FC0000E94B21F9B01AC01E981FA8180818823D4
:100FD00039F43093E5052093E4050E949F1107C082
:100FE00085E391E002C080E690E00E94F40F2C9629
:100FF0000FB6F894DEBF0FBECDBFCF91DF911F912A
:101000000F91FF90EF90DF90CF90BF90AF90089539
:101010002F923F924F925F926F927F928F929F9208
:10102000AF92BF92CF92DF92EF92FF920F931F93F6
:10103000CF93DF930E948E0EAD9A1092A30581E0AC
:101040008093A8058093A4051092860580E060E057
:101050000E94C30C0E94B30C0E94BB0C83E69DE06F
:1010600060E070E00E94F9219093A7058093A605A7
:101070000E9472136091E8057091E9058091EA057C
:101080009091EB0548E021E000E00E940E108EEE0A
:101090009FE063E070E10E94F921909394058093B2
:1010A00093056091F0057091F1054091F205509122
:1010B000F3052091E6053091E705E090DB05F0901F
:1010C000DC050091DD051091DE0585E995E00E94C3
:1010D000421480E061E00E94080D8EEB91E00E94D6
:1010E000680D80E062E00E94080D83ED91E00E94AF
:1010F000680D80E063E00E94080D88EE91E00E9498
:10110000680D80E064E00E94080D8DEF91E00E9480
:10111000680D0E94E20388E893E120E931E0F901DB
:101120003197F1F70197D9F7789488EC90E00E9415
:10113000CB0D8091A6059091A7050E941015AD9842
:101140001092860585E00E94300F9924939452E016
:10115000852E4BE3642E42E0742E36E4432E32E0BB
:10116000532E29E4222E22E0322E88E00E94E80D40
:101170009093740580937305809173059091740525
:101180008F5B9040909374058093730580917305F5
:101190009091740518161906BCF48091730590910E
:1011A00074058353914084F4E0917305F0917405C4
:1011B000EE0FFF1FEC5AFF4F85919591A591B491C9
:1011C00090937405809373058091730590917405D5
:1011D0006091DF057091E0054091E1055091E205D5
:1011E000E090EC05F090ED0525E030E00AE010E03D
:1011F0000E94B3018093800520917305309174059E
:101200008091DF059091E0058217930734F41092E6
:101210007F05929890926E0503C0929A10926E0587
:1012200081E060E10E94030E6091EE057091EF0590
:101230000E94A50EAA2797FDA095BA2F8093750549
:1012400090937605A0937705B093780580E060E1F0
:101250000E94030E6091D9057091DA050E94A50ED7
:10126000AA2797FDA095BA2F8093790590937A05C8
:10127000A0937B05B0937C059092390290923A023C
:101280008091750590917605A0917705B0917805CC
:101290008F5F9F4FA040B040D1F080917505909135
:1012A0007605A0917705B09178058D5A9642A040B9
:1012B000B0406CF48091750590917605A09177050A
:1012C000B09178058455994DAF4FBF4F14F41092EB
:1012D00039028091790590917A05A0917B05B091B2
:1012E0007C058F5F9F4FA040B040D1F08091790581
:1012F00090917A05A0917B05B0917C058D5A96421C
:10130000A040B0406CF48091790590917A05A0914D
:101310007B05B0917C058455994DAF4FBF4F14F4B8
:1013200010923A0280917F05882309F481C0AE981B
:10133000AF9A2091750530917605409177055091CF
:101340007805909139028091E305813059F420911C
:10135000790530917A0540917B0550917C059091FB
:101360003A0232C08091E305823071F5E090750554
:10137000F090760500917705109178052091790518
:1013800030917A0540917B0550917C05992319F4A1
:10139000C0E0D0E008C090E080913A02882309F4D0
:1013A00091E09925C92F2E0D3F1D401F511FCA01E5
:1013B000B90122E030E040E050E00E94971FC901EF
:1013C000DA019C01AD019C2F992379F110926E05F1
:1013D0008091820590918305893C910578F1109266
:1013E0008305109282056091E4057091E50585E919
:1013F00095E0A9010E94DD1370937E0560937D0541
:1014000077FF04C010927E0510927D0580917D05C6
:1014100090917E058F3F910589F084F08FEF90E0E9
:1014200090937E0580937D0509C080926E0502C071
:10143000AE98AF9810927E0510927D0580917D0543
:101440000E94380F80918605813009F048C0AD9A1E
:10145000929AAE98AF988091A6059091A7050E94A8
:101460004A1E6091E8057091E9058091EA05909126
:10147000EB0548E021E000E00E940E1084EF91E0CF
:10148000E0E9F1E03197F1F70197D1F77894809195
:10149000A6059091A7050E941015AD98109286059B
:1014A0001092A3059092A8059092A4056091F00572
:1014B0007091F1054091F2055091F3052091E605F8
:1014C0003091E705E090DB05F090DC050091DD054B
:1014D0001091DE0585E995E00E94421446CE0E94F7
:1014E00009108635910509F448C087359105CCF47B
:1014F0008F349105C9F1803591055CF482339105F3
:1015000009F466C08F33910549F1C19709F073C0A2
:101510005CC08035910559F18435910509F06BC0A7
:1015200020C08F36910509F459C0803791054CF4DD
:101530008536910509F45BC08936910509F05BC0D9
:101540004AC08437910509F44FC08637910509F4E4
:1015500048C08337910509F04EC00CC00E94E203D9
:101560004AC00E94730747C00E94DF0144C00E9426
:10157000250441C00E9438033EC0ADB7BEB71A97DC
:101580000FB6F894BEBF0FBEADBFEDB7FEB7319634
:10159000809193059091940512969C938E93119748
:1015A0008BE990E0938382837582648257824682BE
:1015B000318620860E944522ADB7BEB71A960FB677
:1015C000F894BEBF0FBEADBF16C080E090E011C062
:1015D00081E090E00EC086E090E00BC084E090E0F7
:1015E00008C083E090E005C082E090E002C085E0A2
:1015F00090E00E943D026091E305209175053091D5
:1016000076054091770550917805A0907905B090C6
:101610007A05C0907B05D0907C05009173051091F0
:101620007405E090E405F090E5058091A6059091A1
:10163000A705A90195010E94311560917D05709162
:101640007E058091A6059091A70540E050E02FEF20
:1016500030E00E945A1480916E05882399F0929888
:10166000813039F48CE062E00E94080D82E192E062
:101670000FC0823039F48CE062E00E94080D8BE1EB
:1016800092E006C08CE062E00E94080D84E292E0E5
:101690000E94680D80917F05882339F08FE064E017
:1016A0000E94080D8DE292E006C08FE064E00E9487
:1016B000080D83E392E00E94680D57CD1F920F92B0
:1016C0000FB60F9211242F933F934F935F936F9315
:1016D0007F938F939F93AF93BF93EF93FF938091EB
:1016E00082059091830501969093830580938205EE
:1016F00080918005882361F080918405882311F40E
:10170000959A07C09091840580918005891708F407
:101710009598809184058F5F8093840580918405DE
:101720008A3008F4BDC01092840580916F059091B5
:101730007005A0917105B09172050196A11DB11DB2
:1017400080936F0590937005A0937105B093720517
:1017500080918605882309F0A1C086B3982F9870E0
:1017600083FF07C08091A405882319F481E080934A
:1017700086059093A40580918605882309F090C082
:1017800086B3982F917080FF0EC08091A8058823A2
:1017900051F480917F05882321F481E080937F05B7
:1017A00002C010927F059093A80586B3B29930C00D
:1017B0008091A305893220F48091A305853188F0BA
:1017C0008091E4059091E5050A9734F08091E40555
:1017D0009091E5050A9758C01092E5051092E4052E
:1017E00057C08091A3058F5F8093A3058091E40586
:1017F0009091E505181619060CF052C08091A305CA
:1018000080FD4EC08091E4059091E50501973CC0B4
:1018100081FD41C08091A305893268F08091E40583
:101820009091E505895C9540BCF48091E405909128
:10183000E505449629C08091A305853180F080910B
:10184000E4059091E505835D954034F48091E405CD
:101850009091E5050A9618C08CED95E015C0809131
:10186000A3058F5F8093A3058091E4059091E50522
:101870008C5D9540ACF48091A30580FD11C08091F2
:10188000E4059091E50501969093E5058093E405C4
:101890000E949F1105C01092A30502C00E949A1ECB
:1018A000FF91EF91BF91AF919F918F917F916F9138
:1018B0005F914F913F912F910F900FBE0F901F900E
:1018C00018959BB3907F9BBB2BB3982F92959F70DD
:1018D000922B9BBBDC9830EA932F9A95F1F7DC9A18
:1018E0002AE1922F9A95F1F7DC989BB3907F9BBBEE
:1018F0009BB38F70982B9BBBDC983A95F1F7DC9AE1
:101900002A95F1F7DC9808959BB3907F9BBB9BB31E
:101910008F70892B8BBBDC9880EA8A95F1F7DC9A73
:101920008AE18A95F1F7DC980895DD98C49A0E94BF
:10193000610C80EF8A95F1F70895DD98C4980E94B4
:10194000610C80EF8A95F1F70895882311F08CE0FF
:1019500001C088E061118E5F41118F5F0E949D0C74
:1019600008950895089581E00E949D0C80E99AE110
:101970000197F1F7089582E00E949D0C80E99AE1B9
:101980000197F1F708950F931F93182F062F8AB32D
:101990008F608ABBBC9AD59AD49A80E991E020E9FD
:1019A00031E0F9013197F1F70197D9F7DD98C49843
:1019B000DC9880E991E020E931E0F9013197F1F715
:1019C0000197D9F782E00E94840C80E29EE401979F
:1019D000F1F784E20E949D0C89E00E949D0C80E258
:1019E0000E949D0C8CE00E949D0C0E94B30C86E02E
:1019F0000E949D0C0E94BB0C81E0612F402F0E9431
:101A0000A50C0E94B30C0E94BB0C1F910F9108956E
:101A1000623039F0633058F0633029F0643039F4C3
:101A200004C0805605C0805403C0805201C0805855
:101A30000E949D0C80E99AE10197F1F708958C309E
:101A400019F480E061E00EC08A3019F480E062E0B1
:101A500009C08B3019F480E063E004C08D3029F4B4
:101A600080E064E00E94080D0895813011F480E068
:101A700027C0823011F481E023C0833011F482E06A
:101A80001FC0843011F483E01BC0853011F484E062
:101A900017C0863011F485E013C0873011F486E05A
:101AA0000FC0883011F487E00BC0803B11F480E850
:101AB00007C08B3511F48AEF03C08D3509F48CEF24
:101AC0000E94950C08950E941F0D80E090E00895FB
:101AD000CF93DF93EC0103C00E941F0D21968881F4
:101AE0008823D1F7DF91CF9108950F931F93CF9360
:101AF000DF938B0190E0019723E0880F991F2A95CF
:101B0000E1F78F7380640E949D0CC0E0D0E0F80183
:101B1000EC0FFD1F80810E94950C2196C830D105E5
:101B2000B1F70E94BB0CDF91CF911F910F910895E7
:101B3000EF92FF921F93DF93CF93CDB7DEB7289735
:101B40000FB6F894DEBF0FBECDBF182F7E010894EC
:101B5000E11CF11CC70148E050E00E94E721812F01
:101B6000B7010E94750D28960FB6F894DEBF0FBE20
:101B7000CDBFCF91DF911F91FF90EF9008959FB758
:101B8000F89483B7856083BF8FEF8CBF89B781607E
:101B900089BF9FBF0895BC012FB7F89489B78F7E86
:101BA00089BF1DBC1CBC1FBC8CE08EBD1DBC1CBCF9
:101BB00084E294EF0E944E1F7BBD6ABD89B78061AD
:101BC00089BF2FBF08958FB9779BFECF8FB108953E
:101BD000682F369A40E050E070E00DC0369A369992
:101BE000FECF94B185B1382F20E0F901E90FF11D46
:101BF0004E0F5F1F7F5F761788F3CA0170E00E9467
:101C00004E1FCB010895BF92CF92DF92EF92FF92C9
:101C10000F931F93CF93DF93D62E90E09C012470F7
:101C20003070359527953595279596E0C92EC22AAF
:101C3000382F3295330F330F307CEE24FF24870189
:101C400040E050E070E0BB24BA94C0E9D1E024C089
:101C5000AC9AAC98CFB8779BFECF8FB13FB9779B4A
:101C6000FECF8FB1BFB8779BFECF2FB1F82FFF709B
:101C7000E0E0CF01AA2797FDA095BA2F820F911D12
:101C8000A11DB11DE80EF91E0A1F1B1FAC9ACE0143
:101C90000197F1F74F5F5F4F46175707CCF22D2D95
:101CA00030E040E050E0C801B7010E94751FC90153
:101CB000DF91CF911F910F91FF90EF90DF90CF9028
:101CC000BF900895AC9AAC98282F30E0C901847079
:101CD0009070959587959595879586608FB9779B38
:101CE000FECF8FB156E0220F331F5A95E1F72FB97F
:101CF000779BFECF9FB18FEF8FB9779BFECF8FB1D0
:101D0000AC9A392F3F7020E0442737FD4095542F7F
:101D1000280F311D411D511DC90108958FE38ABB54
:101D200080EB87BB8DEF84BB8EEF81BB929AAD9821
:101D3000A89A8DB182658DB9709A87B1876087B98D
:101D400086B1876086B9379A0895CF93DF93EB0108
:101D50009C0140E050E0DA01C90185569040A04066
:101D6000B04085599F40A040B04018F060E177E254
:101D700029C0CA01B9012CE231E040E050E00E94E4
:101D80002F1F6850704A8C4090402AE030E040E0BD
:101D900050E00E942F1F21E73CE040E050E00E940D
:101DA000971FC901DA01813127E2920720E0A207DB
:101DB00020E0B20724F080E197E2A0E0B0E0BE01AD
:101DC000680F791FCB01DF91CF910895CF93DF93F7
:101DD000EB019C0140E050E0DA01C90185569040DA
:101DE000A040B04085599F40A040B04028F020EA74
:101DF00036E841E050E02FC0CA01B90128EB3BE0D2
:101E000040E050E00E942F1F605570448E47904084
:101E10002AE030E040E050E00E942F1F21E73CE044
:101E200040E050E00E94971FC901DA01813A26E89C
:101E3000920721E0A20720E0B20724F080EA96E8AA
:101E4000A1E0B0E09E01442737FD4095542F280FB4
:101E5000391F4A1F5B1FB901CA01DF91CF91089555
:101E60008770806685BD14BC13BC089515BC0895A9
:101E700083BD882341F485B58F7D85BD85B58F7E73
:101E800085BD9798089585B5806285BD85B58F7E9F
:101E900085BD0895AC01662351F1DC010D90002051
:101EA000E9F71197A81BB90BFC01EA0FFB1F9D0175
:101EB000CD01861B9109BC0102C080818183215024
:101EC0003040319726173707C4F7FA01E60FF71F9E
:101ED0008EE28083FB013197E40FF51F8081803211
:101EE00011F480E38083A40FB51F11961C9208950E
:101EF0001F920F920FB60F9211242F938F939F93DF
:101F0000EF93FF932CB19091C1058091C205981772
:101F1000D8F4E091C505F091C60521938091C805DC
:101F2000815021F48091C205E81BF1098093C80516
:101F3000F093C605E093C5059FB7F8948091C1055D
:101F40008F5F8093C1059FBFFF91EF919F918F910C
:101F50002F910F900FBE0F901F9018951F920F9208
:101F60000FB60F9211242F938F939F93EF93FF93AC
:101F70008091B9058823E9F0E091BB05F091BC059B
:101F800021918091BF05815021F48091BA05E81B11
:101F9000F109F093BC05E093BB058093BF059FB7A3
:101FA000F8948091B90581508093B9059FBF2CB9F1
:101FB00001C05598FF91EF919F918F912F910F90B4
:101FC0000FBE0F901F901895FC01849131968823C5
:101FD00021F05D9BFECF8CB9F8CF08955D9BFECFBD
:101FE0008CB980E090E00895FC0180815D9BFECF7C
:101FF0008CB9882311F03196F8CF089581EC95E0E3
:102000000E946A11089581EC95E00E946A1190E0A7
:10201000089581EC95E00E9482110895AF92BF92DD
:10202000CF92DF92EF92FF920F931F936B017C018F
:10203000142FB22EAFB680E0C81681EED80680E02D
:10204000E80680E0F80609F4A3C081E0C81681EE36
:10205000D80680E0E80680E0F80608F047C080E88F
:10206000C81685E2D80680E0E80680E0F80609F4A4
:1020700087C081E8C81685E2D80680E0E80680E0DF
:10208000F806A8F480E6C81689E0D80680E0E806DD
:1020900080E0F80609F46DC080ECC81682E1D8062D
:1020A00080E0E80680E0F80609F085C067C080E0BF
:1020B000C8168BE4D80680E0E80680E0F80609F44C
:1020C00063C080E8C81680E7D80680E0E80680E0B4
:1020D000F80609F45BC080E4C81688E3D80680E0FF
:1020E000E80680E0F80609F066C04CC080E0C8163B
:1020F00084E8D80683E0E80680E0F80609F44EC0DC
:1021000081E0C81684E8D80683E0E80680E0F80697
:10211000A0F480E0C8168CE2D80681E0E80680E0F2
:10212000F806C1F180E0C81682ECD80681E0E80626
:1021300080E0F80609F03FC02FC080E2C81681EAAF
:10214000D80687E0E80680E0F80679F180E4C81652
:1021500082E4D8068FE0E80680E0F80649F180E9DD
:10216000C81680EDD80683E0E80680E0F80619F589
:102170001AC080EA89B981E080BD39C08FEC16C0F1
:1021800087E614C084E412C083E310C082E20EC06C
:1021900082E205C08CE00AC080E101C088E089B914
:1021A00010BC91E025C083E001C081E089B901C085
:1021B00019B810BC1CC0C701B60160587B47814EDE
:1021C0009F4F33E0660F771F881F991F3A95D1F70D
:1021D00024E0CC0CDD1CEE1CFF1C2A95D1F7A701D6
:1021E00096010E94751F2150304029B930BD90E002
:1021F000F89488E98AB9013019F0023039F403C043
:1022000080B5806A02C080B5806B80BD173069F0F0
:10221000183018F4163079F405C0183049F0193028
:1022200051F406C080B5826805C080B5846802C0DC
:1022300080B5866880BD82E0B81619F480B58868DC
:1022400080BD913019F482E08BB901C01BB88CB10C
:102250005F99FDCF8BB1806C8BB9AFBE81EC95E0FF
:1022600069EA75E040E10E94451189EB95E069EC6F
:1022700075E040E10E9445111F910F91FF90EF9092
:10228000DF90CF90BF90AF900895FC0110827583CE
:102290006483738362834183478346830895FC018B
:1022A00090818181981710F080E00895A481B58114
:1022B0006D938781815019F48181A81BB1098783AF
:1022C000B583A4839FB7F89480818F5F80839FBF7D
:1022D00081E00895FC0180818823E9F3A281B38124
:1022E0002D918681815019F48181A81BB109B38396
:1022F000A28386839FB7F8948081815080839FBF9B
:10230000822F0895FC018081882319F42FEF3FEF7D
:1023100013C0A281B3812D918681815019F48181EE
:10232000A81BB109B383A28386839FB7F8948081E9
:10233000815080839FBF30E0C90108950895DF93E5
:10234000CF9300D0CDB7DEB7CE01019666E070E046
:1023500042E050E00E94832499818091E40598171F
:1023600029F49A818091E505981741F084EE95E073
:1023700066E070E042E050E00E9499240F900F90D8
:10238000CF91DF910895DF93CF93CDB7DEB7279735
:102390000FB6F894DEBF0FBECDBF80E090E06EEECA
:1023A0007EEE0E94B024CE0102966AE070E042E028
:1023B00050E00E9483249A818091EE05981729F4B9
:1023C0009B818091EF05981741F08EEE95E06AE0D1
:1023D00070E042E050E00E949924CE01029662E152
:1023E00070E042E050E00E9483249A818091D905F8
:1023F000981729F49B818091DA05981741F089EDAF
:1024000095E062E170E042E050E00E949924CE0144
:10241000029666E070E042E050E00E9483249A81D8
:102420008091E405981729F49B818091E505981720
:1024300041F084EE95E066E070E042E050E00E94FA
:102440009924CE01049662E070E044E050E00E94DE
:1024500083249C818091E805981779F49D8180916F
:10246000E905981751F49E818091EA05981729F49F
:102470009F818091EB05981741F088EE95E062E02E
:1024800070E044E050E00E949924CE01019668E09B
:1024900070E041E050E00E94832499818091E3053F
:1024A000981741F083EE95E068E070E041E050E07D
:1024B0000E949924CE01029660E170E042E050E073
:1024C0000E9483249A818091EC05981729F49B81BE
:1024D0008091ED05981741F08CEE95E060E170E099
:1024E00042E050E00E949924CE0102966CE070E038
:1024F00042E050E00E9483249A818091DF05981782
:1025000029F49B818091E005981741F08FED95E0CB
:102510006CE070E042E050E00E949924CE01029607
:102520006EE070E042E050E00E9483249A81809146
:10253000E105981729F49B818091E205981741F0F5
:1025400081EE95E06EE070E042E050E00E94992458
:10255000CE01029664E170E042E050E00E948324E4
:102560009A818091E605981729F49B818091E7056F
:10257000981741F086EE95E064E170E042E050E0AB
:102580000E949924CE0102966AE170E042E050E098
:102590000E9483249A818091F005981729F49B81E9
:1025A0008091F105981741F080EF95E06AE170E0C5
:1025B00042E050E00E949924CE0102966CE170E066
:1025C00042E050E00E9483249A818091F20598179E
:1025D00029F49B818091F305981741F082EF95E0F3
:1025E0006CE170E042E050E00E949924CE01049634
:1025F00066E170E044E050E00E9483249C81809179
:10260000DB05981779F49D818091DC05981751F4CA
:102610009E818091DD05981729F49F818091DE05C8
:10262000981741F08BED95E066E170E044E050E0F2
:102630000E94992427960FB6F894DEBF0FBECDBF37
:10264000CF91DF91089580E092ECA1E0B0E080931B
:10265000E8059093E905A093EA05B093EB0582E7BE
:1026600091E09093E5058093E4051092E30589E1FC
:1026700090E09093DA058093D9059093EF058093CD
:10268000EE0586E490E09093E0058093DF058EE10F
:1026900090E09093E2058093E10583E090E09093D1
:1026A000ED058093EC0584E190E09093F105809333
:1026B000F00581E090E09093E7058093E6051092A5
:1026C000F3051092F20584E690E0A0E0B0E080937C
:1026D000DB059093DC05A093DD05B093DE050E9439
:1026E000C311089580E090E00E9493248E5E9E4E78
:1026F00019F00E942313089584EE95E066E070E0DF
:1027000042E050E00E9483248EEE95E06AE070E0A3
:1027100042E050E00E94832489ED95E062E170E0A0
:1027200042E050E00E94832483EE95E068E070E090
:1027300041E050E00E94832488EE95E062E070E082
:1027400044E050E00E9483248CEE95E060E170E06C
:1027500042E050E00E9483248FED95E06CE070E051
:1027600042E050E00E94832481EE95E06EE070E04C
:1027700042E050E00E94832486EE95E064E170E040
:1027800042E050E00E94832480EF95E06AE170E02F
:1027900042E050E00E94832482EF95E06CE170E01B
:1027A00042E050E00E9483248BED95E066E170E00A
:1027B00044E050E00E9483240895EF92FF920F932B
:1027C0001F93CF93DF93EC01641B750B7B010027F4
:1027D000F7FC0095102F8A859B85AC85BD858E0DF5
:1027E0009F1DA01FB11F8A879B87AC87BD876E8105
:1027F0007F819B01442737FD4095542F28173907C7
:102800004A075B0724F42A873B874C875D87882724
:102810009927861B970B9C01442737FD4095542F21
:102820008A859B85AC85BD8582179307A407B5076C
:1028300024F42A873B874C875D8728813981442788
:1028400037FD4095542FC801B7010E942F1F7B010F
:102850008C016A817B81882777FD8095982F2A8556
:102860003B854C855D850E942F1FE60EF71E081FD5
:10287000191FB701C801DF91CF911F910F91FF90F0
:10288000EF900895EF92FF920F931F93FC01338313
:102890002283718360835583448312861386148652
:1028A0001586E682F782008711871F910F91FF90AE
:1028B000EF900895CF92DF92EF92FF920F931F93C4
:1028C000DF93CF93CDB7DEB72A970FB6F894DEBF6C
:1028D0000FBECDBFFB017A0189019E012F5F3F4FE3
:1028E00048EB52E08AE0DA010D90AD01D9010D927A
:1028F0009D018150C1F7EE19FF09BF01882777FDBF
:102900008095982F29E130E040E050E00E942F1F91
:102910000E191F099801442737FD4095542F0E9436
:10292000971FF22EE32ED42EC52E622F732F842FE5
:10293000952F26E030E040E050E00E94971F89018B
:102940002530310514F005E010E080E09E012D5F98
:102950003F4F90ED04C0E20FF31F90838F5FE82F8D
:10296000F0E0E017F107BCF36F2D7E2D8D2D9C2D2F
:1029700026E030E040E050E00E94971F6330710590
:10298000C1F0643071053CF461307105E1F06230F2
:102990007105E9F414C06430710539F065307105D2
:1029A000B1F40C0F1D1F80ED07C00C0F1D1F81ED32
:1029B00011C00C0F1D1F82EDF80183830EC00C0F98
:1029C0001D1F83ED07C00C0F1D1F84EDF5CF0C0FED
:1029D0001D1F84ECD80113968C938DE58F83188688
:1029E0008DE063E00E94080DCE0101960E94680D03
:1029F0002A960FB6F894DEBF0FBECDBFCF91DF9100
:102A00001F910F91FF90EF90DF90CF9008958DE090
:102A100063E00E94080D8EE492E00E94680D089524
:102A200080E061E00E94080D86E592E00E94680D5A
:102A300080E062E00E94080D8BE692E00E94680D43
:102A400080E063E00E94080D80E892E00E94680D3B
:102A500080E064E00E94080D85E992E00E94680D24
:102A600008958F929F92BF92CF92DF92EF92FF9242
:102A70000F931F93DF93CF93CDB7DEB72A970FB68F
:102A8000F894DEBF0FBECDBFB62E69014801CA0162
:102A9000815F984D8F519E4438F084E061E00E9440
:102AA000080D8AEA92E029C000D000D000D0EDB72E
:102AB000FEB731968E010F5F1F4FADB7BEB71296AE
:102AC0001C930E93119780EB92E09383828355833E
:102AD00044830E9482221E828C818D838EE28C83AD
:102AE0008DB79EB706960FB6F8949EBF0FBE8DBFEA
:102AF00084E061E00E94080DC8010E94680DC601D3
:102B0000815F984D8F519E4438F084E062E00E94CE
:102B1000080D8AEA92E028C000D000D000D0EDB7BE
:102B2000FEB731968E010F5F1F4FADB7BEB712963D
:102B30001C930E93119780EB92E093838283D5824E
:102B4000C4820E9482228DB79EB706960FB6F89473
:102B50009EBF0FBE8DBFC80161E00E944A0F84E096
:102B600062E00E94080DC8010E94680DC701815FE4
:102B7000984D8F519E4438F084E062E00E94080D29
:102B80008AEA92E028C000D000D000D0EDB7FEB7AE
:102B900031968E010F5F1F4FADB7BEB712961C93D3
:102BA0000E93119780EB92E093838283F582E48207
:102BB0000E9482228DB79EB706960FB6F8949EBFEC
:102BC0000FBE8DBFC80161E00E944A0F84E063E040
:102BD0000E94080DC8010E94680D00D000D000D0EE
:102BE000EDB7FEB731968E010F5F1F4FADB7BEB781
:102BF00012961C930E93119784EB92E09383828339
:102C0000958284820E9482228DB79EB706960FB667
:102C1000F8949EBF0FBE8DBF8FE061E00E94080D4B
:102C2000C8010E94680DBB2031F480E061E00E9481
:102C3000080D80E11EC091E0B91631F480E061E03A
:102C40000E94080D80E208C0A2E0BA1669F480E094
:102C500061E00E94080D80E10E941F0D80E062E0AB
:102C60000E94080D80E10CC080E061E00E94080D28
:102C700080E20E941F0D80E062E00E94080D80E269
:102C80000E941F0D2A960FB6F894DEBF0FBECDBF6F
:102C9000CF91DF911F910F91FF90EF90DF90CF9038
:102CA000BF909F908F9008950F93CF93DF93EC0187
:102CB000F62F8091880590918905C39744F48091FF
:102CC0008A0590918B05C39714F4E22F03C0029FED
:102CD000E02D112480918805909189058536910514
:102CE0003CF480918A0590918B05853691051CF006
:102CF000E09FE02D1124809188059091890501972E
:102D000081F080918805909189050B97E4F080917E
:102D100088059091890563E070E00E94621F892B0D
:102D200091F45881252F30E0842F90E08E1B91097B
:102D3000821793071CF45F0F5150541B5E0F58838A
:102D400081E08093920580918A0590918B0501978F
:102D500081F080918A0590918B050B97E4F080912A
:102D60008A0590918B0563E070E00E94621F892BB9
:102D700091F45881252F30E08F2F90E08E0F911D18
:102D8000281739071CF45F5F540F5F1B5E1B5883C5
:102D900081E080939205DF91CF910F9108950F9379
:102DA000CF93DF93EC01F62F8091880590918905F0
:102DB000C39744F480918A0590918B05C39714F4CE
:102DC000E22F03C0029FE02D11248091880590918D
:102DD0008905853691053CF480918A0590918B0593
:102DE000853691051CF0E09FE02D11248091880527
:102DF00090918905019781F08091880590918905CE
:102E00000B97DCF0809188059091890563E070E074
:102E10000E94621F892B89F45881252F30E0842F6E
:102E200090E08E1B9109281739071CF45E0F588318
:102E300001C0488381E08093920580918A0590913A
:102E40008B05019781F080918A0590918B050B97F6
:102E5000DCF080918A0590918B0563E070E00E9420
:102E6000621F892B89F44881242F30E08F2F90E056
:102E70008E0F911D821793071CF44E1B488301C0CF
:102E8000F88381E080939205DF91CF910F910895AF
:102E9000EF92FF920F93DF93CF930F92CDB7DEB7F0
:102EA0007C011982FC0180819181A281B3818038EB
:102EB000F0E79F07F0E0AF07F0E0BF0709F478C044
:102EC000813820E7920720E0A20720E0B20788F5CA
:102ED000803CE2E19E07E0E0AE07E0E0BE0709F4D7
:102EE00061C0813CF2E19F07F0E0AF07F0E0BF076F
:102EF00080F4803B24E0920720E0A20720E0B207A4
:102F000009F44CC080569940A040B04009F05EC022
:102F100047C08034F8E39F07F0E0AF07F0E0BF0759
:102F200009F442C080509B44A040B04009F04EC01C
:102F30003DC08030F4EF9F07F1E0AF07F0E0BF073E
:102F400009F43CC0813024EF920721E0A20720E081
:102F5000B20770F48030E1EE9E07E0E0AE07E0E0FB
:102F6000BE0741F18050924CA140B04079F524C099
:102F7000803221EA920727E0A20720E0B20711F190
:102F80008034E2E49E07EFE0AE07E0E0BE07E1F048
:102F90008059904DA340B040C9F412C0198218C0A6
:102FA00081E015C082E013C084E011C085E00FC04D
:102FB00086E00DC087E00BC088E009C089E007C04B
:102FC0008AE005C08BE003C08CE001C083E0898308
:102FD000CE01019660E04CE021E001E00E94CF16B6
:102FE0008981863009F441C0873078F4823049F114
:102FF000833030F48823D9F0813009F05DC01CC0E3
:10300000843049F1853060F521C08930E9F18A309A
:1030100030F4873079F1883009F04EC030C08B3001
:10302000E9F18B30B0F18C3009F046C03CC080EB48
:1030300094E0A0E0B0E03BC080E699E0A0E0B0E022
:1030400036C080EC92E1A0E0B0E031C080E895E2CB
:10305000A0E0B0E02CC080E498E3A0E0B0E027C09E
:1030600080E09BE4A0E0B0E022C080E890E7A0E030
:10307000B0E01DC080E091EEA0E0B0E018C080E0BC
:1030800092ECA1E0B0E013C080E094EFA1E0B0E0EA
:103090000EC080E990EDA3E0B0E009C080E291EAC3
:1030A000A7E0B0E004C080E492E4AFE0B0E0F70154
:1030B00080839183A283B3830F90CF91DF910F918F
:1030C000FF90EF900895CF92DF92EF92FF920F93CF
:1030D0001F93CF93DF93FC016B017A0180918805E8
:1030E00090918905C39744F480918A0590918B054E
:1030F000C39714F4E90107C0029FE001039FD00DBC
:10310000129FD00D112480918805909189058536F4
:1031100091053CF480918A0590918B058536910547
:1031200044F0CE01809FE001819FD00D909FD00D93
:1031300011248091880590918905019781F08091F3
:103140008805909189050B97D4F08091880590911E
:10315000890563E070E00E94621F892B81F4808101
:1031600091818C0F9D1F9183808381E080939205D4
:1031700080819181E816F90610F4F182E082809155
:103180008A0590918B05019781F080918A05909135
:103190008B050B97E4F080918A0590918B0563E095
:1031A00070E00E94621F892B91F420813181CE0151
:1031B0008C0D9D1D8217930728F42C1B3D0B31832A
:1031C000208302C0D182C08281E080939205DF918A
:1031D000CF911F910F91FF90EF90DF90CF900895C6
:1031E000CF92DF92EF92FF920F931F93CF93DF93D3
:1031F000FC016B017A018091880590918905C39744
:1032000044F480918A0590918B05C39714F4E901E9
:1032100007C0029FE001039FD00D129FD00D112423
:103220008091880590918905853691053CF48091BF
:103230008A0590918B058536910544F0CE01809FDB
:10324000E001819FD00D909FD00D112480918805C1
:1032500090918905019781F0809188059091890569
:103260000B97D4F0809188059091890563E070E018
:103270000E94621F892B81F4808191818C0F9D1F98
:103280009183808381E08093920580819181E8160B
:10329000F90614F4F182E08280918A0590918B0501
:1032A000019781F080918A0590918B050B97E4F04E
:1032B00080918A0590918B0563E070E00E94621F07
:1032C000892B91F420813181CE018C0D9D1D8217B7
:1032D00093072CF42C1B3D0B3183208302C0D18239
:1032E000C08281E080939205DF91CF911F910F9171
:1032F000FF90EF90DF90CF9008952F923F924F92E2
:103300005F926F927F928F929F92AF92BF92CF9275
:10331000DF92EF92FF920F931F93DF93CF9300D032
:1033200000D0CDB7DEB73C0149835A836B837C83E1
:10333000180129018091880590918905C3975CF453
:1033400080918A0590918B05C3972CF4C601D70113
:103350006C017D0108C0C501B4019601A7010E945E
:103360002F1F6B017C01809188059091890585361E
:1033700091053CF480918A0590918B0585369105E5
:1033800044F0C701B601A50194010E942F1F6B01F3
:103390007C018091880590918905019781F0809149
:1033A0008805909189050B974CF180918805909143
:1033B000890563E070E00E94621F892BF9F4F30134
:1033C00080819181A281B3818C0D9D1DAE1DBF1D99
:1033D00080839183A283B38381E08093920580816F
:1033E0009181A281B381281639064A065B0634F41E
:1033F000D3012D923D924D925C92139780918A0554
:1034000090918B05019781F080918A0590918B05B1
:103410000B979CF180918A0590918B0563E070E099
:103420000E94621F892B49F5F3012081318142817D
:10343000538189819A81AB81BC818C0D9D1DAE1D0C
:10344000BF1D82179307A407B5075CF42C193D092B
:103450004E095F09D3012D933D934D935C931397D0
:1034600009C089819A81AB81BC81F30180839183FA
:10347000A283B38381E0809392050F900F900F9009
:103480000F90CF91DF911F910F91FF90EF90DF9000
:10349000CF90BF90AF909F908F907F906F905F90F4
:1034A0004F903F902F90089580918E0590918F05B9
:1034B0000197C1F4109286056091F4057091F505AD
:1034C00082EC92E00E94592281E0809392050E9452
:1034D000C31188E893E120E931E0F9013197F1F770
:1034E0000197D9F7089580918E0590918F050197E6
:1034F000B1F40E94231381E0809392056091F4055A
:103500007091F50585EE92E00E94592288E893E1DA
:1035100020E931E0F9013197F1F70197D9F70895E2
:103520008F929F92AF92BF92CF92DF92EF92FF92D3
:103530000F931F93DF93CF93CDB7DEB72C970FB6C2
:10354000F894DEBF0FBECDBF863009F4FEC18730D0
:1035500090F4833009F48FC0843030F4813009F165
:10356000823009F057C34CC0843009F42BC1853038
:1035700009F050C3C0C1893009F481C28A3038F4DF
:10358000873009F40CC2883009F044C332C28B3052
:1035900009F4F0C28B3008F4A0C28C3009F03AC3B1
:1035A00009C388EE95E00E9448178091920581300A
:1035B00011F40E94B30C80919205813009F02AC366
:1035C0002091E8053091E9054091EA055091EB051D
:1035D0008DB79EB708970FB6F8949EBF0FBE8DBFEC
:1035E000EDB7FEB731968091F4059091F505ADB732
:1035F000BEB712969C938E93119785E293E033C2E7
:1036000083EE95E060E042E021E001E00E94541684
:1036100080919205813009F0FDC20E94B30C609147
:10362000F4057091F50583E593E00E94592280919D
:10363000E305882339F483E062E00E94080D81E805
:1036400093E016C08091E305813039F483E062E0B5
:103650000E94080D84E893E00BC08091E30582305E
:1036600009F0D8C283E062E00E94080D87E893E089
:103670000E94680DCFC28EEE95E068E17CEF48EEC7
:1036800053E021E030E00AE010E00E94F0182091C1
:10369000EE053091EF0500D000D000D0EDB7FEB7B9
:1036A00031968E010F5F1F4FADB7BEB712961C93B8
:1036B0000E93119781E993E093838283358324836A
:1036C0000E9482228DB79EB706960FB6F8949EBFD1
:1036D0000FBE8DBFC80161E00E944A0F8091920524
:1036E000813011F50E94B30C00D000D000D0EDB7AE
:1036F000FEB731968091F4059091F505ADB7BEB750
:1037000012969C938E93119785E993E0938382831D
:10371000158304830E9445228DB79EB706960FB687
:10372000F8949EBF0FBE8DBF81E060E10E94030E42
:103730006091EE057091EF050E94A50E00D000D0BB
:1037400000D0EDB7FEB731968E010F5F1F4FADB7BA
:10375000BEB712961C930E93119721E933E0338381
:103760002283958384830E9482228DB79EB706961A
:103770000FB6F8949EBF0FBE8DBFC80161E00E94D6
:103780004A0F00D000D000D0EDB7FEB7319680913F
:10379000F4059091F505ADB7BEB712969C938E9344
:1037A000119781EC93E093838283158304830E94B5
:1037B00045228DB79EB706960FB6F8949EBF0FBEF2
:1037C0008DBF28C289ED95E068E17CEF48EE53E0BB
:1037D00021E030E00AE010E00E94F0182091D905C5
:1037E0003091DA0500D000D000D0EDB7FEB73196A9
:1037F0008E010F5F1F4FADB7BEB712961C930E938D
:10380000119781E993E093838283358324830E9417
:1038100082228DB79EB706960FB6F8949EBF0FBE54
:103820008DBFC80161E00E944A0F809192058130EE
:1038300011F50E94B30C00D000D000D0EDB7FEB758
:1038400031968091F4059091F505ADB7BEB712960B
:103850009C938E9311978BEC93E0938382831583D3
:1038600004830E9445228DB79EB706960FB6F89442
:103870009EBF0FBE8DBF80E060E10E94030E60918D
:10388000D9057091DA050E94A50E00D000D000D0B5
:10389000EDB7FEB731968E010F5F1F4FADB7BEB7C4
:1038A00012961C930E93119721E933E03383228300
:1038B000958384830E9482228DB79EB706960FB6A9
:1038C000F8949EBF0FBE8DBFC80161E00E944A0FF1
:1038D00000D000D000D0EDB7FEB731968091F4054E
:1038E0009091F505ADB7BEB712969C938E93119744
:1038F00087EF93E058CF80EF95E060E070E048EE0E
:1039000053E021E030E00AE010E00E94F0188091DE
:103910009205813009F07EC10E94B30C2091F00520
:103920003091F10500D000D000D0EDB7FEB7319650
:103930008091F4059091F505ADB7BEB712969C93B2
:103940008E93119781E094E0C3C086EE95E060E02D
:1039500070E048EE53E021E030E00AE010E00E9421
:10396000F01880919205813009F054C10E94B30C87
:103970002091E6053091E70500D000D000D0EDB7EA
:10398000FEB731968091F4059091F505ADB7BEB7BD
:1039900012969C938E9311978DE294E099C082EFDA
:1039A00095E060E070E048EE53E021E030E00AE0AE
:1039B00010E00E94F01880919205813009F02AC130
:1039C0000E94B30C2091F2053091F30500D000D095
:1039D00000D0EDB7FEB731968091F4059091F505D2
:1039E000ADB7BEB712969C938E93119789E594E07C
:1039F0006FC08BED95E040E050E060E070E000E4E7
:103A000012E42FE030E0F1E0CF2ED12CE12CF12CAC
:103A1000EAE08E2E912CA12CB12C0E947D19809170
:103A20009205813009F0F6C00E94B30C2091DB05AD
:103A30003091DC054091DD055091DE05ADB7BEB794
:103A400018970FB6F894BEBF0FBEADBFEDB7FEB767
:103A500031968091F4059091F50512969C938E9382
:103A6000119785E894E0938382832483358346838A
:103A700057830E9445228DB79EB708969DCE81EE52
:103A800095E060E070E044E650E021E030E002E0E4
:103A900010E00E94631880919205813009F0BAC04D
:103AA0000E94B30C2091E1053091E20500D000D0D6
:103AB00000D0EDB7FEB731968091F4059091F505F1
:103AC000ADB7BEB712969C938E93119782EB94E09C
:103AD00093838283358324836ACE8CEE95E060E005
:103AE00070E044E650E021E030E002E010E00E94A7
:103AF000F01880919205813009F08CC00E94B30CBF
:103B00002091EC053091ED0500D000D000D0EDB74C
:103B1000FEB731968E010F5F1F4FADB7BEB712963D
:103B20001C930E93119781E993E0938382833583ED
:103B300024830E9482228DB79EB706960FB6F89412
:103B40009EBF0FBE8DBFC80161E00E944A0F00D02A
:103B500000D000D0EDB7FEB731968091F40590917A
:103B6000F505ADB7BEB712969C938E9311978EED67
:103B700094E019CE0E94731A80919205813011F45D
:103B80000E94B30C80919205813009F076C000D07C
:103B900000D000D0EDB7FEB731968091F40590913A
:103BA000F505ADB7BEB712969C938E93119780E141
:103BB00095E01FC00E94541A80919205813011F443
:103BC0000E94B30C80919205813009F056C000D05C
:103BD00000D000D0EDB7FEB731968091F4059091FA
:103BE000F505ADB7BEB712969C938E9311978CE3F3
:103BF00095E09383828381E490E0958384830E949F
:103C000045228DB79EB706960FB6F8949EBF0FBE9D
:103C10008DBF33C00E94541A87E064E00E94080DF3
:103C200080EE0E941F0D8CE064E00E94080D8EED76
:103C30000E941F0D82E064E00E94080D8CE10E944A
:103C40001F0D81E164E00E94080D81E40E941F0DB8
:103C5000109292052C960FB6F894DEBF0FBECDBF22
:103C6000CF91DF911F910F91FF90EF90DF90CF9058
:103C7000BF90AF909F908F90089587E064E00E947E
:103C8000080D80E20E941F0D8CE064E00E94080D88
:103C900080E2CECF1F939093F5058093F4051092A8
:103CA00089051092880510928B0510928A05109252
:103CB0008D0510928C0510928F0510928E0511E0E3
:103CC000109386051093870581E060ED72E00E94F5
:103CD000980D82E068ED72E00E94980D83E060EE3E
:103CE00072E00E94980D84E060EE72E00E94980DF0
:103CF0000E94BB0C0E94B30C109392058091870523
:103D00000E94901A7894809186058130E1F3109298
:103D100086058091900590919105892B49F0E0915D
:103D20009005F091910509950E94BB0C0E94B30C7F
:103D30001F9108951F931FB7F894109292058091D8
:103D40008805909189058B5F9F4F30F081E090E06E
:103D5000909389058093880580918A0590918B05C1
:103D60008B5F9F4F30F081E090E090938B058093C4
:103D70008A0580918C0590918D058B5F9F4F30F067
:103D800081E090E090938D0580938C0580918E0565
:103D900090918F058B5F9F4F30F081E090E0909382
:103DA0008F0580938E05B1990AC080918805909106
:103DB00089050196909389058093880504C0109227
:103DC000890510928805B2990AC080918A05909160
:103DD0008B05019690938B0580938A0504C0109201
:103DE0008B0510928A05B3990AC080918C05909139
:103DF0008D05019690938D0580938C0504C01092DB
:103E00008D0510928C05B0990AC080918E05909115
:103E10008F05019690938F0580938E0504C01092B4
:103E20008F0510928E0580918C0590918D050197DC
:103E300041F4809187058F5F8093870581E08093AF
:103E40009205809187058D3018F081E08093870579
:103E5000809187050E94901A1FBF1F910895629F4D
:103E6000D001739FF001829FE00DF11D649FE00D72
:103E7000F11D929FF00D839FF00D749FF00D659FD3
:103E8000F00D9927729FB00DE11DF91F639FB00DD2
:103E9000E11DF91FBD01CF0111240895AA1BBB1B11
:103EA00051E107C0AA1FBB1FA617B70710F0A61B3A
:103EB000B70B881F991F5A95A9F780959095BC015B
:103EC000CD01089597FB092E07260AD077FD04D06F
:103ED000E5DF06D000201AF4709561957F4F0895B4
:103EE000F6F7909581959F4F0895A1E21A2EAA1B8F
:103EF000BB1BFD010DC0AA1FBB1FEE1FFF1FA2179A
:103F0000B307E407F50720F0A21BB30BE40BF50B96
:103F1000661F771F881F991F1A9469F7609570951F
:103F2000809590959B01AC01BD01CF01089597FB51
:103F3000092E05260ED057FD04D0D7DF0AD0001C6D
:103F400038F450954095309521953F4F4F4F5F4F36
:103F50000895F6F790958095709561957F4F8F4FF6
:103F60009F4F08952F923F925F926F927F928F9210
:103F70009F92AF92BF92CF92DF92EF92FF920F93F8
:103F80001F93CF93DF938C011B01EA01611571052B
:103F900019F0FB0191838083209749F0CE010297AD
:103FA000839728F020E030E040E050E0F6C0F801D0
:103FB000A1908F018A2D90E00E94DF21892BB9F713
:103FC000FDE2AF1631F4F801A1908F01552453940E
:103FD00007C0FBE2AF1619F4F801A1908F01552438
:103FE000209719F0C031D105C1F4F0E3AF1679F490
:103FF000F8018081883711F0883549F4F801A180F3
:104000000E5F1F4FF2E05F2AC0E1D0E006C02097AC
:1040100021F480E3A816E9F427C0C830D10531F1B6
:10402000C930D10524F4C230D10531F50CC0CA30F5
:10403000D10589F0C031D105F9F4C12CD12CE12C86
:10404000B8E0FB2E28C0C12CD12CE12CA0E4FA2E24
:1040500022C0CAE0D0E0FCECCF2EFCECDF2EFCEC62
:10406000EF2EFCE0FF2E17C0C8E0D0E0C12CD12C11
:10407000E12CE0E1FE2E0FC09E01442737FD409564
:10408000542F60E070E080E090E80E94751FC90145
:10409000DA016C017D0120E030E040E050E060E0BA
:1040A0003E01882477FC8094982C70EDB72EBA0CD2
:1040B000E9E0EB1570F48A2D81548A3118F499ECFB
:1040C000B92E06C08A2D81568A3150F589EAB82E5C
:1040D000BA0C8B2D90E08C179D0714F56F3FE1F023
:1040E000C216D306E406F506B0F0CA01B901A40170
:1040F00093010E942F1F9B01AC012B0D311D411D0F
:10410000511D2130F0E03F07F0E04F07F0E85F0776
:1041100010F461E001C06FEFF801A1908F01C5CFED
:104120002114310481F0662331F001501040F10177
:104130001183008308C051FE1AC002501040F101E3
:104140001183008314C067FF12C050FC05C02FEF1D
:104150003FEF4FEF5FE704C020E030E040E050E881
:1041600082E290E09093FD058093FC0516C050FE1E
:1041700008C050954095309521953F4F4F4F5F4F68
:104180000CC057FF0AC082E290E09093FD05809337
:10419000FC052FEF3FEF4FEF5FE7B901CA01DF9159
:1041A000CF911F910F91FF90EF90DF90CF90BF9034
:1041B000AF909F908F907F906F905F903F902F90E7
:1041C0000895A0E0B0E0E7EEF0E20C948126EC0167
:1041D0002B016A016115710519F0FB019183808340
:1041E000C114D10449F0C6010297839728F020E05A
:1041F00030E040E050E0DCC0A9908A2D90E00E94C1
:10420000DF21892BC9F7FDE2AF1621F4A9903324F1
:10421000339405C08BE2A81609F4A9903324C11485
:10422000D10421F0E0E1CE16D10411F5F0E3AF1690
:1042300069F48881883711F0883541F4A980229685
:1042400082E0382A20E1C22ED12C12C0C114D10440
:1042500079F4E0E3AE1659F199E9E92E99E9F92EDE
:1042600099E9092F99E1192F8AE0C82ED12C3AC07B
:10427000FAE0CF16D10491F080E1C816D10429F0FC
:10428000E8E0CE16D104F9F415C0BFEFEB2EBFEF76
:10429000FB2EBFEF0B2FBFE01B2F24C0A9E9EA2E96
:1042A000A9E9FA2EA9E90A2FA9E11A2F1BC0F8E003
:1042B000CF2ED12CEFEFEE2EEFEFFE2EEFEF0E2FE5
:1042C000EFE11E2F0FC09601442737FD4095542F74
:1042D0006FEF7FEF8FEF9FEF0E94751FC901DA012B
:1042E0007C018D0120E030E040E050E060E03601EC
:1042F000882477FC8094982C70EDB72EBA0CF9E0E6
:10430000FB1570F48A2D81548A3118F499ECB92E7A
:1043100006C08A2D81568A3148F589EAB82EBA0C32
:104320008B2D90E08C159D050CF56F3FE9F0E216A2
:10433000F30604071507B8F0CA01B901A4019301F7
:104340000E942F1F9B01AC018B2D90E0A0E0B0E0FC
:10435000280F391F4A1F5B1F281739074A075B07B9
:1043600010F061E001C06FEFA990C6CF4114510475
:1043700051F0662311F0219703C031FE04C022974B
:10438000F201D183C08330FE07C05095409530952F
:1043900021953F4F4F4F5F4F67FF0AC082E290E089
:1043A0009093FD058093FC052FEF3FEF4FEF5FEFFC
:1043B000B901CA01CDB7DEB7E1E10C949D26911198
:1043C000F5C3803219F089508550D0F70895FB016C
:1043D000DC0102C005900D9241505040D8F708957D
:1043E000FB01DC018D91019080190110D9F3990B2B
:1043F00008950F931F93CF93DF938C01EB010097E8
:1044000031F46115710519F420E030E038C081E025
:1044100090E06EE070E00E94B524FC019C010097E2
:1044200071F180E88383209771F0D387C28781E898
:1044300083838091F6059091F705892B21F4F09301
:10444000F705E093F60501151105C9F011870087FE
:104450008381826083838091F8059091F905892B8F
:1044600071F4F093F905E093F8058091FA059091C5
:10447000FB05892B21F4F093FB05E093FA05C901B4
:10448000DF91CF911F910F910895A0E0B0E0EBE490
:10449000F2E20C9490269E01275F3F4F8D819E8112
:1044A0006F817885A9010E94A6222096E2E00C94F3
:1044B000AC26EF92FF920F931F93CF93DF937C0173
:1044C0008B01DB0113968C9181FD03C0CFEFDFEFF1
:1044D00013C0C0E0D0E00BC0D8011896ED91FC915C
:1044E0001997B8010995892B11F0CFEFDFEFF7018C
:1044F00081917F01882381F7CE01CDB7DEB7E6E059
:104500000C94A826AEE0B0E0E8E8F2E20C948E2627
:104510000D891E8986E08C831A8309838FEF9FE7BC
:104520009E838D839E01275E3F4FCE0101966F894A
:10453000788DA9010E94A6222F813885020F131FB2
:10454000F80110822E96E4E00C94AA26ABE0B0E0CD
:10455000ECEAF2E20C9480263C012B015A01FC01AA
:1045600017821682838181FD03C06FEF7FEFC6C182
:104570009AE0892E1E010894211C311CF30123812D
:10458000F20123FD859123FF81912F01882309F4F6
:10459000B2C1853239F423FD859123FF81912F012A
:1045A000853229F490E0B3010E94F625E7CF982FD9
:1045B000FF24EE249924FFE1FF15D0F09B3269F02F
:1045C0009C3228F4903259F0933291F40EC09D320F
:1045D00049F0903369F441E024C052E0F52A84E0C8
:1045E000F82A28C098E0F92A25C0E0E1FE2A22C076
:1045F000F7FC29C0892F80538A3070F4F6FE05C07D
:10460000989C902C1124980E15C0E89CE02C112445
:10461000E80EF0E2FF2A0EC09E3229F4F6FC6BC1D0
:1046200040E4F42A07C09C3619F450E8F52A02C089
:10463000983649F4F20123FD959123FF91912F01C2
:10464000992309F0B8CF892F8554833018F0805210
:10465000833038F444E050E0A40EB51E5FE3598384
:104660000FC0933631F0933779F0933509F056C087
:1046700020C0F5018081898342E050E0A40EB51E80
:10468000610101E010E012C0F501C080D180F6FCAC
:1046900003C06FEF7FEF02C0692D70E042E050E091
:1046A000A40EB51EC6010E94EB258C015FE7F52222
:1046B00014C0F501C080D180F6FC03C06FEF7FEF1E
:1046C00002C0692D70E042E050E0A40EB51EC601A4
:1046D0000E94D9258C0150E8F52AF3FE07C01AC0C4
:1046E00080E290E0B3010E94F625EA948E2D90E0DE
:1046F00008171907A8F30EC0F601F7FC8591F7FE1D
:1047000081916F0190E0B3010E94F625E110EA94D7
:10471000015010400115110579F7EAC0943611F0E7
:10472000993669F5F7FE08C0F50120813181428193
:10473000538184E090E00AC0F501808191819C0161
:10474000442737FD4095542F82E090E0A80EB91E13
:104750009FE6F92257FF09C0509540953095219565
:104760003F4F4F4F5F4FE0E8FE2ACA01B901A10158
:104770002AE030E00E942226D82ED21840C0953779
:1047800029F41F2D1F7E2AE030E01DC01F2D197F48
:104790009F3661F0903720F4983509F0ACC00FC017
:1047A000903739F0983709F0A6C004C028E030E00F
:1047B0000AC0106114FD146020E130E004C014FD53
:1047C000166020E132E017FF08C0F50160817181B9
:1047D0008281938144E050E008C0F501808191819D
:1047E000BC0180E090E042E050E0A40EB51EA101C3
:1047F0000E942226D82ED2188FE7F82EF122F6FE3C
:104800000BC05EEFF522D91438F4F4FE07C0F2FCB9
:1048100005C08FEEF82202C01D2D01C0192DF4FE37
:104820000DC0FE01ED0DF11D8081803319F499EE6C
:10483000F92208C01F5FF2FE05C003C08F2D8678E5
:1048400009F01F5F0F2DF3FC14C0F0FE0FC01E1502
:1048500010F09D2C0BC09D2C9E0C911A1E2D06C095
:1048600080E290E0B3010E94F6251F5F1E15C0F3A1
:1048700004C01E1510F4E11A01C0EE2404FF0FC09D
:1048800080E390E0B3010E94F62502FF1DC001FD08
:1048900003C088E790E00EC088E590E00BC0802F51
:1048A000867891F001FF02C08BE201C080E2F7FC44
:1048B0008DE290E0B3010E94F62506C080E390E00F
:1048C000B3010E94F6259A94D914C0F3DA94F10149
:1048D000ED0DF11D808190E0B3010E94F625DD20F1
:1048E000A9F706C080E290E0B3010E94F625EA94A1
:1048F000EE20C1F743CEF30166817781CB012B9681
:10490000E2E10C949C26DC01CB01FC01E199FECF95
:1049100006C0FFBBEEBBE09A31960DB20D9241503E
:104920005040B8F70895A8E1B0E042E050E00C94A0
:104930008524DC01CB0103C02D910E94A4244150A9
:104940005040D0F70895262FE199FECF9FBB8EBB34
:104950002DBB0FB6F894E29AE19A0FBE0196089526
:104960000E94A324272F0C94A4240F931F93CF936A
:10497000DF93689F8001699F100D789F100D1124AF
:10498000C8010E94D124EC01009729F060E070E09A
:10499000A8010E94E425CE01DF91CF911F910F91D4
:1049A0000895CF93DF93BC018230910510F462E04B
:1049B00070E0A0910006B0910106ED01E0E0F0E0AA
:1049C00040E050E021C0888199818617970769F4FB
:1049D0008A819B81309719F09383828304C09093DE
:1049E000010680930006FE0134C06817790738F489
:1049F0004115510519F08417950708F4AC01FE0123
:104A00008A819B819C01E9012097E9F641155105B6
:104A1000A9F1CA01861B970B049708F4BA01E0E0DC
:104A2000F0E02AC08D919C91119784179507F9F4B5
:104A30006417750781F412968D919C9113973097A6
:104A400019F09383828304C090930106809300063B
:104A5000FD0132964FC0CA01861B970BFD01E80F7E
:104A6000F91F6193719302978D939C9343C0FD014D
:104A7000828193819C01D9011097A1F68091FE0556
:104A80009091FF05892B41F480916A0590916B0507
:104A90009093FF058093FE0540916C0550916D0544
:104AA0004115510541F44DB75EB78091680590916D
:104AB0006905481B590B2091FE053091FF0524170D
:104AC0003507B0F4CA01821B930B8617970780F055
:104AD000AB014E5F5F4F8417950750F0420F531F95
:104AE0005093FF054093FE05F9016193719302C055
:104AF000E0E0F0E0CF01DF91CF910895CF93DF9315
:104B0000009709F450C0EC0122971B821A82A091F1
:104B10000006B0910106109709F140E050E0AC1793
:104B2000BD0708F1BB83AA83FE0121913191E20FF9
:104B3000F31FAE17BF0779F48D919C911197280F41
:104B4000391F2E5F3F4F3983288312968D919C9198
:104B500013979B838A834115510571F4D093010605
:104B6000C093000620C012968D919C911397AD01C1
:104B7000009711F0DC01D3CFFA01D383C2832191D6
:104B80003191E20FF31FCE17DF0769F48881998115
:104B9000280F391F2E5F3F4FFA01318320838A810E
:104BA0009B8193838283DF91CF91089599278827F2
:104BB0000895FC010590615070400110D8F7809570
:104BC00090958E0F9F1F0895DC0101C06D93415099
:104BD0005040E0F70895FC016150704001900110D1
:104BE000D8F7809590958E0F9F1F08950F931F9370
:104BF000CF93DF938C01EB018B8181FF1BC082FF80
:104C00000DC02E813F818C819D812817390764F466
:104C1000E881F9810193F983E88306C0E885F98585
:104C2000802F0995892B31F48E819F8101969F8376
:104C30008E8302C00FEF1FEFC801DF91CF911F914C
:104C40000F910895FA01AA27283051F1203181F1FE
:104C5000E8946F936E7F6E5F7F4F8F4F9F4FAF4F84
:104C6000B1E03ED0B4E03CD0670F781F891F9A1F97
:104C7000A11D680F791F8A1F911DA11D6A0F711D4B
:104C8000811D911DA11D20D009F468943F912AE057
:104C9000269F11243019305D3193DEF6CF0108953F
:104CA000462F4770405D4193B3E00FD0C9F7F6CF70
:104CB000462F4F70405D4A3318F0495D31FD405238
:104CC000419302D0A9F7EACFB4E0A69597958795CE
:104CD00077956795BA95C9F70097610571050895AD
:104CE0009B01AC010A2E0694579547953795279559
:104CF000BA95C9F7620F731F841F951FA01D0895F1
:104D00002F923F924F925F926F927F928F929F92DB
:104D1000AF92BF92CF92DF92EF92FF920F931F93C9
:104D2000CF93DF93CDB7DEB7CA1BDB0B0FB6F8947A
:104D3000DEBF0FBECDBF09942A88398848885F84BA
:104D40006E847D848C849B84AA84B984C884DF802B
:104D5000EE80FD800C811B81AA81B981CE0FD11D0F
:104D60000FB6F894DEBF0FBECDBFED010895F894E5
:024D7000FFCF73
:104D72004552524F523A2054494D454F55540A0A12
:104D820000256C640A0A0025640A0A00256C642C5A
:104D920020256C642C2025642C2025642C2025647D
:104DA2002C2025642C2025640A0A0025732028253E
:104DB200732E2573290A0A000A2D2D2D3D3D3D2013
:104DC2005265736974616E636520486561746572CA
:104DD2002054656D706572617475726520436F6EE3
:104DE20074726F6C2020762573203D3D3D2D2D2D54
:104DF2000A00202863292025732E2573206279203A
:104E02004A616E204B7269656765722028444B4681
:104E12005A290A00206A2E6B7269656765724064BE
:104E22006B667A2E6465202D2D20206A616E406AA1
:104E32006B7269656765722E64650A0A00545F4980
:104E42004E505554004552524F523A20494E564107
:104E52004C494420444154410A0A005054313030F4
:104E62005F4F4646534554300050543130305F4F07
:104E72004646534554310053485554444F574E000B
:104E820046414E5F4D494E0046414E5F494E4352A8
:104E920045415345005049445F49005049445F49E8
:104EA2004D4158005049445F5000424155445241DF
:104EB2005445004552524F523A20554E4B4E4F5791
:104EC2004E20504152414D455445520A0A00526506
:104ED20073697374616E63652D48656174657220D0
:104EE200202000202028632932303131204A2E2010
:104EF2004B726965676572002020202020423034A1
:104F0200302C20444B465A2020202020002A2B2AD5
:104F12002B2A2B2A2B2A2B2A2B2A2B2A2B2A2B2AE7
:104F22002B006F76657274656D70002073656E7309
:104F320065727200202020202020202000204F6651
:104F4200662000204F6E2020000101312E302E32CB
:104F5200322E3131390030360032303132002020E9
:104F62002020202020002054303D2020202020B06E
:104F7200432054693D202020B043002054313D207D
:104F820020202020B043202020202020202020008C
:104F92007365743D2020202020B04320204F5B20E9
:104FA2002020205D004D656E75202020E02020200D
:104FB20020DE20204F6E4F666600202D2D2D200012
:104FC20025346900253369004F5BC4C4C4C45D0045
:104FD20000000C736176696E67202E2E2E20202031
:104FE2002020200A202020202020202020202020D5
:104FF20020202020000A64656661756C747320723B
:105002006573746F72656420202020202020202088
:1050120020200D202E2E2E202E2E2E202E2E2E2023
:105022002E2E2E2020202020202020202020202054
:1050320020202020000C424155445241544520205A
:10504200202020202020202020200A203D20256C06
:10505200642020202020202020202020202020200A
:105062002020000C494E5055542020202020202082
:1050720020202020202020200A203D202020202027
:10508200202020202020202020202020202020201E
:10509200005430005431002854302B5431292F321F
:1050A20000253464000C5054313030204F464653B2
:1050B200455420666F72205430200A203D2025730B
:1050C20020B043202020202020202020202020202B
:1050D200000B54303D2573B04320000C5054313046
:1050E20030204F464653455420666F72205431207B
:1050F2000A203D20257320B043202020202020209C
:10510200202020202020000B54313D2573B0432065
:10511200000C504944205020666163746F72202055
:105122002020202020200A203D202564202020202D
:10513200202020202020202020202020000C504948
:1051420044204920666163746F7220202020202051
:1051520020200A203D2025642020202020202020FD
:105162002020202020202020000C504944204420D0
:10517200666163746F7220202020202020200A2084
:105182003D202564202020202020202020202020B7
:1051920020202020000C50494420495F4D415820D6
:1051A200202020202020202020200A203D20256CA5
:1051B20064202020202020202020202020202020A9
:1051C20020000C46414E2053544152542054454D28
:1051D200502E20202020200A203D20256420B0438C
:1051E20020202020202020202020202020000C46CB
:1051F200414E20494E435245415345202020202014
:105202002020200A203D2025732073746570732F9F
:10521200B0432020202020202020202020202000F9
:105222000C726573746F7265206465666561756C76
:1052320074202020200A7072657373202563202059
:105242002020202020202020202020000C444F4E0F
:105252004520212121202020202020202020202024
:10526200200A70726573732025632020202020207D
:0E527200202020202020200020000206000026
:00000001FF
