:100000000C9468020C9485020C9485020C94850271
:100010000C9485020C9485020C9485020C94850244
:100020000C9485020C9485020C9485020C94850234
:100030000C9485020C94D50D0C9485020C948502C9
:100040000C9485020C9485020C9485020C94850214
:100050000C9446110C947D110C9485020C9485022D
:100060000C9485020C9485020C9485020C948502F4
:100070000C94091D0C94401D0C948502C217C717DF
:10008000CC17D117D617DB17E017E517EA17EF17CC
:10009000F417F917FE176A1A8D1AD51A031B281BB5
:1000A0004B1B6E1B931BB81BE41B141C441C651CD0
:1000B0000C20202020202020202020202020202054
:1000C00020200A20696E6974206C61736572202E8D
:1000D0002E2E2020202020202000443E2069732046
:1000E0006C6173657220636F6E6E65637465642006
:1000F000553D25640A0020206A2E6B72696567658C
:100100007240646B667A2E6465202D2D20206A6112
:100110006E406A6B7269656765722E64650A0A00D3
:1001200020202863292025732E2573206279204AF8
:10013000616E204B7269656765722028444B465A90
:10014000290A000A5253323332204C6173657220FF
:10015000436F6E74726F6C6C6572207625642E2509
:10016000640A004552524F523A2054494D454F556A
:10017000540A0A004552524F523A20494E56414CB9
:10018000494420444154410A0A004552524F523AD0
:100190002054494D454F55540A0A004552524F527A
:1001A0003A2054494D454F55540A0A004552524F82
:1001B000523A20494E56414C494420444154410A48
:1001C0000A004C41534552204E4F5420434F4E4E4F
:1001D00045435445440A0A00434F4E5354414E543C
:1001E00020504F574552204641554C540A0A004969
:1001F0004E5445524C4F434B204F50454E0A0A0037
:1002000054454D5045524154555245204552524F48
:10021000520A0A004C415345522052454345495623
:10022000452054494D454F55540A0A004241442047
:10023000494E535452554354494F4E204552524F04
:10024000520A0A004F4B0A0A00493D25352E3366F3
:10025000202000443E2073656E74207020302E30C4
:100260000A00443E2073656E742000443E2073658E
:100270006E74206C6564733F0A00443E2073656EA3
:100280007420663F0A00443E2073656E7420693F07
:100290000A00443E2073656E742070613F0A00447A
:1002A0003E206C61736572206E6F7420636F6E6E9A
:1002B00065637465640A0A00443E204C617365728C
:1002C00020616E73776572733A2025730A001F1BD5
:1002D000110A1B1B1B1F1F1B1B1B0A111B1F1F1D92
:1002E0001D1D1501171F170A151B170D1D1D0C6568
:1002F000786974206D656E752020202020202020D4
:10030000200A707265737320412020202020202055
:10031000202020000C726573746F7265206465661E
:1003200061756C74732E0A70726573732041000CD2
:10033000736176696E67202E2E2E202020202020CB
:100340000A202020202020202020202020202020C3
:1003500020000A64656661756C747320726573743D
:100360006F72656420202020202020202020200D76
:10037000202E2E2E202E2E2E202E2E2E202E2E2ED5
:10038000202020202020202020202020202020206D
:1003900020006E616E00696E6600494E46494E4906
:1003A00054594E414ECDCCCC3D0AD7233C17B7D142
:1003B0003877CC2B329595E6241FB14F0A000020E8
:1003C000410000C84200401C4620BCBE4CCA1B0E67
:1003D0005AAEC59D7400407A10F35A00A0724E18B0
:1003E000090010A5D4E80000E87648170000E40BE7
:1003F00054020000CA9A3B000000E1F505000080AD
:10040000969800000040420F000000A08601000006
:1004100000102700000000E8030000000064000056
:100420000000000A00000000000100000000002C95
:1004300076D888DC674F0823DFC1DFAE59E1B1B75A
:1004400096E5E3E453C63AE651997696E8E6C28427
:1004500026EB898C9B62ED407C6FFCEFBC9C9F403F
:10046000F2BAA56FA5F490055A2AF75C936B6CF964
:10047000676DC11BFCE0E40D47FEF520E6B500D03A
:10048000ED902E0300943577050080841E0800004F
:10049000204E0A000000C80C333333330F986E121D
:1004A000831141EF8D2114893BE65516CFFEE6DB23
:1004B00018D1844B381BF77C1D901DA4BBE424206D
:1004C0003284725E228100C9F124ECA1E53D27004F
:1004D00011241FBECFEFD8E0DEBFCDBF13E0A0E0F8
:1004E000B1E0E2EFF5E502C005900D92A23FB10741
:1004F000D9F714E0A5EFB3E001C01D92A53EB10706
:10050000E1F70E9497070C94F72A0C9400000895D5
:100510008DB79EB708970FB6F8949EBF0FBE8DBFDC
:10052000EDB7FEB731968091130490911404ADB7E6
:10053000BEB712969C938E93119783E491E09383B8
:10054000828315821482178216820E94A528EDB735
:10055000FEB731968091130490911404ADB7BEB7E5
:1005600012969C938E93119780E291E093838283FD
:1005700081E992E09583848384E992E0978386837E
:100580000E94A5288DB79EB708960FB6F8949EBF17
:100590000FBE8DBF86EF90E00E947B1D0895CF9324
:1005A000DF93AEE1B4E01D9284E0AF32B807D9F733
:1005B0002091FE033091FF0340910004509101040B
:1005C000CDB7DEB728970FB6F894DEBF0FBECDBF0C
:1005D000EDB7FEB731965197BA83A98389E492E0CB
:1005E0009383828324833583468357830E9417290C
:1005F0008DB79EB708960FB6F8949EBF0FBE8DBFFD
:10060000DF91CF910895A0E0B0E0E9E0F3E00C9431
:100610006B254C013B0180E064E04AE050E00E9421
:10062000D20EEC0180917F04882301F100D000D02C
:1006300000D0EDB7FEB73196809113049091140469
:10064000ADB7BEB712969C938E9311978AED90E04A
:1006500093838283D583C4830E94A528EDB7FEB718
:1006600036960FB6F894FEBF0FBEEDBF80918004A2
:10067000882371F0C93CD10558F45E9814985C98B1
:100680005D9A86E0809302041092F90380E067C0CF
:10069000A090F503B090F603C090F703D090F80354
:1006A0008AE090E0A0E0B0E0A80EB91ECA1EDB1EF2
:1006B000E090F503F090F6030091F7031091F80332
:1006C000D4011C92C0E0D0E08FEF11C00E94E7116E
:1006D000882329F0F401EC0FFD1F80832196E09020
:1006E000F503F090F6030091F7031091F803EA1474
:1006F000FB040C051D0528F48D3019F0C615D7052F
:100700002CF3C80DD91D188280917F04882301F134
:1007100000D000D000D0EDB7FEB731968091130421
:1007200090911404ADB7BEB712969C938E93119717
:1007300088EB92E093838283958284820E94A5282D
:10074000EDB7FEB736960FB6F894FEBF0FBEEDBFFD
:1007500080E0EA14FB040C051D0508F481E0CDB728
:10076000DEB7EEE00C948725AEE1B0E0EAEBF3E013
:100770000C946F257C01B62E6A01A22E80E064E005
:100780004AE050E00E94D20E8C0180917F048823C1
:1007900001F100D000D000D0EDB7FEB731968091C6
:1007A000130490911404ADB7BEB712969C938E9328
:1007B00011978AED90E093838283158304830E94CE
:1007C000A528EDB7FEB736960FB6F894FEBF0FBE5C
:1007D000EDBF80918004882329F0093C110510F4B5
:1007E00086E0A4C00E944213BB2009F474C080912B
:1007F0007F048823B9F182E692E00E947B1DEDB769
:10080000FEB738970FB6F894FEBF0FBEEDBF0DB719
:100810001EB70F5F1F4F80911304909114049283B1
:10082000818380E091E0D80113969C938E93129778
:10083000B60180E090E00E94952320E030E44CE196
:1008400056E40E940123F8016483758386839783AD
:100850000E9491288DB79EB708960FB6F8949EBF58
:100860000FBE8DBFADB7BEB718970FB6F894BEBF19
:100870000FBEADBF0DB71EB70F5F1F4F809117049E
:100880009091180412969C938E93119786E091E0B4
:10089000F80193838283B60180E090E00E94952363
:1008A00020E030E44CE156E40E940123D801149684
:1008B0006D937D938D939C9317970E949128EDB72C
:1008C000FEB738960FB6F894FEBF0FBEEDBFAA2054
:1008D000A1F0149A12C080917F04882321F083E54F
:1008E00092E00E947B1D60911704709118048CE0C7
:1008F00091E00E94EE28A110149880E098E40197FE
:10090000F1F7CE0101966EE170E00E9403038823A7
:1009100061F4D7011C9289818F3419F48A818B3458
:1009200039F081E0F701808303C082E0D7018C9326
:100930006E96EAE00C948B25AAE0B0E0E2EAF4E0DF
:100940000C946E25982EFE0131968AE0DF011D92EF
:100950008A95E9F7E090F503F090F6030091F7032C
:100960001091F8038FE090E0A0E0B0E0E80EF91EEF
:100970000A1F1B1FCC24DD2428E530E05F010DC0D9
:100980000E94AA1D9C01C097029738F4F501EC0D56
:10099000FD1D20830894C11CD11C8091F50390910A
:1009A000F603A091F703B091F8038E159F05A007F9
:1009B000B10750F42A30310539F02D30310521F0DE
:1009C00093E0C916D104E4F28091F5039091F60307
:1009D000A091F703B091F8038E159F05A007B1070A
:1009E00000F5992011F590E08981803309F091E0BC
:1009F0009093F903109204046091F90340917404F8
:100A000050917504909103048091040420E098179C
:100A100009F421E082E094E00AEF13E00E94B403BD
:100A200004C08AE891E00E947B1D2A96EBE00C94BA
:100A30008A25ACE0B0E0EFE1F5E00C946E25982E4D
:100A4000FE0133968AE0DF011D928A95E9F7E09076
:100A5000F503F090F6030091F7031091F8038FE08F
:100A600090E0A0E0B0E0E80EF91E0A1F1B1FCC24A6
:100A7000DD2428E530E05F0116C00E94AA1D9C011C
:100A8000C0970A9748F02B32310531F02D323105ED
:100A900019F02E32310539F4F501EC0DFD1D2083DE
:100AA0000894C11CD11C8091F5039091F603A0918C
:100AB000F703B091F8038E159F05A007B10750F416
:100AC0002A30310539F02D30310521F097E0C91673
:100AD000D1049CF28091F5039091F603A091F70365
:100AE000B091F8038E159F05A007B10708F045C027
:100AF000CE010396BE016F5F7F4F0E94A4259B012C
:100B0000AC019920F1F5E981FA818081882391F582
:100B1000CA01B90120E030E040E251E40E944B24D8
:100B20000E94AE240E9469239B01AC018091740451
:100B3000909175048217930721F1309375042093E7
:100B400074040E94B813109204046091F903409158
:100B5000740450917504909103048091040420E082
:100B6000981709F421E082E094E00AEF13E00E9474
:100B7000B40307C08CEA91E002C08BE991E00E94C7
:100B80007B1D2C96EBE00C948A25AEE1B0E0EBECFB
:100B9000F5E00C946E258C016B015A01922EDC015C
:100BA0008C91823009F41C9280E064E04AE050E0CD
:100BB0000E94D20E7C0180917F04882301F100D035
:100BC00000D000D0EDB7FEB731968091130490911C
:100BD0001404ADB7BEB712969C938E9311978AED0D
:100BE00090E093838283F582E4820E94A528EDB78A
:100BF000FEB736960FB6F894FEBF0FBEEDBF8091DC
:100C000080048823B9F0F9ECEF16F10498F486E03B
:100C1000D8018C93992021F05E9814985C985D9A85
:100C200080917F04882309F4D2C08FE992E00E946A
:100C30007B1DCDC00E94421383E191E00E94CF1141
:100C400080E098E40197F1F780917F04882321F0F8
:100C500082E992E00E947B1D7E010894E11CF11C58
:100C6000C7016EE170E00E940303882379F0C70199
:100C70000E94042720E030E04AE754E40E944B241D
:100C8000F601608371838283938303C082E0D8017D
:100C90008C93F8018081882309F099C00E94421347
:100CA00088E191E00E94CF1180E098E40197F1F78C
:100CB00080917F04882321F086E892E00E947B1DCA
:100CC0007E010894E11CF11CC7016EE170E00E94F6
:100CD0000303882351F0C7010E940427D5016D93B7
:100CE0007D938D939C93139703C082E0F8018083DA
:100CF000D8018C91882309F06AC00E9442138CE1CC
:100D000091E00E94CF1180E098E40197F1F7809183
:100D10007F04882321F08AE792E00E947B1DCE01A8
:100D200001966EE170E00E9403038823A1F0F801B0
:100D300010828981813311F483E080838981823339
:100D400019F484E0D8018C938981833339F485E0E8
:100D5000F801808303C082E0D8018C93F801808180
:100D60008823A9F5992099F10E94421380E291E02D
:100D70000E94CF1180E098E40197F1F780917F0401
:100D8000882321F08BE692E00E947B1D7E0108946F
:100D9000E11CF11CC7016EE170E00E94030388238F
:100DA00099F0C7010E94082780FF02C05E9A01C027
:100DB0005E9882FF02C05C9A01C05C9883FF02C00B
:100DC0005D9A05C05D9803C082E0D8018C936E9651
:100DD000EBE00C948A251F938823A1F4109204045D
:100DE000909103048091040420E0981709F421E015
:100DF00082E094E06AEF73E04EEF53E00E94C50595
:100E00001091020400D000D000D0EDB7FEB73196AB
:100E10008091130490911404ADB7BEB712969C93C1
:100E20008E93119787E291E09383828314831582D6
:100E30000E9491288DB79EB706960FB6F8949EBF74
:100E40000FBE8DBF1330B9F0143028F4113069F0A3
:100E5000123070F407C01530A1F0153078F016305C
:100E6000C1F412C084E492E011C08CE292E00EC0A2
:100E700084E192E00BC080E092E008C08FEE91E048
:100E800005C088ED91E002C082EC91E00E947B1DDC
:100E900006C08AE00E94FF1C8AE00E94FF1C1F918E
:100EA0000895CF93DF93AC016115710529F1EB0132
:100EB00009900020E9F72197C61BD70BDC010D90A4
:100EC0000020E9F71197A81BB90B1C161D06A4F406
:100ED000AC17BD079CF020E030E0FA01E20FF31FF1
:100EE000DB01A20FB31F90818C91981739F42F5F0B
:100EF0003F4F2C173D078CF381E001C080E0DF916C
:100F0000CF91089581E06EEC72E00E94151182E0AD
:100F100066ED72E00E94151183E06EED72E00E94B2
:100F2000151184E066EE72E00E9415110895A0E0AC
:100F3000B0E0EDE9F7E00C9467255D985C985E9869
:100F40001498109215041092F9031092060481E08F
:100F500080931A0482E897E0909311048093100420
:100F6000F8940E9467150E94730E0E9435160E9425
:100F7000810E80917E040E948F0E80E060E00E94CE
:100F800021100E94820780EE90E160E070E00E94F4
:100F9000452890931D0480931C0460E072EC81E06E
:100FA00090E048E021E000E00E94EC1185EC91E146
:100FB00061EE71E10E944528909318048093170414
:100FC000609176047091770480917804909179040F
:100FD00048E021E00E94AF1D88E89DE164EA7DE1E0
:100FE0000E94452890931404809313040E94880261
:100FF00081E060E040E00E94D10F81E00E94DD0FBF
:101000002DB73EB7205130400FB6F8943EBF0FBE0B
:101010002DBFEDB7FEB7319680911C0490911D0451
:10102000ADB7BEB712969C938E9311978CE291E068
:10103000938382831482158216821782108611860A
:101040001286138681E992E09587848784E992E08D
:10105000978786870E949128EDB7FEB770960FB6E6
:10106000F894FEBF0FBEEDBF80E00E94DD0F86B199
:10107000807280932F0480B1827080931A0488EE6E
:1010800093E00E94920E78942DB73EB72C503040DA
:101090000FB6F8943EBF0FBE2DBFEDB7FEB7319629
:1010A00080911C0490911D04ADB7BEB712969C931D
:1010B0008E9311978BE591E093838283148215823E
:1010C0001682178210861186128613860E94912836
:1010D00010920404109204046091F9034091740486
:1010E000509175049091030480910404EDB7FEB70C
:1010F0003C960FB6F894FEBF0FBEEDBF20E09817E8
:1011000009F421E082E094E00AEF13E00E94B403C6
:101110000E9411100E94191060911C0470911D040E
:101120008AE891E00E94EE285D985C985E98149899
:10113000E090F90380E064E04AE050E00E94D20EC3
:101140008C0180917F04882301F100D000D000D071
:10115000EDB7FEB731968091130490911404ADB7AA
:10116000BEB712969C938E9311978AED90E093836D
:101170008283158304830E94A528EDB7FEB73696B7
:101180000FB6F894FEBF0FBEEDBF80918004882398
:1011900021F080E0093C110508F081E08E2C839459
:1011A000E82EE3945AED452E50E0552E40EB242EC8
:1011B00040E0342E38EB632E712CCDEFD1E001C02E
:1011C000E92C80E064E04AE050E00E94D20E8C01FD
:1011D00080917F048823F1F000D000D000D0EDB7DB
:1011E000FEB731968091130490911404ADB7BEB749
:1011F00012969C938E931197538242821583048397
:101200000E94A528EDB7FEB736960FB6F894FEBF3C
:101210000FBEEDBF80918004882321F09924093C02
:10122000110510F09924939480916F04882349F05C
:1012300083B190E096958795969587958170809378
:10124000F903992011F41092F903E91409F443C049
:10125000992009F440C01092F90300D000D0809189
:101260001C0490911D04ADB7BEB712969C938E934B
:10127000119714963C922E9213970E94A52888EEFF
:1012800093E00F900F900F900F90F3013197F1F7CB
:101290000197D9F71092040488EE93E0F301319797
:1012A000F1F70197D9F7109204046091F903409186
:1012B000740450917504909103048091040420E01B
:1012C000981709F421E082E094E00AEF13E00E940D
:1012D000B4038824839480916204882309F482C033
:1012E00082E064E04AE050E00E94D20E29E130E062
:1012F000FC01E29FC001E39F900DF29F900D11242D
:101300006AE070E00E9416255B01CC24DD24809108
:10131000810490918204A0E0B0E0A816B906CA0644
:10132000DB062CF41092750410927404C4C08091F2
:10133000670490916804A0E0B0E08A159B05AC05B5
:10134000BD059CF480916D0490916E049C0103E0B6
:10135000220F331F0A95E1F7880F991F280F391FB5
:101360003093750420937404A6C0209170043091CA
:1013700071044091720450917304809181049091A2
:101380008204E0906304F09064040091650410917D
:101390006604A0E0B0E0A81AB90ACA0ADB0AC601CE
:1013A000B5010E94F724A80197010E944C253093B3
:1013B000750420937404109204046091F903409121
:1013C000740450917504909103048091040420E00A
:1013D000981709F421E082E094E00AEF13E00E94FC
:1013E000B40369C00E944816BC01059909C0880F62
:1013F000991FA3E0660F771FAA95E1F7680F791F81
:101400008091740490917504861B970B90937504DA
:1014100080937404809174049091750497FF04C0C4
:101420001092750410927404809174049091750464
:1014300020916D0430916E04A901F3E0440F551F13
:10144000FA95E1F7220F331F420F531F4817590730
:1014500090F480916D0490916E049C0153E0220FF2
:10146000331F5A95E1F7880F991F280F391F3093C2
:10147000750420937404672B21F48091F903881676
:10148000D1F010920204109204046091F90340918B
:10149000740450917504909103048091040420E039
:1014A000981709F421E082E094E00AEF13E00E942B
:1014B000B4030E94B81380911B048430B0F01092E2
:1014C00004046091F9034091740450917504909163
:1014D00003048091040420E0981709F421E082E0DD
:1014E00094E00AEF13E00E94B4038090F903109295
:1014F0000404909103048091040420E0981709F4F7
:1015000021E082E094E06AEF73E04EEF53E00E9446
:10151000C5058091F90320911C0430911D04813090
:10152000D1F460917404709175044DB75EB7485062
:1015300050400FB6F8945EBF0FBE4DBF0DB71EB73B
:101540000F5F1F4FADB7BEB712963C932E93119706
:101550002DE931E019C060917404709175044DB7A4
:101560005EB7485050400FB6F8945EBF0FBE4DBFF7
:101570000DB71EB70F5F1F4FADB7BEB712963C93A6
:101580002E93119720EB31E0F801338322838827D3
:1015900077FD8095982F0E94972320E030E040E26D
:1015A00051E40E940123D80114966D937D938D938D
:1015B0009C9317970E949128EDB7FEB738960FB607
:1015C000F894FEBF0FBEEDBF809102048823D9F5C9
:1015D00080910304882309F45D98C0901C04D09086
:1015E0001D04E090FA03F090FB030091FC031091BE
:1015F000FD030E94CF022DB73EB72A5030400FB6F0
:10160000F8943EBF0FBE2DBFEDB7FEB73196ADB714
:10161000BEB71296DC92CE92119724EC31E0338360
:101620002283E482F58206831783918780870E9454
:1016300091284DB75EB7465F5F4F0FB6F8945EBF17
:101640000FBE4DBF36C020911C0430911D04E091A7
:101650000204E73040F4F0E0EE0FFF1FED57FD4FBE
:101660008081918104C0809185029091860200D092
:1016700000D000D0EDB7FEB73196ADB7BEB7129629
:101680003C932E93119720ED31E033832283958391
:1016900084830E949128809103044DB75EB74A5F0E
:1016A0005F4F0FB6F8945EBF0FBE4DBF882309F49D
:1016B0005D9A60911C0470911D0485ED91E00E947B
:1016C000EE2880916204882339F481E063E00E946F
:1016D000681088EE91E006C080E063E00E94681028
:1016E0008BEE91E00E94E51080916F04882339F41D
:1016F00087E063E00E94681081EF91E006C085E01A
:1017000063E00E94681083EF91E00E94E5108091F1
:101710000604813069F580911C0490911D040E949B
:10172000B21C609176047091770480917804909156
:10173000790448E021E000E00E94AF1D84EF91E0D1
:10174000F3013197F1F70197D9F75F9880917E0403
:10175000865F80937E0480917E040E948F0E10929B
:1017600006040E9411100E9419101092040408C06F
:1017700080917E040E948F0E809161040E94F80F78
:101780000E94AA1D8936910509F421C18A36910566
:10179000FCF48F34910509F43EC0803591055CF46A
:1017A0008633910509F48FC18F33910569F1C49790
:1017B00009F006CD74C18436910509F423C187363A
:1017C000910509F4C6C08635910509F0F9CCBCC174
:1017D00080379105E1F0813791054CF48C36910505
:1017E00009F4ACC18F36910509F0EACC18C08337F3
:1017F000910509F450C18737910509F46FC082370C
:10180000910509F0DDCC40C00E948802D9CC80E06F
:101810000E941905D5CC80E00E949C04D1CC109286
:101820000404909103048091040420E0981709F4C3
:1018300021E082E094E06AEF73E04EEF53E00E9413
:10184000C5052091F90300D000D000D0EDB7FEB758
:1018500031968091130490911404ADB7BEB71296DF
:101860009C938E93119748EF51E0538342832483D6
:1018700015820E9491288DB79EB706960FB6F894F0
:101880009EBF0FBE8DBF9CCC1092040490910304A8
:101890008091040420E0981709F421E082E094E0AC
:1018A0006AEF73E04EEF53E00E94C5052091FA0302
:1018B0003091FB034091FC035091FD03ADB7BEB7DF
:1018C00018970FB6F894BEBF0FBEADBFEDB7FEB709
:1018D000319680911304909114042BC0109204044B
:1018E000909103048091040420E0981709F421E00A
:1018F00082E094E06AEF73E04EEF53E00E94C5058A
:1019000020917A0430917B0440917C0450917D04B5
:101910008DB79EB708970FB6F8949EBF0FBE8DBFC8
:10192000EDB7FEB731968091130490911404ADB7D2
:10193000BEB712969C938E931197D383C283248350
:101940003583468357830E949128EDB7FEB73896BA
:1019500026C110920404909103048091040420E0B5
:10196000981709F421E082E094E06AEF73E04EEF0B
:1019700053E00E94C50560917404709175042DB701
:101980003EB7285030400FB6F8943EBF0FBE2DBF73
:101990000DB71EB70F5F1F4F209113043091140431
:1019A000ADB7BEB712963C932E931197F801D3832F
:1019B000C283882777FD8095982F0E94972320E087
:1019C00030E040E251E40E940123D801B0C01092FF
:1019D0000404909103048091040420E0981709F412
:1019E00021E082E094E06AEF73E04EEF53E00E9462
:1019F000C5052091FE033091FF03409100045091F2
:101A0000010486CF249AA090F503B090F603C0900D
:101A1000F703D090F8032FE030E040E050E0A20E52
:101A2000B31EC41ED51E20E030E003C00E94AA1DD4
:101A30009C018091F5039091F603A091F703B0917A
:101A4000F8038A159B05AC05BD0530F4203331053C
:101A500019F02133310551F78091F5039091F60388
:101A6000A091F703B091F8038A159B05AC05BD055D
:101A700068F42033310511F42C98A2CB21333105C1
:101A800011F42C9A9DCB84E791E002C083E691E0AB
:101A90000E947B1D95CB80E00E94EB0691CB0091CC
:101AA00013041091140482E06AE04AE050E00E94BE
:101AB000D20E4DB75EB7485050400FB6F8945EBF97
:101AC0000FBE4DBF13C0009113041091140483E0A6
:101AD0006AE04AE050E00E94D20E2DB73EB728508F
:101AE00030400FB6F8943EBF0FBE2DBFEDB6FEB628
:101AF0000894E11CF11CADB7BEB712961C930E936F
:101B00001197F701D383C283A0E0B0E0BC01CD01FF
:101B10000E94952320E030E040E85AE30E944B24E5
:101B20002AE037ED43E250E40E944B24D70114969B
:101B30006D937D938D939C93179705CF009113041C
:101B40001091140480E0C4CF2DB73EB72A50304026
:101B50000FB6F8943EBF0FBE2DBFEDB7FEB731965E
:101B60008091130490911404ADB7BEB712969C9364
:101B70008E93119722E032E03383228349E952E0C9
:101B80005583448381E992E097838683A4E9B2E098
:101B9000B187A0870E949128EDB7FEB73A960FB69D
:101BA000F894FEBF0FBEEDBF0BCB1F920F920FB686
:101BB0000F9211242F933F934F935F936F937F93D3
:101BC0008F939F93AF93BF93EF93FF93F8940E94EB
:101BD0005916809116048F5F809316048091160425
:101BE000853608F46EC0109216048091F50390912A
:101BF000F603A091F703B091F8030196A11DB11D62
:101C00008093F5039093F603A093F703B093F80342
:101C100080911B048F5F80931B048091F50390914A
:101C2000F603A091F703B091F8038B5F9F4FAF4F7E
:101C3000BF4F40F01092F5031092F6031092F70395
:101C40001092F80380910604882319F00E947819F5
:101C500038C080B1982F927081FF07C080911A041C
:101C6000882319F481E08093060490931A048091EC
:101C70006F048823A9F486B1982F907285FF0EC057
:101C800080912F04882351F48091F903882321F453
:101C900081E08093F90302C01092F90390932F041E
:101CA00080916204882369F480B1982F907285FF37
:101CB00006C080911904882311F4109202049093B5
:101CC00019047894FF91EF91BF91AF919F918F91FB
:101CD0007F916F915F914F913F912F910F900FBE28
:101CE0000F901F90189580E181B989EA84B98DE140
:101CF00087B98AEF8AB91BB882E58CBD81E08DBDBA
:101D0000089583E88093B00081E08093B100109241
:101D1000B2001092B30008951092B000089580931D
:101D2000B3000895BC014FB7F8942FE630E0F901F5
:101D30001082E4E8F0E011821082109280008DE0C1
:101D4000809381001182108280E29CE10E9416251E
:101D50007093890060938800F9018081826080839C
:101D60004FBF0895BC014FB7F8942FE630E0F9015A
:101D70001082E4E8F0E011821082109280008DE081
:101D8000809381001182108280E29CE10E941625DE
:101D900070938B0060938A00F90180818460808356
:101DA0004FBF0895A4E0B0E0E8EDFEE00C94672595
:101DB000462E1A018F70806C80937C0082E880939D
:101DC0007A0080917A00806480937A0080917A0012
:101DD00086FDFCCF80917800909179001C821B8257
:101DE000552431018824992489C080917A00806427
:101DF00080937A0080917A0086FDFCCF2091780054
:101E0000309179003A8329832114310409F46DC09B
:101E1000C401B3010E9495235B016C0122E539E402
:101E20004DE150E40E944B247B018C0120E030E026
:101E300040E85FE30E94FD22882314F461E053C070
:101E4000C801B70120E030E04FE753E40E94472487
:101E500018160CF044C0C601B50120E030E04AE796
:101E600054E40E9401235B016C0126E636E646EE4F
:101E700054E40E944B247B018C0120E030E040E8D8
:101E80005FE30E94FD2288231CF461E070E023C020
:101E9000C801B70120E03FEF4FE757E40E94472415
:101EA0001816ACF4C601B50120E030E040E251E480
:101EB0000E944B240E94692306C088EB90E00197A2
:101EC000F1F76150704061157105B9F70EC0C80196
:101ED000B7010E946923CB010197F1F706C0C80141
:101EE000B7010E9469236A95F1F78B819C81E98192
:101EF000FA818E0F9F1F9C838B835394541408F494
:101F000074CF80917A008F7780937A008B819C8147
:101F1000642D70E00E941625CB012496E2E10C941A
:101F200083258EBD0DB407FEFDCF08958EBD0DB483
:101F300007FEFDCF8EB50895482F43988CE08A9513
:101F4000F1F720E090E85CE0892F842311F0449AB7
:101F500001C04498439A3CE0852F8A95F1F7439855
:101F6000852F8A95F1F72F5F283011F09695ECCFE9
:101F70002898832F8A95F1F7289A832F8A95F1F76D
:101F8000289808950895429A0E949C0F82E68A95A7
:101F9000F1F7089542980E949C0F82E68A95F1F726
:101FA0000895882311F08CE001C088E061118E5FF4
:101FB00041118F5F0E94CA0F0895813029F48EE38A
:101FC0000E94CA0F88E106C0823041F48EE30E946D
:101FD000CA0F80E10E94CA0F8CE307C08AE30E9407
:101FE000CA0F80E10E94CA0F88E30E94CA0F0895B9
:101FF0000F931F93082F182F1F7389E30E94CA0F96
:1020000012951F70812F84650E94CA0F0F70802F58
:1020100080670E94CA0F88E30E94CA0F1F910F9128
:10202000089581E00E94CA0F89E993E00197F1F7D2
:10203000089582E00E94CA0F89E993E00197F1F7C1
:102040000895FF920F931F93082FF62E3C9A3B9A08
:102050003A9A3C9A209A80E090E90197F1F74298E9
:10206000289888EE93E028EB30E0F9013197F1F7FA
:102070000197D9F789E30E949C0F12E6812F8A9578
:10208000F1F789E30E949C0F1A95F1F789E30E940A
:10209000CA0F85E10E94CA0F85E50E94CA0F8EE62D
:1020A0000E94CA0F82E70E94CA0F88E30E94CA0FEB
:1020B00081E0602F4F2D0E94D10F80E10E94F80F28
:1020C0000E9411100E9419101F910F91FF90089506
:1020D000623051F0633018F4613089F409C0633024
:1020E00029F0643061F404C0805703C0805601C0F9
:1020F00080580E94CA0F89E993E00197F1F708958B
:102100008C3019F480E061E00EC08A3019F480E070
:1021100062E009C08B3019F480E063E004C08D30C8
:1021200029F480E064E00E9468100895803B11F477
:102130008FED43C0813011F480E03FC0823011F454
:1021400081E03BC0833011F482E037C0843011F469
:1021500083E033C0853011F484E02FC0863011F461
:1021600085E02BC0873011F486E027C0883011F459
:1021700087E023C0853209F18C37F9F0853B11F4F3
:1021800084EE1BC08034C9F08F3D11F482EE15C07F
:10219000803811F483EE11C0843E11F0843C11F4B8
:1021A00081EE0BC0863F11F0863D11F48FEE05C025
:1021B0008C3F11F08C3D09F485EF0E94C30F089508
:1021C0000E94801080E090E00895CF93DF93EC01AF
:1021D00003C00E948010219688818823D1F7DF9167
:1021E000CF9108950F931F93CF93DF938B0190E0CE
:1021F000019723E0880F991F2A95E1F78F73806478
:102200000E94CA0FC0E0D0E0F801EC0FFD1F8081F2
:102210000E94C30F2196C830D105B1F70E94191052
:10222000DF91CF911F910F910895EF92FF921F932D
:10223000DF93CF93CDB7DEB728970FB6F894DEBF04
:102240000FBECDBF182F7E010894E11CF11CC70101
:1022500048E050E00E940628812FB7010E94F2104A
:1022600028960FB6F894DEBF0FBECDBFCF91DF9199
:102270001F91FF90EF900895982F8091C00085FFE7
:10228000FCCF9093C60081E090E008951F920F92DA
:102290000FB60F9211242F938F939F93EF93FF9379
:1022A0002091C60090915804809159049817D8F451
:1022B000E0915C04F0915D04219380915F04815072
:1022C00021F480915904E81BF10980935F04F09395
:1022D0005D04E0935C049FB7F894809158048F5F8D
:1022E000809358049FBFFF91EF919F918F912F9101
:1022F0000F900FBE0F901F9018951F920F920FB660
:102300000F9211242F938F939F93EF93FF938091BC
:1023100050048823F1F0E0915204F091530421918C
:1023200080915604815021F480915104E81BF109F9
:10233000F0935304E0935204809356049FB7F894AB
:10234000809150048150809350049FBF2093C60019
:1023500005C08091C1008F7D8093C100FF91EF91F6
:102360009F918F912F910F900FBE0F901F901895F6
:10237000FC0194913196992339F08091C00085FF3A
:10238000FCCF9093C600F5CF0895982F8091C000A0
:1023900085FFFCCF9093C60080E090E00895FC019B
:1023A00090818091C00085FFFCCF9093C600992357
:1023B00011F03196F5CF089588E594E00E9401165A
:1023C000089588E594E00E94011690E0089588E55C
:1023D00094E00E9419160895AF92BF92CF92DF92B7
:1023E000EF92FF920F931F936B017C01142FB22E7B
:1023F000AFB680E0C81686E9D80680E0E80680E03F
:10240000F80609F4AEC081E0C81686E9D80680E077
:10241000E80680E0F80608F047C080E8C81685E2C4
:10242000D80680E0E80680E0F80609F492C081E86A
:10243000C81685E2D80680E0E80680E0F806A8F431
:1024400080E6C81689E0D80680E0E80680E0F80655
:1024500009F477C080ECC81682E1D80680E0E8066F
:1024600080E0F80609F091C06EC080E0C8168BE4E9
:10247000D80680E0E80680E0F80609F46EC080E83F
:10248000C81680E7D80680E0E80680E0F80609F480
:1024900066C080E4C81688E3D80680E0E80680E0DD
:1024A000F80609F072C057C080E0C81684E8D80664
:1024B00083E0E80680E0F80609F45BC081E0C81616
:1024C00084E8D80683E0E80680E0F806F0F480E0CF
:1024D000C8168CE2D80681E0E80680E0F80609F428
:1024E00044C080E0C81682ECD80681E0E80680E0AF
:1024F000F806E9F180E0C81681EED80680E0E8062B
:1025000080E0F80609F041C02EC080E2C81681EADA
:10251000D80687E0E80680E0F80669F180E4C8168E
:1025200082E4D8068FE0E80680E0F80641F180E911
:10253000C81680EDD80683E0E80680E0F80629F5A5
:1025400018C08FEB01C08FE58093C4001092C500C6
:102550003AC08FE2F9CF8FE1F7CF87E1F5CF8FE077
:10256000F3CF8BE0F1CF87E0EFCF85E0EDCF83E0D5
:10257000EBCF81E0E9CF81E08093C40002C01092EC
:10258000C4001092C50091E01FC0C701B6016050A1
:10259000704F814F9F4F33E0660F771F881F991F41
:1025A0003A95D1F724E0CC0CDD1CEE1CFF1C2A95DB
:1025B000D1F7A70196010E942A252150304020938F
:1025C000C4003093C50090E0F89488E98093C1007E
:1025D000013019F0023051F404C08091C2008062D1
:1025E00003C08091C20080638093C200173071F0F5
:1025F000183018F4163099F405C0183059F0193015
:1026000071F408C08091C200826007C08091C2004E
:10261000846003C08091C20086608093C20082E023
:10262000B81629F48091C20088608093C20091306E
:1026300021F482E08093C00002C01092C00080911B
:10264000C6008091C00087FDFACF8091C000806CE9
:102650008093C000AFBE88E594E060E374E040E2A0
:102660000E94DC1580E594E060E674E041E00E94A1
:10267000DC151F910F91FF90EF90DF90CF90BF90EE
:10268000AF9008958091C10085FDFCCF88E594E06E
:1026900060E374E040E20E94DC1508952091670435
:1026A0003091680480918104909182042817390741
:1026B00080F42091670430916804809181049091A6
:1026C000820490936804809367043093820420937B
:1026D0008104209167043091680480918104909175
:1026E00082042817390749F480918104909182046B
:1026F0000A96909368048093670420916D0430914A
:102700006E04C90153E0880F991F5A95E1F7220F13
:10271000331F820F931FA0E0B0E08093700490936A
:102720007104A0937204B09373048091810490911A
:102730008204A0E0B0E08093690490936A04A093BF
:102740006B04B0936C0480916704909168042091AD
:10275000810430918204821B930BA0E0B0E080934F
:10276000630490936404A0936504B0936604089591
:10277000A2E0B0E0EEEBF3E10C947725CE010196F8
:102780006CE070E042E050E00E94992999818091CC
:102790007404981729F49A8180917504981741F070
:1027A00084E794E06CE070E042E050E00E94AF29E2
:1027B000CE0101966EE070E042E050E00E9499295F
:1027C000998180918304981729F49A8180918404D7
:1027D000981741F083E894E06EE070E042E050E04A
:1027E0000E94AF292296E2E00C949325A7E0B0E086
:1027F000ECEFF3E10C9475250E944E1380E090E01D
:102800006EEE7EEE0E94C729CE01019662E070E076
:1028100041E050E00E949929998180917E049817A7
:1028200041F08EE794E062E070E041E050E00E9409
:10283000AF29CE01019664E070E041E050E00E94D3
:102840009929998180916104981741F081E694E07B
:1028500064E070E041E050E00E94AF29CE010496B0
:1028600066E070E044E050E00E9499299C818091EC
:102870007604981779F49D8180917704981751F424
:102880009E8180917804981729F49F818091790422
:10289000981741F086E794E066E070E044E050E08D
:1028A0000E94AF29CE0102966AE070E042E050E05B
:1028B0000E9499299A8180916D04981729F49B812F
:1028C00080916E04981741F08DE694E06AE070E024
:1028D00042E050E00E94AF29CE01019660E170E035
:1028E00041E050E00E949929998180917F049817D6
:1028F00041F08FE794E060E170E041E050E00E9439
:10290000AF29CE01019662E170E041E050E00E9403
:102910009929998180916204981741F082E694E0A8
:1029200062E170E041E050E00E94AF29CE010196E3
:1029300064E170E041E050E00E9499299981809122
:102940006F04981741F08FE694E064E170E041E095
:1029500050E00E94AF29CE01029666E170E042E0AD
:1029600050E00E9499299A8180918104981729F456
:102970009B8180918204981741F081E894E066E1A0
:1029800070E042E050E00E94AF29CE01029668E17B
:1029900070E042E050E00E9499299A81809167049A
:1029A000981729F49B8180916804981741F087E675
:1029B00094E068E170E042E050E00E94AF298E01AF
:1029C0000C5F1F4FC8016CE170E044E050E00E94D2
:1029D000992920E030E0A801FA01E20FF31FD901A4
:1029E000A658BB4F90818C91981731F42F5F3F4FC1
:1029F0002430310589F708C08AE794E06CE170E083
:102A000044E050E00E94AF29CE01019660E270E000
:102A100041E050E00E9499299981809180049817A3
:102A200041F080E894E060E270E041E050E00E9414
:102A3000AF292796E4E00C9491258DE780937E04DE
:102A400080E18093610480E092ECA1E0B0E08093AB
:102A5000760490937704A0937804B093790489E185
:102A600090E090936E0480936D048AE090E09093E0
:102A700075048093740410927F0488EE93E0909321
:102A800084048093830480E090E8A5EFB3E480930E
:102A90007A0490937B04A0937C04B0937D0481E03E
:102AA000809380041092620410926F0484E690E098
:102AB000909382048093810484EC99E0909368045D
:102AC000809367040E944E130E94F613089580E0DD
:102AD00090E00E94A9298E5E9E4E19F00E941D155D
:102AE00068C08EE794E062E070E041E050E00E9450
:102AF000992981E694E064E070E041E050E00E94B2
:102B0000992986E794E066E070E044E050E00E9496
:102B100099298DE694E06AE070E042E050E00E947E
:102B2000992984E794E06CE070E042E050E00E9474
:102B3000992983E894E06EE070E042E050E00E9462
:102B400099298FE794E060E170E041E050E00E9455
:102B5000992982E694E062E170E041E050E00E9451
:102B600099298FE694E064E170E041E050E00E9432
:102B7000992981E894E066E170E042E050E00E942B
:102B8000992987E694E068E170E042E050E00E9415
:102B900099298AE794E06CE170E044E050E00E94FB
:102BA000992980E894E060E270E041E050E00E9402
:102BB00099290E944E130895FC0110827583648345
:102BC000738362834183478346830895FC01908128
:102BD0008181981710F080E00895A481B5816D93EC
:102BE0008781815019F48181A81BB1098783B5833E
:102BF000A4839FB7F89480818F5F80839FBF81E01B
:102C00000895FC0180818823E9F3A281B3812D918D
:102C10008681815019F48181A81BB109B383A283F5
:102C200086839FB7F8948081815080839FBF822FD5
:102C30000895FC018081882319F42FEF3FEF13C022
:102C4000A281B3812D918681815019F48181A81BC5
:102C5000B109B383A28386839FB7F89480818150A2
:102C600080839FBF30E0C90108950F980E980D989A
:102C7000079B02C093E001C090E0069B02C081E088
:102C80009827909305041092860410928504089565
:102C90002091850430918604C901837090709093CF
:102CA0008604809385043595279535952795C90128
:102CB0000895079B03C043E050E002C040E050E0AD
:102CC000069B04C081E090E04827592780910504C5
:102CD000282F332727FD3095241B350B20FF0FC0ED
:102CE0004093050480918504909186040197227099
:102CF0003070820F931F909386048093850408950B
:102D0000CF93DF93DC01562FE0910E04F0910F0476
:102D100005990AC0CF01880F991F33E0EE0FFF1FFE
:102D20003A95E1F7E80FF91F1E161F064CF42E9F87
:102D3000802D11249C91890F8C93481718F123C082
:102D4000309721F14C91622F70E0242F30E08827DA
:102D500099278E1B9F0BEC01C69FC001C79F900D4A
:102D6000D69F900D1124850F911D2817390714F453
:102D70005C9309C0E69FC001E79F900DF69F900D00
:102D80001124480F4C9381E080931204DF91CF917E
:102D90000895CF93DF93DC01562FE0910E04F0915C
:102DA0000F0405990AC0CF01880F991F73E0EE0F39
:102DB000FF1F7A95E1F7E80FF91F1E161F064CF466
:102DC0002E9F802D11249C91890F8C93481718F108
:102DD00023C0309721F14C91622F70E0242F30E016
:102DE000882799278E1B9F0BEC01C69FC001C79FA8
:102DF000900DD69F900D1124850F911D281739072E
:102E000014F45C9309C0E69FC001E79F900DF69F04
:102E1000900D1124480F4C9381E080931204DF91B0
:102E2000CF910895A1E0B0E0E8E1F7E10C947525B9
:102E30008C011982FC0180819181A281B38180384B
:102E4000F0E79F07F0E0AF07F0E0BF0709F478C0B4
:102E5000813820E7920720E0A20720E0B20788F53A
:102E6000803CE2E19E07E0E0AE07E0E0BE0709F447
:102E700061C0813CF2E19F07F0E0AF07F0E0BF07DF
:102E800080F4803B24E0920720E0A20720E0B20714
:102E900009F44CC080569940A040B04009F05EC093
:102EA00047C08034F8E39F07F0E0AF07F0E0BF07CA
:102EB00009F442C080509B44A040B04009F04EC08D
:102EC0003DC08030F4EF9F07F1E0AF07F0E0BF07AF
:102ED00009F43CC0813024EF920721E0A20720E0F2
:102EE000B20770F48030E1EE9E07E0E0AE07E0E06C
:102EF000BE0741F18050924CA140B04079F524C00A
:102F0000803221EA920727E0A20720E0B20711F100
:102F10008034E2E49E07EFE0AE07E0E0BE07E1F0B8
:102F20008059904DA340B040C9F412C0198218C016
:102F300081E015C082E013C084E011C085E00FC0BD
:102F400086E00DC087E00BC088E009C089E007C0BB
:102F50008AE005C08BE003C08CE001C083E0898378
:102F6000CE01019660E04CE021E00E94C916898103
:102F7000E82FF0E0ED30F10508F049C0E25CFF4FCA
:102F80000C949E2580EB94E0A0E0B0E03BC080E68E
:102F900099E0A0E0B0E036C080EC92E1A0E0B0E0C3
:102FA00031C080E895E2A0E0B0E02CC080E498E376
:102FB000A0E0B0E027C080E09BE4A0E0B0E022C049
:102FC00080E890E7A0E0B0E01DC080E091EEA0E0D6
:102FD000B0E018C080E092ECA1E0B0E013C080E067
:102FE00094EFA1E0B0E00EC080E990EDA3E0B0E086
:102FF00009C080E291EAA7E0B0E004C080E492E476
:10300000AFE0B0E0F80180839183A283B38321967F
:10301000E4E00C949125CF93DF93DC01E0910E0462
:10302000F0910F0405990BC0CF01880F991FEE0F87
:10303000FF1FEE0FFF1FEE0FFF1FE80FF91F1E16F9
:103040001F06ACF4E29FC001E39F900DF29F900D2C
:1030500011242D913C911197820F931F11969C93EF
:103060008E934817590718F54D935C9320C03097FD
:1030700009F14D915C911197E29FC001E39F900D82
:10308000F29F900D1124EB01C81BD90B4C175D0763
:1030900018F46D937C930BC0E29FC001E39F900DE9
:1030A000F29F900D1124840F951F8D939C9381E0C6
:1030B00080931204DF91CF910895CF93DF93DC01C9
:1030C000E0910E04F0910F0405990BC0CF01880F19
:1030D000991FEE0FFF1FEE0FFF1FEE0FFF1FE80FF0
:1030E000F91F1E161F06ACF4E29FC001E39F900D6E
:1030F000F29F900D11242D913C911197820F931FF7
:1031000011969C938E93481759071CF54D935C9329
:1031100020C0309709F14D915C911197E29FC00159
:10312000E39F900DF29F900D1124EB01C81BD90B6A
:103130004C175D071CF46D937C930BC0E29FC0019C
:10314000E39F900DF29F900D1124840F951F8D9396
:103150009C9381E080931204DF91CF910895A0E0C9
:10316000B0E0E5EBF8E10C946725EC011A012B01C6
:10317000380149015601670160910E0470910F04F6
:10318000882777FD8095982F0E9497237B018C01DB
:10319000059908C020E030E040E251E40E944B2451
:1031A0007B018C01C801B70120E030E040E050E035
:1031B0000E9447241816DCF4C801B701A601950146
:1031C0000E944B24288139814A815B810E94992287
:1031D000688379838A839B83A40193010E94472497
:1031E0001816DCF5688279828A829B8236C0C80113
:1031F000B70120E030E040E050E00E94FD2288234B
:103200007CF5688079808A809B80C801B7019058DE
:10321000A60195010E944B24A20191010E949922CE
:103220009B01AC01C401B3010E94FD2288232CF450
:10323000288239824A825B8210C0C801B701A60188
:1032400095010E944B249B01AC01C401B3010E9473
:103250009922688379838A839B8381E08093120417
:10326000CDB7DEB7E2E10C9483250F931F93CF9384
:10327000DF930197C1F51092060400D000D0809131
:10328000870490918804EDB7FEB7928381838FE223
:1032900093E0948383830E94A52881E080931204A5
:1032A0000F900F900F900F900E94F613C0E0D0E0A7
:1032B00008EB10E080E00E948F0E82EE94E0F801AF
:1032C0003197F1F70197D9F780917E040E948F0E14
:1032D00082EE94E0F8013197F1F70197D9F7219642
:1032E000C430D10539F7DF91CF911F910F91089527
:1032F0001092120480910804909109048B5F9F4FF3
:1033000030F081E090E0909309048093080480916C
:103310000A0490910B048B5F9F4F30F081E090E0A6
:1033200090930B0480930A0480910C0490910D04F7
:103330008B5F9F4F30F081E090E090930D0480937D
:103340000C0401990AC08091080490910904019627
:10335000909309048093080404C010920904109209
:103360000804059B0AC080910A0490910B04019601
:1033700090930B0480930A0404C010920B041092E3
:103380000A0435990AC080910C0490910D040196AD
:1033900090930D0480930C0404C010920D041092BD
:1033A0000C040E944816909581959F4F90930F04AE
:1033B00080930E0480910E0490910F04892B19F0D4
:1033C00081E0809312048091080490910904019790
:1033D00061F4809107048F5F8093070481E08093FC
:1033E000120410920F0410920E0480910A0490911E
:1033F0000B04019719F481E08093120480910C046E
:1034000090910D04019741F480910C0490910D046A
:103410000E94351910920604809107048E3018F02E
:1034200081E08093070408950F931F93CF93DF9358
:1034300080910A0490910B040197B1F50E941D152B
:1034400081E08093120400D000D080918704909195
:103450008804EDB7FEB79283818382E593E094837D
:1034600083830E94A528C0E0D0E00F900F900F90BA
:103470000F9008EB10E080E00E948F0E82EE94E047
:10348000F8013197F1F70197D9F780917E040E94F6
:103490008F0E82EE94E0F8013197F1F70197D9F79A
:1034A0002196C430D10539F7DF91CF911F910F914B
:1034B0000895CF92DF92EF92FF920F931F9390E0C7
:1034C000FC013197ED30F10508F01CC2E55BFF4FC0
:1034D0000C949E258DE694E060E070E040ED57E0AE
:1034E00021E030E00E945D180E94111020916D04CF
:1034F00030916E0400D000D000D0EDB7FEB7319609
:103500008091870490918804ADB7BEB712969C93C2
:103510008E93119782EA92E06CC08AE794E040E0D3
:1035200050E068E473E400E010E02AEF34E40F2E8A
:10353000FDECCF2EFCECDF2EFCECEF2EFDE3FF2E9E
:10354000F02D0E94AF180E94111020917A04309142
:103550007B0440917C0450917D048DB79EB7089701
:103560000FB6F8949EBF0FBE8DBFEDB7FEB7319674
:103570008091870490918804ADB7BEB712969C9352
:103580008E9311978DEB92E093838283248335830E
:10359000468357830E949128EDB7FEB738960FB641
:1035A000F894FEBF0FBEEDBFADC18FE794E060E0C1
:1035B00041E021E00E9480160E9411104091870492
:1035C0005091880480917F04882319F025ED32E022
:1035D00002C028ED32E000D000D000D0EDB7FEB739
:1035E0003196ADB7BEB712965C934E9311978CEDA2
:1035F00092E093838283358324830E949128EDB7E0
:10360000FEB73696CCCF82E694E060E041E021E060
:103610000E9480160E9411104091870450918804E6
:1036200080916204882319F025ED32E002C028ED74
:1036300032E000D000D000D0EDB7FEB73196ADB784
:10364000BEB712965C934E9311978AEF92E0D1CF5A
:1036500081E894E060E070E040E05AE025E030E08E
:103660000E940B180E941110209181043091820455
:1036700000D000D000D0EDB7FEB73196809187041E
:1036800090918804ADB7BEB712969C938E93119714
:103690008CE193E0AECF87E694E060E070E040E03C
:1036A0005AE025E030E00E940B180E941110209192
:1036B00067043091680400D000D000D0EDB7FEB7A9
:1036C00031968091870490918804ADB7BEB7129669
:1036D0009C938E9311978BE393E08BCF8FE694E0CE
:1036E00060E041E021E00E9480160E9411104091AC
:1036F00087045091880480916F04882319F025ED88
:1037000032E002C028ED32E000D000D000D0EDB7AA
:10371000FEB73196ADB7BEB712965C934E93119734
:103720008AE593E066CF80E894E060E041E021E044
:103730000E9480160E9411104091870450918804C5
:1037400080918004882319F028E733E002C02CE739
:1037500033E000D000D000D0EDB7FEB73196ADB762
:10376000BEB712965C934E9311978FE793E041CFCB
:1037700086E794E00E9412170E94111020917604AF
:103780003091770440917804509179048DB79EB7B9
:1037900008970FB6F8949EBF0FBE8DBFEDB7FEB76A
:1037A00031968091870490918804ADB7BEB7129688
:1037B0009C938E93119780EA93E093838283248372
:1037C000358346835783E6CE81E694E060E040E4AB
:1037D00021E00E94C9160E9411102091610400D0BE
:1037E00000D000D0EDB7FEB731968091870490915C
:1037F0008804ADB7BEB712969C938E93119782EB57
:1038000093E093838283248315820E949128809180
:103810006104EDB7FEB736960FB6F894FEBF0FBE43
:10382000EDBF0E94F80F6EC08EE794E060E04FEFAE
:1038300025E00E94C9160E94111020917E0400D03C
:1038400000D000D0EDB7FEB73196809187049091FB
:103850008804ADB7BEB712969C938E93119787ECF0
:1038600093E093838283248315820E949128809120
:103870007E04EDB7FEB736960FB6F894FEBF0FBEC6
:10388000EDBF0E948F0E3EC00E94141A0E941110BC
:1038900000D000D08091870490918804ADB7BEB766
:1038A00012969C938E93119784E193E014969C93C7
:1038B0008E9313970E94A52880917E040F900F90FD
:1038C0000F900F900E948F0E3EC080910A0490913D
:1038D0000B040E9435190E94111000D000D0809175
:1038E000870490918804EDB7FEB7928381838EEEB2
:1038F00092E0948383830E94A5280F900F900F90ED
:103900000F9021C080E063E00E9468108DED93E08D
:103910000E94E51087E063E00E94681081EE93E06A
:103920000E94E5108BE063E00E94681083EE93E054
:103930000E94E510109212041F910F91FF90EF90DA
:10394000DF90CF90089580E063E00E94681085EEDC
:1039500093E00E94E51087E063E00E9468108AEE21
:1039600093E0DECF1F939093880480938704109296
:1039700009041092080411E0109306041093070440
:1039800081E06EEC72E00E94151182E066ED72E05B
:103990000E94151183E06EED72E00E94151184E023
:1039A0006EED72E00E9415110E9419100E94111014
:1039B00010931204809107040E94591A80B108C024
:1039C00080911204813021F4809107040E94591AD9
:1039D000809106048130A1F31092060480911004B6
:1039E00090911104892B49F0E0911004F091110499
:1039F00009950E9419100E9411101F910895982F87
:103A00008091C80085FFFCCF9093CE0081E090E0CC
:103A100008951F920F920FB60F9211242F938F9338
:103A20009F93EF93FF932091CE009091A9048091F2
:103A3000AA049817D8F4E091AD04F091AE04219354
:103A40008091B004815021F48091AA04E81BF1090F
:103A50008093B004F093AE04E093AD049FB7F89464
:103A60008091A9048F5F8093A9049FBFFF91EF917C
:103A70009F918F912F910F900FBE0F901F901895CF
:103A80001F920F920FB60F9211242F938F939F9333
:103A9000EF93FF938091B1048823F1F0E091B30498
:103AA000F091B40421918091B704815021F4809168
:103AB000B204E81BF109F093B404E093B3048093DB
:103AC000B7049FB7F8948091B10481508093B104FA
:103AD0009FBF2093CE0005C08091C9008F7D809349
:103AE000C900FF91EF919F918F912F910F900FBE81
:103AF0000F901F901895FC0194913196992339F0FD
:103B00008091C80085FFFCCF9093CE00F5CF08953B
:103B1000982F8091C80085FFFCCF9093CE0080E065
:103B200090E00895FC0190818091C80085FFFCCF52
:103B30009093CE00992311F03196F5CF089589EA3C
:103B400094E00E940116089589EA94E00E9401160B
:103B500090E0089589EA94E00E9419160895AF92C2
:103B6000BF92CF92DF92EF92FF920F931F936B0160
:103B70007C01142FB22EAFB680E0C81686E9D806B5
:103B800080E0E80680E0F80609F4AEC081E0C816DF
:103B900086E9D80680E0E80680E0F80608F047C02D
:103BA00080E8C81685E2D80680E0E80680E0F806DE
:103BB00009F492C081E8C81685E2D80680E0E806DC
:103BC00080E0F806A8F480E6C81689E0D80680E010
:103BD000E80680E0F80609F477C080ECC81682E1B8
:103BE000D80680E0E80680E0F80609F091C06EC0D3
:103BF00080E0C8168BE4D80680E0E80680E0F8068E
:103C000009F46EC080E8C81680E7D80680E0E806B0
:103C100080E0F80609F466C080E4C81688E3D80698
:103C200080E0E80680E0F80609F072C057C080E046
:103C3000C81684E8D80683E0E80680E0F80609F4B0
:103C40005BC081E0C81684E8D80683E0E80680E01F
:103C5000F806F0F480E0C8168CE2D80681E0E806A9
:103C600080E0F80609F444C080E0C81682ECD8066B
:103C700081E0E80680E0F806E9F180E0C81681EE10
:103C8000D80680E0E80680E0F80609F041C02EC0C2
:103C900080E2C81681EAD80687E0E80680E0F806E8
:103CA00069F180E4C81682E4D8068FE0E80680E077
:103CB000F80641F180E9C81680EDD80683E0E806F1
:103CC00080E0F80629F518C08FEB01C08FE58093DE
:103CD000CC001092CD003AC08FE2F9CF8FE1F7CF40
:103CE00087E1F5CF8FE0F3CF8BE0F1CF87E0EFCF27
:103CF00085E0EDCF83E0EBCF81E0E9CF81E08093F9
:103D0000CC0002C01092CC001092CD0091E01FC0F8
:103D1000C701B6016050704F814F9F4F33E0660F6F
:103D2000771F881F991F3A95D1F724E0CC0CDD1C32
:103D3000EE1CFF1C2A95D1F7A70196010E942A25A7
:103D4000215030402093CC003093CD0090E0F89487
:103D500088E98093C900013019F0023051F404C0A1
:103D60008091CA00806203C08091CA008063809302
:103D7000CA00173071F0183018F4163099F405C0E5
:103D8000183059F0193071F408C08091CA0082606F
:103D900007C08091CA00846003C08091CA00866019
:103DA0008093CA0082E0B81629F48091CA00886026
:103DB0008093CA00913021F482E08093C80002C051
:103DC0001092C8008091CE008091C80087FDFACF84
:103DD0008091C800806C8093C800AFBE89EA94E0EF
:103DE00069E874E040E20E94DC1581EB94E069EB45
:103DF00074E040E20E94DC151F910F91FF90EF905C
:103E0000DF90CF90BF90AF9008958091C90085FD5D
:103E1000FCCF89EA94E069E874E040E20E94DC1596
:103E20000895A1E1B0E0E7E1FFE10C9467253C01D2
:103E30007F876E876A01FC0117821682838181FD6C
:103E400003C06FEF7FEF6FC39E012F5F3F4F398B32
:103E5000288BF3012381EE85FF8523FD859123FFC8
:103E60008191FF87EE87882309F45AC3853251F484
:103E7000EE85FF8523FD859123FF8191FF87EE87E6
:103E8000853229F490E0B3010E94C228E2CF982F36
:103E900010E0882499241032B0F49B3269F09C32EF
:103EA00028F4903251F0933271F40BC09D3239F006
:103EB000903349F4116028C01260146025C0186066
:103EC00023C0106121C017FD2AC0892F80538A307A
:103ED00078F416FF06C0FAE09F9E902C1124980EED
:103EE00013C03AE0839E802C1124880E10620CC00F
:103EF0009E3221F416FD14C3106406C09C3611F4E2
:103F0000106802C0983659F4EE85FF8523FD95911F
:103F100023FF9191FF87EE87992309F0BCCF892F6A
:103F20008554833020F4812F8061905E07C0892FF3
:103F30008556833008F09FC1812F8F7E86FD02C099
:103F400076E0972E6FE3F62EF822953619F4F0E41A
:103F5000FF2A07C0963619F420E8F22A02C0911011
:103F60009A94F7FE0AC03BE3391518F45CE3B52ECA
:103F700002C0B92CB39427E009C047E0491520F4EA
:103F8000BB2447E0942EF7CF292DBB24C60104960D
:103F90009D878C87F6016081718182819381AE015A
:103FA0004F5F5F4F0B2D0E9426276C010981202E49
:103FB000332400FF04C003FD02C01DE209C0F1FE6E
:103FC00002C01BE205C0F2FC02C010E001C010E21A
:103FD000C1018C709070892BB9F1112311F483E029
:103FE00001C084E0881510F088240AC0881AF3FC08
:103FF00007C080E290E0B3010E94C2288A94C9F70A
:10400000112329F0812F90E0B3010E94C22823FEE2
:1040100003C002E913E00EC006E913E00BC0E1148F
:10402000F10409F0805290E0B3010E94C2280F5FB2
:104030001F4F05C0EF2CFF24F0E1EF22FF24F80111
:104040008491882361F714C1F7FE12C0BC0C24FED2
:1040500004C08A81813309F4BA941B141CF0BB2478
:10406000B3942DC0F8E0FB1550F538E0B32E27C00F
:10407000F6FC25C0892D90E08C159D054CF02CEFA9
:10408000C2162FEFD20624F030E8F32A01C09A942A
:10409000992049F0E2E0F0E0EC0FFD1FE90DF11D81
:1040A00080818033A1F3F7FE0AC0B92CB394892D27
:1040B00090E0C816D90614F0992401C09C18F7FCAA
:1040C00003C025E030E009C01C141D041CF021E0F1
:1040D00030E003C096012F5F3F4F112311F02F5F97
:1040E0003F4F992029F0892D90E00196280F391F24
:1040F000882D90E02817390714F0882401C0821A0F
:104100004F2C5524C20189709070892B39F008C05A
:1041100080E290E0B3010E94C2288A948820C1F70F
:10412000112329F0812F90E0B3010E94C22843FEA1
:1041300007C008C080E390E0B3010E94C2288A94BF
:104140008820C1F7F7FE46C08601D7FE02C000E016
:1041500010E076010894E11CF11CE01AF10A41E03C
:1041600050E04C0F5D1FE40EF51E26014B18510860
:10417000892D90E0AA24BB24A81AB90A5FEF0F3F4B
:10418000150729F48EE290E0B3010E94C228C01600
:10419000D10634F0401651061CF4F701808101C0AD
:1041A00080E3015010400894E11CF11C0A151B0526
:1041B0002CF090E0B3010E94C228E0CF0C151D0541
:1041C00039F49A81963318F4953311F424FE81E37F
:1041D00090E04BC08A81813309F00F7E90E0B301FB
:1041E0000E94C2289920A1F08EE290E0B3010E94C3
:1041F000C22812E0E1E0F0E0EC0FFD1FE10FF11D3D
:104200001F5F808190E0B3010E94C2289A9491F7C9
:1042100044FC03C085E690E002C085E490E0B30171
:104220000E94C228D7FC05C0C114D10441F404FF88
:1042300006C0D094C194D108D3948DE201C08BE222
:1042400090E0B3010E94C22880E305C08F5F26EF93
:104250003FEFC20ED31E3AE0C316D104BCF790E084
:10426000B3010E94C228C601C096B3010E94C228B1
:10427000CC84DD8452C1933631F0933799F0933575
:1042800009F059C023C0F601808189835E0108943A
:10429000A11CB11C22E030E0C20ED31E21E0E22EB0
:1042A000F12C12C0F601A080B18016FD03C06FEFA3
:1042B0007FEF02C0692D70E022E030E0C20ED31E15
:1042C000C5010E9432287C011F7713C0F601A0802F
:1042D000B18016FD03C06FEF7FEF02C0692D70E063
:1042E00022E030E0C20ED31EC5010E9427287C01C7
:1042F000106813FF07C01BC080E290E0B3010E946A
:10430000C2288A94882D90E0E816F906A8F30FC019
:10431000F50117FD859117FF81915F0190E0B301D1
:104320000E94C22881108A940894E108F108E114DF
:10433000F10471F7F2C0943611F0993689F517FF40
:1043400008C0F601208131814281538184E090E0F0
:104350000AC0F601808191819C01442737FD409578
:10436000542F82E090E0C80ED91E9FE6F92EF1226C
:1043700057FF09C050954095309521953F4F4F4FBD
:104380005F4F90E8F92ACA01B901AE014F5F5F4F54
:104390002AE030E00E943B29E82EE889EE1A41C06D
:1043A000953721F41F7E2AE030E01CC0197F9F362C
:1043B00061F0903720F4983509F0B2C00FC0903703
:1043C00039F0983709F0ACC004C028E030E00AC0EA
:1043D000106114FD146020E130E004C014FD16608B
:1043E00020E132E017FF08C0F6016081718182810F
:1043F000938144E050E008C0F60180819181BC01C6
:1044000080E090E042E050E0C40ED51EAE014F5F68
:104410005F4F0E943B29E82E5889E51A8FE7F82E56
:10442000F122F6FE0BC08EEFF822E91438F4F4FE08
:1044300007C0F2FC05C09FEEF92202C01E2D01C08C
:10444000192DF4FE0DC0FE01EE0DF11D80818033AB
:1044500019F4E9EEFE2208C01F5FF2FE05C003C09A
:104460008F2D867809F01F5F0F2DF3FC14C0F0FE2E
:104470000FC0181510F09E2C0BC09E2C980C911A92
:10448000182D06C080E290E0B3010E94C2281F5F91
:104490001815C0F304C0181510F4811A01C088243F
:1044A00004FF0FC080E390E0B3010E94C22802FF26
:1044B0001DC001FD03C088E790E00EC088E590E0D4
:1044C0000BC0802F867891F001FF02C08BE201C003
:1044D00080E2F7FC8DE290E0B3010E94C22806C0A2
:1044E00080E390E0B3010E94C2289A94E914C0F3DB
:1044F000EA94E1E0F0E0EC0FFD1FEE0DF11D80818C
:1045000090E0B3010E94C228EE2091F706C080E23D
:1045100090E0B3010E94C2288A948820C1F799CC08
:10452000F30166817781CB016196E2E10C948325EA
:104530005058BB27AA270ED070C161D130F066D188
:1045400020F031F49F3F11F41EF456C10EF4E095B3
:10455000E7FB4CC1E92F72D180F3BA1762077307EA
:104560008407950718F071F49EF58AC10EF4E09562
:104570000B2EBA2FA02D0B01B90190010C01CA011D
:10458000A0011124FF27591B99F0593F50F4503EC8
:1045900068F11A16F040A22F232F342F4427585FBA
:1045A000F3CF469537952795A795F0405395C9F7D2
:1045B0007EF41F16BA0B620B730B840BBAF091508A
:1045C000A1F0FF0FBB1F661F771F881FC2F70EC029
:1045D000BA0F621F731F841F48F4879577956795FC
:1045E000B795F7959E3F08F0B3CF9395880F08F0E5
:1045F0009927EE0F979587950895D4D008F481E018
:1046000008950CD00AC102D140F0F9D030F021F465
:104610005F3F19F0EBC0511134C1EEC00FD198F3D8
:104620009923C9F35523B1F3951B550BBB27AA2733
:1046300062177307840738F09F5F5F4F220F331FA5
:10464000441FAA1FA9F333D00E2E3AF0E0E830D071
:1046500091505040E695001CCAF729D0FE2F27D074
:10466000660F771F881FBB1F261737074807AB0742
:10467000B0E809F0BB0B802DBF01FF2793585F4FB7
:104680002AF09E3F510568F0B1C0FBC05F3FECF3DC
:10469000983EDCF3869577956795B795F7959F5F7C
:1046A000C9F7880F911D9695879597F90895E1E0D0
:1046B000660F771F881FBB1F621773078407BA072F
:1046C00020F0621B730B840BBA0BEE1F88F7E0958A
:1046D0000895BCD088F09F5790F0B92F9927B75113
:1046E000A0F0D1F0660F771F881F991F1AF0BA95B6
:1046F000C9F712C0B13081F0C3D0B1E00895C0C095
:10470000672F782F8827B85F39F0B93FCCF38695AB
:1047100077956795B395D9F73EF490958095709508
:1047200061957F4F8F4F9F4F0895E89409C097FB85
:104730003EF490958095709561957F4F8F4F9F4F78
:104740009923A9F0F92F96E9BB279395F6958795BC
:1047500077956795B795F111F8CFFAF4BB0F11F47F
:1047600060FF1BC06F5F7F4F8F4F9F4F16C0882326
:1047700011F096E911C0772321F09EE8872F762F5C
:1047800005C0662371F096E8862F70E060E02AF09D
:104790009A95660F771F881FDAF7880F9695879589
:1047A00097F90895990F0008550FAA0BE0E8FEEF5E
:1047B00016161706E807F907C0F012161306E407E5
:1047C000F50798F0621B730B840B950B39F40A26DE
:1047D00061F0232B242B252B21F408950A2609F4BC
:1047E000A140A6958FEF811D811D089597F99F67C0
:1047F00080E870E060E008959FEF80EC0895002469
:104800000A941616170618060906089500240A9435
:1048100012161306140605060895092E0394000CBB
:1048200011F4882352F0BB0F40F4BF2B11F460FF4A
:1048300004C06F5F7F4F8F4F9F4F089557FD905873
:10484000440F551F59F05F3F71F04795880F97FB54
:10485000991F61F09F3F79F087950895121613060E
:104860001406551FF2CF4695F1DF08C0161617063D
:104870001806991FF1CF8695710561050894089572
:10488000E894BB2766277727CB0197F908958ADF3D
:1048900008F48FEF08950BD0C0CFB1DF28F0B6DF5A
:1048A00018F0952309F0A2CFA7CF1124EACFC6DFD5
:1048B000A0F3959FD1F3950F50E0551F629FF00133
:1048C000729FBB27F00DB11D639FAA27F00DB11D8C
:1048D000AA1F649F6627B00DA11D661F829F222715
:1048E000B00DA11D621F739FB00DA11D621F839F9C
:1048F000A00D611D221F749F3327A00D611D231F72
:10490000849F600D211D822F762F6A2F11249F57BF
:1049100050408AF0E1F088234AF0EE0FFF1FBB1FE2
:10492000661F771F881F91505040A9F79E3F510581
:1049300070F05CCFA6CF5F3FECF3983EDCF386953A
:1049400077956795B795F795E7959F5FC1F7FE2B2C
:10495000880F911D9695879597F9089577DFE0F078
:104960009E37D8F09639B8F49E3848F4672F782FE0
:104970008827985FF9CF86957795679593959539B0
:10498000D0F3B62FB1706B0F711D811D20F4879588
:1049900077956795939502C01CC073CF882371F4F7
:1049A000772321F09850872B762F07C0662311F4C8
:1049B00099270DC09051862B70E060E02AF09A95FF
:1049C000660F771F881FDAF7880F9695879597F9F6
:1049D00008959F3F31F0915020F487957795679522
:1049E000B795880F911D9695879597F90895629FC1
:1049F000D001739FF001829FE00DF11D649FE00DD7
:104A0000F11D929FF00D839FF00D749FF00D659F37
:104A1000F00D9927729FB00DE11DF91F639FB00D36
:104A2000E11DF91FBD01CF0111240895AA1BBB1B75
:104A300051E107C0AA1FBB1FA617B70710F0A61B9E
:104A4000B70B881F991F5A95A9F780959095BC01BF
:104A5000CD010895A1E21A2EAA1BBB1BFD010DC0BA
:104A6000AA1FBB1FEE1FFF1FA217B307E407F5071E
:104A700020F0A21BB30BE40BF50B661F771F881FFA
:104A8000991F1A9469F760957095809590959B0190
:104A9000AC01BD01CF01089597FB092E05260ED06C
:104AA00057FD04D0D7DF0AD0001C38F4509540954C
:104AB000309521953F4F4F4F5F4F0895F6F79095F2
:104AC0008095709561957F4F8F4F9F4F08952F92DE
:104AD0003F924F925F926F927F928F929F92AF928E
:104AE000BF92CF92DF92EF92FF920F931F93CF93DB
:104AF000DF93CDB7DEB7CA1BDB0B0FB6F894DEBF72
:104B00000FBECDBF09942A88398848885F846E8497
:104B10007D848C849B84AA84B984C884DF80EE80E1
:104B2000FD800C811B81AA81B981CE0FD11D0FB6EA
:104B3000F894DEBF0FBECDBFED010895EE0FFF1F4D
:104B40000590F491E02D0994A0E0B0E0EAEAF5E2E6
:104B50000C946D25EC015B016115710519F0FB01E9
:104B600091838083F9908F2D90E00E94FE27892BFE
:104B7000C9F7FDE2FF1621F4F990EE24E39405C095
:104B80002BE2F21609F4F990EE248E010150104048
:104B9000C8016AE973E043E050E00E940F28892BC6
:104BA00001F58E010E5F1F4FC8016DE973E045E00E
:104BB00050E00E940F28892B19F48E01095F1F4FC6
:104BC000A114B10419F0F50111830083E0FC04C0C5
:104BD00070E090E080E814C070E090E080E86FEF53
:104BE00008C1C80162EA73E043E050E00E940F2868
:104BF000892B69F4A114B10429F470E090E080ECF1
:104C00006FE7F7C02296F501D183C083F6CF8824E1
:104C1000992440E050E060E070E0EF2DE053EA308E
:104C2000A0F5F2E0EF2A8E2D90E09C012870307004
:104C3000E2FE06C0232B79F50894811C911C2BC041
:104C4000232B19F0089481089108DB01CA0112E0B6
:104C5000880F991FAA1FBB1F1A95D1F7480F591F1C
:104C60006A1F7B1F440F551F661F771F4E0F511D74
:104C7000611D711D483929E9520729E9620729E1B7
:104C8000720748F084E0E82A06C0EE3F31F4E3FC06
:104C900039C098E0E92AF990C0CFE53311F0E53149
:104CA00089F529912D3219F4E0E1EE2A05C02B3265
:104CB00019F081E090E003C0299182E090E0E22FBA
:104CC000E053EA3018F0C81BD90B1CC020E030E0DC
:104CD000FCE020383F075CF4C901880F991F880F5A
:104CE000991F280F391F220F331F2E0F311DE991F5
:104CF000E053EA3068F3E4FE03C0309521953F4F5E
:104D0000820E931ECE2CDD24E1FE07C0A114B10457
:104D100021F02197F501D183C083CB01BA010E9414
:104D200095237B018C01F3E0CF22DD2423E0C21622
:104D3000D10421F417FB109517F91095570168015C
:104D4000C801B70120E030E040E050E00E94FD22C1
:104D5000882309F44AC097FE0DC029EBE22E23E018
:104D6000F22E9094819491089394C0E2D0E000E0F8
:104D700010E012C091EDE92E93E0F92EF6CFF70185
:104D80002591359145915491C601B5010E944B245E
:104D90005B016C018C1A9D0A8C169D0684F7D595D3
:104DA000C7950F5F1F4F0630110529F08CEF9FEF5D
:104DB000E80EF91EF1CFC501D6017C018D018C2DC5
:104DC000880F8D2D881F8F3F51F0C601B50120E05F
:104DD00030E040E050E00E94FD22882331F482E27E
:104DE00090E09093E0048093DF047E2D9F2D802F30
:104DF000612F272F392F482F562FB901CA01CDB760
:104E0000DEB7ECE00C948925662777270C94A4255F
:104E1000FC0188279927E89421912032E9F3293071
:104E200010F02E30C8F32B3241F02D3239F4689453
:104E300004C00E943D28820F911D219120532A30E9
:104E4000C0F31EF4909581959F4F0895283008F087
:104E500027E03327DA01990F311D87FD9160009615
:104E60006105710539F432602E5F3D9330E32A9578
:104E7000E1F708959F3F30F080387105610509F032
:104E80003C5F3C5F3D93913008F08068911DDF935B
:104E9000CF931F930F93FF92EF92192F987F9695C0
:104EA000E92F96959695E90FFF27E15DFB4F99272E
:104EB0003327EE24FF24A701E70105900894079407
:104EC00028F4360FE71EF81E491F511D660F771F85
:104ED000881F991F0694A1F70590079428F4E70E00
:104EE000F81E491F561FC11D770F881F991F661F87
:104EF0000694A1F70590079428F4F80E491F561F51
:104F0000C71FD11D880F991F661F771F0694A1F731
:104F10000590079420F4490F561FC71FD81F990FFB
:104F2000661F771F881F0694A9F784911095177044
:104F300041F0D695C79557954795F794E7941A95FC
:104F4000C1F7E5EDF3E06894159015913591659101
:104F5000959105907FE27395E118F10A430B560B8A
:104F6000C90BD009C0F7E10CF11E431F561FC91F22
:104F7000D01D7EF4703311F48A95E6CFE894015089
:104F800030F0080F0AF40027021708F4202F2395A9
:104F9000022F7A3328F079E37D932A95E9F710C040
:104FA0007D932A9589F60694979567953795179579
:104FB0001794E118F10A430B560BC90BD00998F06E
:104FC00023957E9173957A3308F070E37C932013D8
:104FD000B8F77E9170617D9330F0839571E37D9396
:104FE00070E32A95E1F71124EF90FF900F911F9144
:104FF000CF91DF91992787FD909508959111EDC28A
:10500000803219F089508550D0F70895FB01DC01FA
:1050100002C005900D9241505040D8F70895FB0111
:10502000DC014150504088F08D9181341CF08B356B
:105030000CF4805E659161341CF06B350CF4605E9D
:10504000861B611171F3990B0895881BFCCFFC013D
:105050000590615070400110D8F7809590958E0FA3
:105060009F1F0895FC016150704001900110D8F716
:10507000809590958E0F9F1F08957AE0979F902DB1
:10508000879F802D910D112408950F931F93CF9327
:10509000DF938C01EB01009731F46115710519F470
:1050A00020E030E038C081E090E06EE070E00E94E7
:1050B000CC29FC019C01009771F180E88383209743
:1050C00071F0D387C28781E883838091D90490915E
:1050D000DA04892B21F4F093DA04E093D904011562
:1050E0001105C9F0118700878381826083838091D5
:1050F000DB049091DC04892B71F4F093DC04E093E1
:10510000DB048091DD049091DE04892B21F4F0937F
:10511000DE04E093DD04C901DF91CF911F910F916F
:105120000895A0E0B0E0E7E9F8E20C9477259E014D
:10513000275F3F4F8D819E816F817885A9010E94F5
:10514000111F2096E2E00C949325A0E0B0E0EBEA7A
:10515000F8E20C9475250F8118859E01255F3F4F5D
:10516000F801838188608383C80169857A85A901F4
:105170000E94111FF8012381277F23832096E4E0FA
:105180000C9491250F931F93CF93DF938C01EB0128
:105190008B8181FF1BC082FF0DC02E813F818C81DE
:1051A0009D812817390764F4E881F9810193F98317
:1051B000E88306C0E885F985802F0995892B31F4AD
:1051C0008E819F8101969F838E8302C00FEF1FEF18
:1051D000C801DF91CF911F910F910895EF92FF9237
:1051E0000F931F93CF93DF937C018B01DB01139609
:1051F0008C9181FD03C0CFEFDFEF13C0C0E0D0E0A2
:105200000BC0D8011896ED91FC911997B80109953A
:10521000892B11F0CFEFDFEFF70181917F01882318
:1052200081F7CE01CDB7DEB7E6E00C948F25AEE076
:10523000B0E0EDE1F9E20C9475250D891E898EE050
:105240008C831A8309838FEF9FE79E838D839E0152
:10525000275E3F4FCE0101966F89788DA9010E948C
:10526000111F2F813885020F131FF80110822E960F
:10527000E4E00C949125FA01AA27283051F120315D
:1052800081F1E8946F936E7F6E5F7F4F8F4F9F4FDA
:10529000AF4FB1E03ED0B4E03CD0670F781F891F1C
:1052A0009A1FA11D680F791F8A1F911DA11D6A0FEA
:1052B000711D811D911DA11D20D009F468943F919D
:1052C0002AE0269F11243019305D3193DEF6CF019C
:1052D0000895462F4770405D4193B3E00FD0C9F762
:1052E000F6CF462F4F70405D4A3318F0495D31FDCF
:1052F0004052419302D0A9F7EACFB4E0A695979522
:10530000879577956795BA95C9F7009761057105F7
:1053100008959B01AC010A2E069457954795379541
:105320002795BA95C9F7620F731F841F951FA01D9B
:105330000895DC01CB01FC01F999FECF06C0F2BD56
:10534000E1BDF89A319600B40D9241505040B8F743
:105350000895A8E1B0E042E050E00C949B29DC0104
:10536000CB0103C02D910E94BA2941505040D0F783
:105370000895262FF999FECF1FBA92BD81BD20BD99
:105380000FB6F894FA9AF99A0FBE019608950E9402
:10539000B929272F0C94BA290F931F93CF93DF932A
:1053A000689F8001699F100D789F100D1124C8011E
:1053B0000E94E829EC01009729F060E070E0A80164
:1053C0000E94F02ACE01DF91CF911F910F91089595
:1053D000CF93DF93BC018230910510F462E070E05E
:1053E000A091E304B091E404ED01E0E0F0E040E0DE
:1053F00050E021C0888199818617970769F48A81D6
:105400009B81309719F09383828304C09093E404C6
:105410008093E304FE0134C06817790738F441151E
:10542000510519F08417950708F4AC01FE018A8133
:105430009B819C01E9012097E9F641155105A9F1ED
:10544000CA01861B970B049708F4BA01E0E0F0E06C
:105450002AC08D919C91119784179507F9F46417D0
:10546000750781F412968D919C911397309719F0DE
:105470009383828304C09093E4048093E304FD014A
:1054800032964FC0CA01861B970BFD01E80FF91F2A
:105490006193719302978D939C9343C0FD01828128
:1054A00093819C01D9011097A1F68091E10490911C
:1054B000E204892B41F48091EE039091EF039093E5
:1054C000E2048093E1044091F0035091F10341150F
:1054D000510541F44DB75EB78091EC039091ED0317
:1054E000481B590B2091E1043091E2042417350741
:1054F000B0F4CA01821B930B8617970780F0AB01AB
:105500004E5F5F4F8417950750F0420F531F509323
:10551000E2044093E104F9016193719302C0E0E079
:10552000F0E0CF01DF91CF910895CF93DF93009703
:1055300009F450C0EC0122971B821A82A091E30467
:10554000B091E404109709F140E050E0AC17BD07BA
:1055500008F1BB83AA83FE0121913191E20FF31F71
:10556000AE17BF0779F48D919C911197280F391FC1
:105570002E5F3F4F3983288312968D919C9113970C
:105580009B838A834115510571F4D093E404C09341
:10559000E30420C012968D919C911397AD01009762
:1055A00011F0DC01D3CFFA01D383C2832191319171
:1055B000E20FF31FCE17DF0769F488819981280F66
:1055C000391F2E5F3F4FFA01318320838A819B81EF
:1055D00093838283DF91CF91089599278827089537
:1055E000DC0101C06D9341505040E0F70895F894FC
:0255F000FFCFEB
:1055F200702025660A00702025660D007020302E6E
:10560200300D0070613F0D00693F0D00663F0D00D7
:105612006C6564733F0D0025643A20000C4C4153C5
:105622004552424F582076256C642E256C6420200A
:105632002020200A2028632925732E2573204A4B17
:1056420020202020202020202020000C4C415345E7
:1056520052424F582076256C642E256C64202020FF
:1056620020200A20696E6974206C61736572202E95
:105672002E2E20202020202020000B20010220207E
:1056820020200420204D454E55202020000C503D66
:1056920025352E31666D5720202020202020200025
:1056A2000C507365743D25352E31666D57202020D0
:1056B200202020000A503D25362E32662025730018
:1056C2000C257320000B20202020202020202020C9
:1056D2004D454E552020200002010045585402013C
:1056E200000400455854040025640A0A0025660A8D
:1056F2000A002573202825732E2573290A0A002003
:105702002020202020202020202020202020204275
:10571200414420494E5354522E20455252202000DB
:105722004C415345522054494D454F555420202059
:10573200002054454D502E204552524F52202020D9
:105742002000494E5445524C4F434B204F50454E3A
:10575200202000434F4E535420504F572E46415560
:105762004C5420004C4153455220444F53434F4E1A
:105772004E454320000F023002410252026302747E
:10578200023034003230313500302E302E382E3493
:1057920038000C6D61782E206C6173657220706F19
:1057A2007765720A203D202564206D57000C7761D1
:1057B20076656C656E6774680A203D2025362E3149
:1057C20066206E6D006F6E006F6666000C64656227
:1057D2007567206D6F64652020202020200A203DFF
:1057E200202573202020202020000C6578742E2094
:1057F200696E74656E7369747920200A20656E6122
:10580200626C65203D202573202020000C65787491
:105812002E20696E74656E7369747920200A206D7A
:10582200696E203D202564202020000C6578742EAE
:1058320020696E74656E7369747920200A206D6127
:1058420078203D202564202020000C6578742E20CD
:105852006F6E2F6F6666206D6F64650A203D20258E
:105862007320202020202000796573006E6F000CC9
:10587200636865636B206C61736572202020202051
:105882000A636F6E6E6563746564203D2025730044
:105892000C6261756420726174650A203D20256C7A
:1058A20064000C4C434420636F6E74726173740A1B
:1058B200203D20253264000C4C4344206261636B1E
:1058C2006C696768740A203D202533640020020158
:1058D2000045000300202041200020002000E504B4
:0258E2000000C4
:0158E400FDC6
:0158E500D8EA
:0158E600FFC2
:00000001FF
