:100000000C9468020C9485020C9485020C94850271
:100010000C9485020C9485020C9485020C94850244
:100020000C9485020C9485020C9485020C94850234
:100030000C9485020C94DC0D0C9485020C948502C2
:100040000C9485020C9485020C9485020C94850214
:100050000C944D110C9484110C9485020C9485021F
:100060000C9485020C9485020C9485020C948502F4
:100070000C94101D0C94471D0C948502C917CE17C3
:10008000D317D817DD17E217E717EC17F117F61794
:10009000FB1700180518711A941ADC1A0A1B2F1B7B
:1000A000521B751B9A1BBF1BEB1B1B1C4B1C6C1C98
:1000B0000C20202020202020202020202020202054
:1000C00020200A20696E6974206C61736572202E8D
:1000D0002E2E2020202020202000443E2069732046
:1000E0006C6173657220636F6E6E65637465642006
:1000F000553D25640A0020206A2E6B72696567658C
:100100007240646B667A2E6465202D2D20206A6112
:100110006E406A6B7269656765722E64650A0A00D3
:1001200020202863292025732E2573206279204AF8
:10013000616E204B7269656765722028444B465A90
:10014000290A000A5253323332204C6173657220FF
:10015000436F6E74726F6C6C6572207625642E2509
:10016000640A004552524F523A2054494D454F556A
:10017000540A0A004552524F523A20494E56414CB9
:10018000494420444154410A0A004552524F523AD0
:100190002054494D454F55540A0A004552524F527A
:1001A0003A2054494D454F55540A0A004552524F82
:1001B000523A20494E56414C494420444154410A48
:1001C0000A004C41534552204E4F5420434F4E4E4F
:1001D00045435445440A0A00434F4E5354414E543C
:1001E00020504F574552204641554C540A0A004969
:1001F0004E5445524C4F434B204F50454E0A0A0037
:1002000054454D5045524154555245204552524F48
:10021000520A0A004C415345522052454345495623
:10022000452054494D454F55540A0A004241442047
:10023000494E535452554354494F4E204552524F04
:10024000520A0A004F4B0A0A00493D25352E3366F3
:10025000202000443E2073656E74207020302E30C4
:100260000A00443E2073656E742000443E2073658E
:100270006E74206C6564733F0A00443E2073656EA3
:100280007420663F0A00443E2073656E7420693F07
:100290000A00443E2073656E742070613F0A00447A
:1002A0003E206C61736572206E6F7420636F6E6E9A
:1002B00065637465640A0A00443E204C617365728C
:1002C00020616E73776572733A2025730A001F1BD5
:1002D000110A1B1B1B1F1F1B1B1B0A111B1F1F1D92
:1002E0001D1D1501171F170A151B170D1D1D0C6568
:1002F000786974206D656E752020202020202020D4
:10030000200A707265737320412020202020202055
:10031000202020000C726573746F7265206465661E
:1003200061756C74732E0A70726573732041000CD2
:10033000736176696E67202E2E2E202020202020CB
:100340000A202020202020202020202020202020C3
:1003500020000A64656661756C747320726573743D
:100360006F72656420202020202020202020200D76
:10037000202E2E2E202E2E2E202E2E2E202E2E2ED5
:10038000202020202020202020202020202020206D
:1003900020006E616E00696E6600494E46494E4906
:1003A00054594E414ECDCCCC3D0AD7233C17B7D142
:1003B0003877CC2B329595E6241FB14F0A000020E8
:1003C000410000C84200401C4620BCBE4CCA1B0E67
:1003D0005AAEC59D7400407A10F35A00A0724E18B0
:1003E000090010A5D4E80000E87648170000E40BE7
:1003F00054020000CA9A3B000000E1F505000080AD
:10040000969800000040420F000000A08601000006
:1004100000102700000000E8030000000064000056
:100420000000000A00000000000100000000002C95
:1004300076D888DC674F0823DFC1DFAE59E1B1B75A
:1004400096E5E3E453C63AE651997696E8E6C28427
:1004500026EB898C9B62ED407C6FFCEFBC9C9F403F
:10046000F2BAA56FA5F490055A2AF75C936B6CF964
:10047000676DC11BFCE0E40D47FEF520E6B500D03A
:10048000ED902E0300943577050080841E0800004F
:10049000204E0A000000C80C333333330F986E121D
:1004A000831141EF8D2114893BE65516CFFEE6DB23
:1004B00018D1844B381BF77C1D901DA4BBE424206D
:1004C0003284725E228100C9F124ECA1E53D27004F
:1004D00011241FBECFEFD8E0DEBFCDBF13E0A0E0F8
:1004E000B1E0E0E0F6E502C005900D92A43FB1074F
:1004F000D9F714E0A7EFB3E001C01D92A73EB10702
:10050000E1F70E949E070C94FE2A0C9400000895C7
:100510008DB79EB708970FB6F8949EBF0FBE8DBFDC
:10052000EDB7FEB731968091150490911604ADB7E2
:10053000BEB712969C938E93119783E491E09383B8
:10054000828315821482178216820E94AC28EDB72E
:10055000FEB731968091150490911604ADB7BEB7E1
:1005600012969C938E93119780E291E093838283FD
:1005700081E992E09583848384E992E0978386837E
:100580000E94AC288DB79EB708960FB6F8949EBF10
:100590000FBE8DBF86EF90E00E94821D08950F93DD
:1005A0001F93A0E2B4E01D9284E0A133B807D9F70D
:1005B0002091000430910104409102045091030401
:1005C0008DB79EB708970FB6F8949EBF0FBE8DBF2C
:1005D000EDB7FEB731968D0101511040ADB7BEB7F2
:1005E00012961C930E93119789E492E09383828371
:1005F00024833583468357830E941E298DB79EB777
:1006000008960FB6F8949EBF0FBE8DBFC8011F910C
:100610000F910895A0E0B0E0E0E1F3E00C947225C2
:100620004C013B0180E064E04AE050E00E94D90EBA
:10063000EC0180918104882301F100D000D000D02A
:10064000EDB7FEB731968091150490911604ADB7C1
:10065000BEB712969C938E9311978AED90E0938388
:100660008283D583C4830E94AC28EDB7FEB736964B
:100670000FB6F894FEBF0FBEEDBF809182048823B1
:1006800071F0C93CD10558F45E9814985C985D9A55
:1006900086E0809304041092FB0380E067C0A09082
:1006A000F703B090F803C090F903D090FA038AE002
:1006B00090E0A0E0B0E0A80EB91ECA1EDB1EE090DC
:1006C000F703F090F8030091F9031091FA03D401B5
:1006D0001C92C0E0D0E08FEF11C00E94EE11882381
:1006E00029F0F401EC0FFD1F80832196E090F703C1
:1006F000F090F8030091F9031091FA03EA14FB0457
:100700000C051D0528F48D3019F0C615D7052CF3FE
:10071000C80DD91D188280918104882301F100D071
:1007200000D000D0EDB7FEB73196809115049091BE
:100730001604ADB7BEB712969C938E93119788EBB3
:1007400092E093838283958284820E94AC28EDB7E5
:10075000FEB736960FB6F894FEBF0FBEEDBF80E031
:10076000EA14FB040C051D0508F481E0CDB7DEB7E3
:10077000EEE00C948E25AEE1B0E0E1ECF3E00C94F9
:1007800076257C01B62E6A01A22E80E064E04AE064
:1007900050E00E94D90E8C0180918104882301F1E0
:1007A00000D000D000D0EDB7FEB73196809115048F
:1007B00090911604ADB7BEB712969C938E93119785
:1007C0008AED90E093838283158304830E94AC2892
:1007D000EDB7FEB736960FB6F894FEBF0FBEEDBF6D
:1007E00080918204882329F0093C110510F486E0E9
:1007F000A4C00E944913BB2009F474C080918104F5
:100800008823B9F182E692E00E94821DEDB7FEB71F
:1008100038970FB6F894FEBF0FBEEDBF0DB71EB7E9
:100820000F5F1F4F8091150490911604928381836E
:1008300080E091E0D80113969C938E931297B601B5
:1008400080E090E00E949C2320E030E44CE156E4FC
:100850000E940823F80164837583868397830E942E
:1008600098288DB79EB708960FB6F8949EBF0FBE16
:100870008DBFADB7BEB718970FB6F894BEBF0FBE09
:10088000ADBF0DB71EB70F5F1F4F80911904909138
:100890001A0412969C938E93119786E091E0F801CA
:1008A00093838283B60180E090E00E949C2320E045
:1008B00030E44CE156E40E940823D80114966D936D
:1008C0007D938D939C9317970E949828EDB7FEB760
:1008D00038960FB6F894FEBF0FBEEDBFAA20A1F068
:1008E000149A12C080918104882321F083E592E05C
:1008F0000E94821D6091190470911A048CE091E0AD
:100900000E94F528A110149880E098E40197F1F76F
:10091000CE0101966EE170E00E940A03882361F423
:10092000D7011C9289818F3419F48A818B3439F074
:1009300081E0F701808303C082E0D7018C936E963B
:10094000EAE00C949225AAE0B0E0E9EAF4E00C9425
:100950007525982EFE0131968AE0DF011D928A9559
:10096000E9F7E090F703F090F8030091F903109194
:10097000FA038FE090E0A0E0B0E0E80EF91E0A1F55
:100980001B1FCC24DD2428E530E05F010DC00E9450
:10099000B11D9C01C097029738F4F501EC0DFD1DC7
:1009A00020830894C11CD11C8091F7039091F80317
:1009B000A091F903B091FA038E159F05A007B10726
:1009C00050F42A30310539F02D30310521F093E013
:1009D000C916D104E4F28091F7039091F803A09135
:1009E000F903B091FA038E159F05A007B10700F532
:1009F000992011F590E08981803309F091E090937E
:100A0000FB03109206046091FB0340917604509121
:100A10007704909105048091060420E0981709F46A
:100A200021E084E094E00CEF13E00E94BB0304C0DB
:100A30008AE891E00E94821D2A96EBE00C949125B1
:100A4000ACE0B0E0E6E2F5E00C947525982EFE01EE
:100A500033968AE0DF011D928A95E9F7E090F7036B
:100A6000F090F8030091F9031091FA038FE090E001
:100A7000A0E0B0E0E80EF91E0A1F1B1FCC24DD2405
:100A800028E530E05F0116C00E94B11D9C01C097AF
:100A90000A9748F02B32310531F02D32310519F02B
:100AA0002E32310539F4F501EC0DFD1D208308943B
:100AB000C11CD11C8091F7039091F803A091F90318
:100AC000B091FA038E159F05A007B10750F42A30A4
:100AD000310539F02D30310521F097E0C916D104E8
:100AE0009CF28091F7039091F803A091F903B091E3
:100AF000FA038E159F05A007B10708F045C0CE0187
:100B00000396BE016F5F7F4F0E94AB259B01AC0136
:100B10009920F1F5E981FA818081882391F5CA0154
:100B2000B90120E030E040E251E40E9452240E94EA
:100B3000B5240E9470239B01AC01809176049091B2
:100B400077048217930721F130937704209376047A
:100B50000E94BF13109206046091FB03409176043B
:100B600050917704909105048091060420E0981735
:100B700009F421E084E094E00CEF13E00E94BB0351
:100B800007C08CEA91E002C08BE991E00E94821DCF
:100B90002C96EBE00C949125AEE1B0E0E2EDF5E0AF
:100BA0000C9475258C016B015A01922EDC018C91FD
:100BB000823009F41C9280E064E04AE050E00E9438
:100BC000D90E7C0180918104882301F100D000D0EE
:100BD00000D0EDB7FEB731968091150490911604C0
:100BE000ADB7BEB712969C938E9311978AED90E0A5
:100BF00093838283F582E4820E94AC28EDB7FEB72E
:100C000036960FB6F894FEBF0FBEEDBF80918204FA
:100C10008823B9F0F9ECEF16F10498F486E0D801D6
:100C20008C93992021F05E9814985C985D9A80913D
:100C30008104882309F4D2C08FE992E00E94821DCA
:100C4000CDC00E94491383E191E00E94D61180E05B
:100C500098E40197F1F780918104882321F082E9DB
:100C600092E00E94821D7E010894E11CF11CC701E4
:100C70006EE170E00E940A03882379F0C7010E94A8
:100C80000B2720E030E04AE754E40E945224F601AA
:100C9000608371838283938303C082E0D8018C9345
:100CA000F8018081882309F099C00E94491388E1E6
:100CB00091E00E94D61180E098E40197F1F78091CD
:100CC0008104882321F086E892E00E94821D7E0143
:100CD0000894E11CF11CC7016EE170E00E940A0358
:100CE000882351F0C7010E940B27D5016D937D9396
:100CF0008D939C93139703C082E0F8018083D80101
:100D00008C91882309F06AC00E9449138CE191E01C
:100D10000E94D61180E098E40197F1F78091810458
:100D2000882321F08AE792E00E94821DCE0101967D
:100D30006EE170E00E940A038823A1F0F80110829E
:100D40008981813311F483E080838981823319F4AE
:100D500084E0D8018C938981833339F485E0F801EC
:100D6000808303C082E0D8018C93F80180818823BE
:100D7000A9F5992099F10E94491380E291E00E941F
:100D8000D61180E098E40197F1F7809181048823DF
:100D900021F08BE692E00E94821D7E010894E11C06
:100DA000F11CC7016EE170E00E940A03882399F0EC
:100DB000C7010E940F2780FF02C05E9A01C05E98A3
:100DC00082FF02C05C9A01C05C9883FF02C05D9AFA
:100DD00005C05D9803C082E0D8018C936E96EBE06D
:100DE0000C9491251F938823A1F4109206049091EE
:100DF00005048091060420E0981709F421E084E0BE
:100E000094E06CEF73E040E054E00E94CC05109158
:100E1000040400D000D000D0EDB7FEB73196809129
:100E2000150490911604ADB7BEB712969C938E939D
:100E3000119787E291E093838283148315820E9445
:100E400098288DB79EB706960FB6F8949EBF0FBE32
:100E50008DBF1330B9F0143028F4113069F012301E
:100E600070F407C01530A1F0153078F01630C1F4D9
:100E700012C084E492E011C08CE292E00EC084E1E2
:100E800092E00BC080E092E008C08FEE91E005C0D8
:100E900088ED91E002C082EC91E00E94821D06C0C4
:100EA0008AE00E94061D8AE00E94061D1F91089597
:100EB000CF93DF93AC016115710529F1EB01099026
:100EC0000020E9F72197C61BD70BDC010D9000200D
:100ED000E9F71197A81BB90B1C161D06A4F4AC1753
:100EE000BD079CF020E030E0FA01E20FF31FDB01C8
:100EF000A20FB31F90818C91981739F42F5F3F4F49
:100F00002C173D078CF381E001C080E0DF91CF9189
:100F1000089581E06EEC72E00E941C1182E066EDA3
:100F200072E00E941C1183E06EED72E00E941C11C1
:100F300084E066EE72E00E941C110895A0E0B0E02B
:100F4000E4EAF7E00C946E255D985C985E9814983E
:100F5000109217041092FB031092080481E0809312
:100F60001C0489E897E09093130480931204F8948A
:100F70000E946E150E947A0E0E943C160E94880EF6
:100F8000809180040E94960E80E060E00E9428100C
:100F90000E94890787EE90E160E070E00E944C2893
:100FA00090931F0480931E0460E072EC81E090E057
:100FB00048E021E000E00E94F3118CEC91E168EE42
:100FC00071E10E944C2890931A0480931904609157
:100FD00078047091790480917A0490917B0448E0C0
:100FE00021E00E94B61D8FE89DE16BEA7DE10E9441
:100FF0004C2890931604809315040E94880281E087
:1010000060E040E00E94D80F81E00E94E40F2DB71D
:101010003EB7205130400FB6F8943EBF0FBE2DBFF3
:10102000EDB7FEB7319680911E0490911F04ADB7C5
:10103000BEB712969C938E9311978CE291E09383A6
:101040008283148215821682178210861186128678
:10105000138681E992E09587848784E992E09787F7
:1010600086870E949828EDB7FEB770960FB6F89461
:10107000FEBF0FBEEDBF80E00E94E40F86B180721C
:101080008093310480B1827080931C0488EE93E0D9
:101090000E94990E78942DB73EB72C5030400FB671
:1010A000F8943EBF0FBE2DBFEDB7FEB731968091CD
:1010B0001E0490911F04ADB7BEB712969C938E93F9
:1010C00011978BE591E093838283148215821682B7
:1010D000178210861186128613860E949828109215
:1010E0000604109206046091FB034091760450912F
:1010F00077049091050480910604EDB7FEB73C9605
:101100000FB6F894FEBF0FBEEDBF20E0981709F4AC
:1011100021E084E094E00CEF13E00E94BB030E9406
:1011200018100E94201060911E0470911F048AE81C
:1011300091E00E94F5285D985C985E981498E09084
:10114000FB0380E064E04AE050E00E94D90E8C018D
:1011500080918104882301F100D000D000D0EDB748
:10116000FEB731968091150490911604ADB7BEB7C5
:1011700012969C938E9311978AED90E093838283CD
:10118000158304830E94AC28EDB7FEB736960FB6E0
:10119000F894FEBF0FBEEDBF80918204882321F03A
:1011A00080E0093C110508F081E08E2C8394E82E44
:1011B000E3945AED452E50E0552E40EB242E40E0AE
:1011C000342E38EB632E712CCDEFD1E001C0E92C29
:1011D00080E064E04AE050E00E94D90E8C018091EA
:1011E00081048823F1F000D000D000D0EDB7FEB725
:1011F00031968091150490911604ADB7BEB7129642
:101200009C938E93119753824282158304830E948C
:10121000AC28EDB7FEB736960FB6F894FEBF0FBEFA
:10122000EDBF80918204882321F09924093C1105A7
:1012300010F09924939480917104882349F083B12C
:1012400090E0969587959695879581708093FB039E
:10125000992011F41092FB03E91409F443C099207A
:1012600009F440C01092FB0300D000D080911E040E
:1012700090911F04ADB7BEB712969C938E931197B1
:1012800014963C922E9213970E94AC2888EE93E01D
:101290000F900F900F900F90F3013197F1F7019796
:1012A000D9F71092060488EE93E0F3013197F1F735
:1012B0000197D9F7109206046091FB0340917604E0
:1012C00050917704909105048091060420E09817CE
:1012D00009F421E084E094E00CEF13E00E94BB03EA
:1012E0008824839480916404882309F482C082E076
:1012F00064E04AE050E00E94D90E29E130E0FC01B0
:10130000E29FC001E39F900DF29F900D11246AE0CF
:1013100070E00E941D255B01CC24DD2480918304B4
:1013200090918404A0E0B0E0A816B906CA06DB06D6
:101330002CF41092770410927604C4C08091690452
:1013400090916A04A0E0B0E08A159B05AC05BD054C
:101350009CF480916F04909170049C0103E0220F33
:10136000331F0A95E1F7880F991F280F391F309313
:10137000770420937604A6C0209172043091730400
:101380004091740450917504809183049091840479
:10139000E0906504F0906604009167041091680481
:1013A000A0E0B0E0A81AB90ACA0ADB0AC601B50172
:1013B0000E94FE24A80197010E94532530937704D0
:1013C00020937604109206046091FB03409176040A
:1013D00050917704909105048091060420E09817BD
:1013E00009F421E084E094E00CEF13E00E94BB03D9
:1013F00069C00E944F16BC01059909C0880F991F4A
:10140000A3E0660F771FAA95E1F7680F791F809117
:10141000760490917704861B970B909377048093C2
:101420007604809176049091770497FF04C010921F
:10143000770410927604809176049091770420913D
:101440006F0430917004A901F3E0440F551FFA9521
:10145000E1F7220F331F420F531F4817590790F42B
:1014600080916F04909170049C0153E0220F331F10
:101470005A95E1F7880F991F280F391F3093770489
:1014800020937604672B21F48091FB038816D1F01A
:1014900010920404109206046091FB0340917604BC
:1014A00050917704909105048091060420E09817EC
:1014B00009F421E084E094E00CEF13E00E94BB0308
:1014C0000E94BF1380911D048430B0F01092060476
:1014D0006091FB034091760450917704909105044C
:1014E0008091060420E0981709F421E084E094E05C
:1014F0000CEF13E00E94BB038090FB0310920604E4
:10150000909105048091060420E0981709F421E0E9
:1015100084E094E06CEF73E040E054E00E94CC057E
:101520008091FB0320911E0430911F048130D1F47F
:1015300060917604709177044DB75EB74850504083
:101540000FB6F8945EBF0FBE4DBF0DB71EB70F5F4D
:101550001F4FADB7BEB712963C932E9311972DE94E
:1015600031E019C060917604709177044DB75EB791
:10157000485050400FB6F8945EBF0FBE4DBF0DB738
:101580001EB70F5F1F4FADB7BEB712963C932E9399
:10159000119720EB31E0F80133832283882777FD10
:1015A0008095982F0E949E2320E030E040E251E495
:1015B0000E940823D80114966D937D938D939C937C
:1015C00017970E949828EDB7FEB738960FB6F89493
:1015D000FEBF0FBEEDBF809104048823D9F5809132
:1015E0000504882309F45D98C0901E04D0901F0460
:1015F000E090FC03F090FD030091FE031091FF03C7
:101600000E94CF022DB73EB72A5030400FB6F89453
:101610003EBF0FBE2DBFEDB7FEB73196ADB7BEB71B
:101620001296DC92CE92119724EC31E03383228320
:10163000E482F58206831783918780870E94982829
:101640004DB75EB7465F5F4F0FB6F8945EBF0FBEF3
:101650004DBF36C020911E0430911F04E091040458
:10166000E73040F4F0E0EE0FFF1FED57FD4F8081B3
:10167000918104C0809185029091860200D000D0B3
:1016800000D0EDB7FEB73196ADB7BEB712963C931A
:101690002E93119720ED31E0338322839583848349
:1016A0000E949828809105044DB75EB74A5F5F4F4E
:1016B0000FB6F8945EBF0FBE4DBF882309F45D9A44
:1016C00060911E0470911F0485ED91E00E94F52841
:1016D00080916404882339F481E063E00E946F10F4
:1016E00088EE91E006C080E063E00E946F108BEE10
:1016F00091E00E94EC1080917104882339F487E016
:1017000063E00E946F1081EF91E006C085E063E026
:101710000E946F1083EF91E00E94EC10809108040A
:10172000813069F580911E0490911F040E94B91CBC
:10173000609178047091790480917A0490917B048F
:1017400048E021E000E00E94B61D84EF91E0F30143
:101750003197F1F70197D9F75F9880918004865F00
:1017600080938004809180040E94960E1092080459
:101770000E9418100E9420101092060408C0809148
:1017800080040E94960E809163040E94FF0F0E94C5
:10179000B11D8936910509F421C18A369105FCF401
:1017A0008F34910509F43EC0803591055CF4863391
:1017B000910509F48FC18F33910569F1C49709F040
:1017C00006CD74C18436910509F423C1873691058D
:1017D00009F4C6C08635910509F0F9CCBCC1803743
:1017E0009105E1F0813791054CF48C36910509F4AF
:1017F000ACC18F36910509F0EACC18C0833791054A
:1018000009F450C18737910509F46FC082379105FB
:1018100009F0DDCC40C00E948802D9CC80E00E9453
:101820002005D5CC80E00E94A304D1CC1092060400
:10183000909105048091060420E0981709F421E0B6
:1018400084E094E06CEF73E040E054E00E94CC054B
:101850002091FB0300D000D000D0EDB7FEB7319649
:101860008091150490911604ADB7BEB712969C9363
:101870008E93119748EF51E053834283248315825E
:101880000E9498288DB79EB706960FB6F8949EBF13
:101890000FBE8DBF9CCC10920604909105048091E0
:1018A000060420E0981709F421E084E094E06CEF4E
:1018B00073E040E054E00E94CC052091FC0330919D
:1018C000FD034091FE035091FF03ADB7BEB71897DB
:1018D0000FB6F894BEBF0FBEADBFEDB7FEB73196E1
:1018E00080911504909116042BC0109206049091DB
:1018F00005048091060420E0981709F421E084E0B3
:1019000094E06CEF73E040E054E00E94CC0520913D
:101910007C0430917D0440917E0450917F048DB70A
:101920009EB708970FB6F8949EBF0FBE8DBFEDB758
:10193000FEB731968091150490911604ADB7BEB7ED
:1019400012969C938E931197D383C28324833583FD
:10195000468357830E949828EDB7FEB7389626C174
:1019600010920604909105048091060420E09817D7
:1019700009F421E084E094E06CEF73E040E054E08F
:101980000E94CC0560917604709177042DB73EB724
:10199000285030400FB6F8943EBF0FBE2DBF0DB794
:1019A0001EB70F5F1F4F2091150430911604ADB77D
:1019B000BEB712963C932E931197F801D383C2833E
:1019C000882777FD8095982F0E949E2320E030E0A5
:1019D00040E251E40E940823D801B0C010920604EE
:1019E000909105048091060420E0981709F421E005
:1019F00084E094E06CEF73E040E054E00E94CC059A
:101A0000209100043091010440910204509103049C
:101A100086CF249AA090F703B090F803C090F90302
:101A2000D090FA032FE030E040E050E0A20EB31E69
:101A3000C41ED51E20E030E003C00E94B11D9C01F1
:101A40008091F7039091F803A091F903B091FA0304
:101A50008A159B05AC05BD0530F42033310519F01E
:101A60002133310551F78091F7039091F803A0914C
:101A7000F903B091FA038A159B05AC05BD0568F41E
:101A80002033310511F42C98A2CB2133310511F408
:101A90002C9A9DCB84E791E002C083E691E00E94FE
:101AA000821D95CB80E00E94F20691CB0091150437
:101AB0001091160482E06AE04AE050E00E94D90EDC
:101AC0004DB75EB7485050400FB6F8945EBF0FBE9A
:101AD0004DBF13C0009115041091160483E06AE015
:101AE0004AE050E00E94D90E2DB73EB72850304052
:101AF0000FB6F8943EBF0FBE2DBFEDB6FEB60894EC
:101B0000E11CF11CADB7BEB712961C930E93119752
:101B1000F701D383C283A0E0B0E0BC01CD010E94F5
:101B20009C2320E030E040E85AE30E9452242AE05F
:101B300037ED43E250E40E945224D70114966D938E
:101B40007D938D939C93179705CF00911504109169
:101B5000160480E0C4CF2DB73EB72A5030400FB6F0
:101B6000F8943EBF0FBE2DBFEDB7FEB73196809102
:101B7000150490911604ADB7BEB712969C938E9340
:101B8000119722E032E03383228349E952E0558302
:101B9000448381E992E097838683A4E9B2E0B18728
:101BA000A0870E949828EDB7FEB73A960FB6F89432
:101BB000FEBF0FBEEDBF0BCB1F920F920FB60F9261
:101BC00011242F933F934F935F936F937F938F9342
:101BD0009F93AF93BF93EF93FF93F8940E94601687
:101BE000809118048F5F80931804809118048536C3
:101BF00008F46EC0109218048091F7039091F803D6
:101C0000A091F903B091FA030196A11DB11D809333
:101C1000F7039093F803A093F903B093FA0380912C
:101C20001D048F5F80931D048091F7039091F8034A
:101C3000A091F903B091FA038B5F9F4FAF4FBF4F55
:101C400040F01092F7031092F8031092F9031092EB
:101C5000FA0380910804882319F00E947F1938C084
:101C600080B1982F927081FF07C080911C04882357
:101C700019F481E08093080490931C04809171040E
:101C80008823A9F486B1982F907285FF0EC08091A9
:101C90003104882351F48091FB03882321F481E0EF
:101CA0008093FB0302C01092FB0390933104809158
:101CB0006404882369F480B1982F907285FF06C070
:101CC00080911B04882311F41092040490931B0448
:101CD0007894FF91EF91BF91AF919F918F917F91F8
:101CE0006F915F914F913F912F910F900FBE0F9089
:101CF0001F90189580E181B989EA84B98DE187B98F
:101D00008AEF8AB91BB882E58CBD81E08DBD08954C
:101D100083E88093B00081E08093B1001092B2001C
:101D20001092B30008951092B00008958093B3000C
:101D30000895BC014FB7F8942FE630E0F901108206
:101D4000E4E8F0E011821082109280008DE0809330
:101D500081001182108280E29CE10E941D25709317
:101D6000890060938800F9018081826080834FBF81
:101D70000895BC014FB7F8942FE630E0F9011082C6
:101D8000E4E8F0E011821082109280008DE08093F0
:101D900081001182108280E29CE10E941D257093D7
:101DA0008B0060938A00F9018081846080834FBF3B
:101DB0000895A4E0B0E0EFEDFEE00C946E25462E11
:101DC0001A018F70806C80937C0082E880937A0087
:101DD00080917A00806480937A0080917A0086FDF9
:101DE000FCCF80917800909179001C821B82552451
:101DF00031018824992489C080917A00806480937D
:101E00007A0080917A0086FDFCCF20917800309195
:101E100079003A8329832114310409F46DC0C40187
:101E2000B3010E949C235B016C0122E539E44DE182
:101E300050E40E9452247B018C0120E030E040E815
:101E40005FE30E940423882314F461E053C0C801B7
:101E5000B70120E030E04FE753E40E944E2418160B
:101E60000CF044C0C601B50120E030E04AE754E47C
:101E70000E9408235B016C0126E636E646EE54E438
:101E80000E9452247B018C0120E030E040E85FE3B7
:101E90000E94042388231CF461E070E023C0C80181
:101EA000B70120E03FEF4FE757E40E944E24181699
:101EB000ACF4C601B50120E030E040E251E40E94FC
:101EC00052240E94702306C088EB90E00197F1F73E
:101ED0006150704061157105B9F70EC0C801B701B6
:101EE0000E947023CB010197F1F706C0C801B7012A
:101EF0000E9470236A95F1F78B819C81E981FA81B8
:101F00008E0F9F1F9C838B835394541408F474CFBB
:101F100080917A008F7780937A008B819C81642DE9
:101F200070E00E941D25CB012496E2E10C948A25E5
:101F30008EBD0DB407FEFDCF08958EBD0DB407FE16
:101F4000FDCF8EB50895482F43988CE08A95F1F720
:101F500020E090E85CE0892F842311F0449A01C0CE
:101F60004498439A3CE0852F8A95F1F74398852F52
:101F70008A95F1F72F5F283011F09695ECCF2898CD
:101F8000832F8A95F1F7289A832F8A95F1F728985D
:101F900008950895429A0E94A30F82E68A95F1F768
:101FA000089542980E94A30F82E68A95F1F708955A
:101FB000882311F08CE001C088E061118E5F41112F
:101FC0008F5F0E94D10F0895813029F48EE30E9423
:101FD000D10F88E106C0823041F48EE30E94D10F18
:101FE00080E10E94D10F8CE307C08AE30E94D10FE9
:101FF00080E10E94D10F88E30E94D10F08950F93D2
:102000001F93082F182F1F7389E30E94D10F129579
:102010001F70812F84650E94D10F0F70802F806701
:102020000E94D10F88E30E94D10F1F910F91089554
:1020300081E00E94D10F89E993E00197F1F70895BB
:1020400082E00E94D10F89E993E00197F1F70895AA
:10205000FF920F931F93082FF62E3C9A3B9A3A9AC1
:102060003C9A209A80E090E90197F1F742982898ED
:1020700088EE93E028EB30E0F9013197F1F7019712
:10208000D9F789E30E94A30F12E6812F8A95F1F711
:1020900089E30E94A30F1A95F1F789E30E94D10FFB
:1020A00085E10E94D10F85E50E94D10F8EE60E9446
:1020B000D10F82E70E94D10F88E30E94D10F81E007
:1020C000602F4F2D0E94D80F80E10E94FF0F0E94C9
:1020D00018100E9420101F910F91FF9008956230F8
:1020E00051F0633018F4613089F409C0633029F08D
:1020F000643061F404C0805703C0805601C080582A
:102100000E94D10F89E993E00197F1F708958C308F
:1021100019F480E061E00EC08A3019F480E062E0DA
:1021200009C08B3019F480E063E004C08D3029F4DD
:1021300080E064E00E946F100895803B11F48FED01
:1021400043C0813011F480E03FC0823011F481E05F
:102150003BC0833011F482E037C0843011F483E057
:1021600033C0853011F484E02FC0863011F485E04F
:102170002BC0873011F486E027C0883011F487E047
:1021800023C0853209F18C37F9F0853B11F484EED8
:102190001BC08034C9F08F3D11F482EE15C0803829
:1021A00011F483EE11C0843E11F0843C11F481EEF1
:1021B0000BC0863F11F0863D11F48FEE05C08C3FB9
:1021C00011F08C3D09F485EF0E94CA0F08950E941A
:1021D000871080E090E00895CF93DF93EC0103C077
:1021E0000E948710219688818823D1F7DF91CF91B3
:1021F00008950F931F93CF93DF938B0190E0019786
:1022000023E0880F991F2A95E1F78F7380640E945D
:10221000D10FC0E0D0E0F801EC0FFD1F80810E94DB
:10222000CA0F2196C830D105B1F70E942010DF9166
:10223000CF911F910F910895EF92FF921F93DF931B
:10224000CF93CDB7DEB728970FB6F894DEBF0FBE99
:10225000CDBF182F7E010894E11CF11CC70148E096
:1022600050E00E940D28812FB7010E94F910289696
:102270000FB6F894DEBF0FBECDBFCF91DF911F9197
:10228000FF90EF900895982F8091C00085FFFCCFBC
:102290009093C60081E090E008951F920F920FB6D0
:1022A0000F9211242F938F939F93EF93FF9320917D
:1022B000C60090915A0480915B049817D8F4E0917D
:1022C0005E04F0915F04219380916104815021F4B8
:1022D00080915B04E81BF10980936104F0935F0433
:1022E000E0935E049FB7F89480915A048F5F8093C7
:1022F0005A049FBFFF91EF919F918F912F910F9063
:102300000FBE0F901F9018951F920F920FB60F924D
:1023100011242F938F939F93EF93FF9380915204F7
:102320008823F1F0E0915404F091550421918091BB
:102330005804815021F480915304E81BF109F09373
:102340005504E0935404809358049FB7F894809107
:1023500052048150809352049FBF2093C60005C051
:102360008091C1008F7D8093C100FF91EF919F917B
:102370008F912F910F900FBE0F901F901895FC0119
:1023800094913196992339F08091C00085FFFCCF5C
:102390009093C600F5CF0895982F8091C00085FFD7
:1023A000FCCF9093C60080E090E00895FC019081FE
:1023B0008091C00085FFFCCF9093C600992311F057
:1023C0003196F5CF08958AE594E00E9408160895A5
:1023D0008AE594E00E94081690E008958AE594E06A
:1023E0000E9420160895AF92BF92CF92DF92EF9293
:1023F000FF920F931F936B017C01142FB22EAFB687
:1024000080E0C81686E9D80680E0E80680E0F80695
:1024100009F4AEC081E0C81686E9D80680E0E80677
:1024200080E0F80608F047C080E8C81685E2D806C4
:1024300080E0E80680E0F80609F492C081E8C8165A
:1024400085E2D80680E0E80680E0F806A8F480E699
:10245000C81689E0D80680E0E80680E0F80609F4AE
:1024600077C080ECC81682E1D80680E0E80680E0FC
:10247000F80609F091C06EC080E0C8168BE4D8065B
:1024800080E0E80680E0F80609F46EC080E8C8162F
:1024900080E7D80680E0E80680E0F80609F466C028
:1024A00080E4C81688E3D80680E0E80680E0F806F5
:1024B00009F072C057C080E0C81684E8D80683E0EF
:1024C000E80680E0F80609F45BC081E0C81684E8FD
:1024D000D80683E0E80680E0F806F0F480E0C8164D
:1024E0008CE2D80681E0E80680E0F80609F444C0F2
:1024F00080E0C81682ECD80681E0E80680E0F806A5
:10250000E9F180E0C81681EED80680E0E80680E0B8
:10251000F80609F041C02EC080E2C81681EAD8064C
:1025200087E0E80680E0F80669F180E4C81682E4F6
:10253000D8068FE0E80680E0F80641F180E9C81689
:1025400080EDD80683E0E80680E0F80629F518C09B
:102550008FEB01C08FE58093C4001092C5003AC094
:102560008FE2F9CF8FE1F7CF87E1F5CF8FE0F3CF9F
:102570008BE0F1CF87E0EFCF85E0EDCF83E0EBCFCD
:1025800081E0E9CF81E08093C40002C01092C400D2
:102590001092C50091E01FC0C701B6016050704F96
:1025A000814F9F4F33E0660F771F881F991F3A9521
:1025B000D1F724E0CC0CDD1CEE1CFF1C2A95D1F7D2
:1025C000A70196010E943125215030402093C4007C
:1025D0003093C50090E0F89488E98093C100013001
:1025E00019F0023051F404C08091C200806203C02F
:1025F0008091C20080638093C200173071F0183060
:1026000018F4163099F405C0183059F0193071F4E7
:1026100008C08091C200826007C08091C2008460BF
:1026200003C08091C20086608093C20082E0B81629
:1026300029F48091C20088608093C200913021F417
:1026400082E08093C00002C01092C0008091C6005A
:102650008091C00087FDFACF8091C000806C80938C
:10266000C000AFBE8AE594E062E374E040E20E94FD
:10267000E31582E594E062E674E041E00E94E31530
:102680001F910F91FF90EF90DF90CF90BF90AF9090
:1026900008958091C10085FDFCCF8AE594E062E356
:1026A00074E040E20E94E31508952091690430919E
:1026B0006A0480918304909184042817390780F478
:1026C0002091690430916A0480918304909184047C
:1026D00090936A0480936904309384042093830464
:1026E0002091690430916A0480918304909184045C
:1026F0002817390749F480918304909184040A963D
:1027000090936A048093690420916F04309170045F
:10271000C90153E0880F991F5A95E1F7220F331F23
:10272000820F931FA0E0B0E0809372049093730433
:10273000A0937404B09375048091830490918404F1
:10274000A0E0B0E080936B0490936C04A0936D04C0
:10275000B0936E048091690490916A04209183047F
:1027600030918404821B930BA0E0B0E08093650459
:1027700090936604A0936704B09368040895A2E060
:10278000B0E0E5ECF3E10C947E25CE0101966CE01F
:1027900070E042E050E00E94A02999818091760487
:1027A000981729F49A8180917704981741F086E769
:1027B00094E06CE070E042E050E00E94B629CE0167
:1027C00001966EE070E042E050E00E94A0299981FD
:1027D00080918504981729F49A818091860498172E
:1027E00041F085E894E06EE070E042E050E00E9445
:1027F000B6292296E2E00C949A25A7E0B0E0E3E047
:10280000F4E10C947C250E94551380E090E06EEE7C
:102810007EEE0E94CE29CE01019662E070E041E09A
:1028200050E00E94A029998180918004981741F07E
:1028300080E894E062E070E041E050E00E94B62958
:10284000CE01019664E070E041E050E00E94A029D2
:10285000998180916304981741F083E694E064E0E5
:1028600070E041E050E00E94B629CE01049666E097
:1028700070E044E050E00E94A0299C81809178049F
:10288000981779F49D8180917904981751F49E816D
:1028900080917A04981729F49F8180917B0498177E
:1028A00041F088E794E066E070E044E050E00E9488
:1028B000B629CE0102966AE070E042E050E00E9444
:1028C000A0299A8180916F04981729F49B818091A7
:1028D0007004981741F08FE694E06AE070E042E0FF
:1028E00050E00E94B629CE01019660E170E041E01F
:1028F00050E00E94A029998180918104981741F0AD
:1029000081E894E060E170E041E050E00E94B62987
:10291000CE01019662E170E041E050E00E94A02902
:10292000998180916404981741F084E694E062E113
:1029300070E041E050E00E94B629CE01019664E1CA
:1029400070E041E050E00E94A029998180917104DB
:10295000981741F081E794E064E170E041E050E0D5
:102960000E94B629CE01029666E170E042E050E096
:102970000E94A0299A8180918304981729F49B8151
:1029800080918404981741F083E894E066E170E058
:1029900042E050E00E94B629CE01029668E170E064
:1029A00042E050E00E94A0299A8180916904981722
:1029B00029F49B8180916A04981741F089E694E09C
:1029C00068E170E042E050E00E94B6298E010C5FA1
:1029D0001F4FC8016CE170E044E050E00E94A02964
:1029E00020E030E0A801FA01E20FF31FD901A4585A
:1029F000BB4F90818C91981731F42F5F3F4F24305B
:102A0000310589F708C08CE794E06CE170E044E0A0
:102A100050E00E94B629CE01019660E270E041E0EC
:102A200050E00E94A029998180918204981741F07A
:102A300082E894E060E270E041E050E00E94B62954
:102A40002796E4E00C9498258DE78093800480E13C
:102A50008093630480E092ECA1E0B0E0809378047E
:102A600090937904A0937A04B0937B0489E190E079
:102A70009093700480936F048AE090E090937704C1
:102A8000809376041092810488EE93E090938604FC
:102A90008093850480E090E8A5EFB3E480937C0404
:102AA00090937D04A0937E04B0937F0481E0809393
:102AB0008204109264041092710484E690E0909372
:102AC00084048093830484EC99E090936A04809357
:102AD00069040E9455130E94FD13089580E090E060
:102AE0000E94B0298E5E9E4E19F00E94241568C087
:102AF00080E894E062E070E041E050E00E94A029AC
:102B000083E694E064E070E041E050E00E94A02998
:102B100088E794E066E070E044E050E00E94A0297D
:102B20008FE694E06AE070E042E050E00E94A02965
:102B300086E794E06CE070E042E050E00E94A0295B
:102B400085E894E06EE070E042E050E00E94A02949
:102B500081E894E060E170E041E050E00E94A0294B
:102B600084E694E062E170E041E050E00E94A02938
:102B700081E794E064E170E041E050E00E94A02928
:102B800083E894E066E170E042E050E00E94A02912
:102B900089E694E068E170E042E050E00E94A029FC
:102BA0008CE794E06CE170E044E050E00E94A029E2
:102BB00082E894E060E270E041E050E00E94A029E9
:102BC0000E9455130895FC011082758364837383FA
:102BD00062834183478346830895FC01908181810C
:102BE000981710F080E00895A481B5816D938781D6
:102BF000815019F48181A81BB1098783B583A4830F
:102C00009FB7F89480818F5F80839FBF81E0089594
:102C1000FC0180818823E9F3A281B3812D91868113
:102C2000815019F48181A81BB109B383A2838683E3
:102C30009FB7F8948081815080839FBF822F089531
:102C4000FC018081882319F42FEF3FEF13C0A2818C
:102C5000B3812D918681815019F48181A81BB1091E
:102C6000B383A28386839FB7F89480818150808349
:102C70009FBF30E0C90108950F980E980D98079BEB
:102C800002C093E001C090E0069B02C081E098275B
:102C9000909307041092880410928704089520915D
:102CA000870430918804C9018370907090938804E0
:102CB000809387043595279535952795C901089503
:102CC000079B03C043E050E002C040E050E0069B99
:102CD00004C081E090E04827592780910704282FFD
:102CE000332727FD3095241B350B20FF0FC0409361
:102CF00007048091870490918804019722703070B6
:102D0000820F931F90938804809387040895CF9334
:102D1000DF93DC01562FE0911004F0911104059926
:102D20000AC0CF01880F991F33E0EE0FFF1F3A95BD
:102D3000E1F7E80FF91F1E161F064CF42E9F802D99
:102D400011249C91890F8C93481718F123C0309758
:102D500021F14C91622F70E0242F30E088279927D1
:102D60008E1B9F0BEC01C69FC001C79F900DD69F85
:102D7000900D1124850F911D2817390714F45C93C9
:102D800009C0E69FC001E79F900DF69F900D1124AA
:102D9000480F4C9381E080931404DF91CF91089504
:102DA000CF93DF93DC01562FE0911004F0911104D2
:102DB00005990AC0CF01880F991F73E0EE0FFF1F1E
:102DC0007A95E1F7E80FF91F1E161F064CF42E9FA7
:102DD000802D11249C91890F8C93481718F123C0E2
:102DE000309721F14C91622F70E0242F30E088273A
:102DF00099278E1B9F0BEC01C69FC001C79F900DAA
:102E0000D69F900D1124850F911D2817390714F4B2
:102E10005C9309C0E69FC001E79F900DF69F900D5F
:102E20001124480F4C9381E080931404DF91CF91DB
:102E30000895A1E0B0E0EFE1F7E10C947C258C016E
:102E40001982FC0180819181A281B3818038F0E7F1
:102E50009F07F0E0AF07F0E0BF0709F478C08138C2
:102E600020E7920720E0A20720E0B20788F5803C27
:102E7000E2E19E07E0E0AE07E0E0BE0709F461C0D2
:102E8000813CF2E19F07F0E0AF07F0E0BF0780F47C
:102E9000803B24E0920720E0A20720E0B20709F47B
:102EA0004CC080569940A040B04009F05EC047C079
:102EB0008034F8E39F07F0E0AF07F0E0BF0709F4C4
:102EC00042C080509B44A040B04009F04EC03DC07D
:102ED0008030F4EF9F07F1E0AF07F0E0BF0709F49F
:102EE0003CC0813024EF920721E0A20720E0B20726
:102EF00070F48030E1EE9E07E0E0AE07E0E0BE0750
:102F000041F18050924CA140B04079F524C080320C
:102F100021EA920727E0A20720E0B20711F18034EE
:102F2000E2E49E07EFE0AE07E0E0BE07E1F0805983
:102F3000904DA340B040C9F412C0198218C081E07E
:102F400015C082E013C084E011C085E00FC086E0A8
:102F50000DC087E00BC088E009C089E007C08AE0A7
:102F600005C08BE003C08CE001C083E08983CE0103
:102F7000019660E04CE021E00E94D0168981E82FA4
:102F8000F0E0ED30F10508F049C0E25CFF4F0C9431
:102F9000A52580EB94E0A0E0B0E03BC080E699E09E
:102FA000A0E0B0E036C080EC92E1A0E0B0E031C03B
:102FB00080E895E2A0E0B0E02CC080E498E3A0E0D7
:102FC000B0E027C080E09BE4A0E0B0E022C080E851
:102FD00090E7A0E0B0E01DC080E091EEA0E0B0E09E
:102FE00018C080E092ECA1E0B0E013C080E094EF64
:102FF000A1E0B0E00EC080E990EDA3E0B0E009C030
:1030000080E291EAA7E0B0E004C080E492E4AFE09F
:10301000B0E0F80180839183A283B3832196E4E03A
:103020000C949825CF93DF93DC01E0911004F0918C
:10303000110405990BC0CF01880F991FEE0FFF1FD8
:10304000EE0FFF1FEE0FFF1FE80FF91F1E161F06E2
:10305000ACF4E29FC001E39F900DF29F900D11240C
:103060002D913C911197820F931F11969C938E93F3
:103070004817590718F54D935C9320C0309709F114
:103080004D915C911197E29FC001E39F900DF29FDB
:10309000900D1124EB01C81BD90B4C175D0718F4D8
:1030A0006D937C930BC0E29FC001E39F900DF29F54
:1030B000900D1124840F951F8D939C9381E0809334
:1030C0001404DF91CF910895CF93DF93DC01E09159
:1030D0001004F091110405990BC0CF01880F991FBE
:1030E000EE0FFF1FEE0FFF1FEE0FFF1FE80FF91F80
:1030F0001E161F06ACF4E29FC001E39F900DF29FE5
:10310000900D11242D913C911197820F931F1196D0
:103110009C938E93481759071CF54D935C9320C0E0
:10312000309709F14D915C911197E29FC001E39FA7
:10313000900DF29F900D1124EB01C81BD90B4C1779
:103140005D071CF46D937C930BC0E29FC001E39F6D
:10315000900DF29F900D1124840F951F8D939C93D9
:1031600081E080931404DF91CF910895A0E0B0E056
:10317000ECEBF8E10C946E25EC011A012B013801FF
:10318000490156016701609110047091110488276C
:1031900077FD8095982F0E949E237B018C010599D5
:1031A00008C020E030E040E251E40E9452247B015C
:1031B0008C01C801B70120E030E040E050E00E94FF
:1031C0004E241816DCF4C801B701A60195010E942F
:1031D0005224288139814A815B810E94A022688320
:1031E00079838A839B83A40193010E944E2418163D
:1031F000DCF5688279828A829B8236C0C801B70179
:1032000020E030E040E050E00E94042388237CF579
:10321000688079808A809B80C801B7019058A60198
:1032200095010E945224A20191010E94A0229B01BB
:10323000AC01C401B3010E94042388232CF428822A
:1032400039824A825B8210C0C801B701A60195018C
:103250000E9452249B01AC01C401B3010E94A02230
:10326000688379838A839B8381E080931404CDB73C
:10327000DEB7E2E10C948A250F931F93CF93DF937F
:103280000197C1F51092080400D000D08091890404
:1032900090918A04EDB7FEB7928381838FE293E029
:1032A000948383830E94AC2881E0809314040F9060
:1032B0000F900F900F900E94FD13C0E0D0E008EB3C
:1032C00010E080E00E94960E82EE94E0F8013197C3
:1032D000F1F70197D9F7809180040E94960E82EE53
:1032E00094E0F8013197F1F70197D9F72196C430AE
:1032F000D10539F7DF91CF911F910F910895109269
:10330000140480910A0490910B048B5F9F4F30F05E
:1033100081E090E090930B0480930A0480910C0468
:1033200090910D048B5F9F4F30F081E090E090937F
:103330000D0480930C0480910E0490910F048B5F18
:103340009F4F30F081E090E090930F0480930E0443
:1033500001990AC080910A0490910B040196909300
:103360000B0480930A0404C010920B0410920A0408
:10337000059B0AC080910C0490910D0401969093D6
:103380000D0480930C0404C010920D0410920C04E0
:1033900035990AC080910E0490910F040196909384
:1033A0000F0480930E0404C010920F0410920E04B8
:1033B0000E944F16909581959F4F90931104809392
:1033C00010048091100490911104892B19F081E070
:1033D0008093140480910A0490910B04019761F486
:1033E000809109048F5F8093090481E08093140425
:1033F000109211041092100480910C0490910D040D
:10340000019719F481E08093140480910E04909147
:103410000F04019741F480910E0490910F040E94D3
:103420003C1910920804809109048E3018F081E054
:103430008093090408950F931F93CF93DF93809196
:103440000C0490910D040197B1F50E94241581E0C0
:103450008093140400D000D08091890490918A0454
:10346000EDB7FEB79283818382E593E094838383F3
:103470000E94AC28C0E0D0E00F900F900F900F900A
:1034800008EB10E080E00E94960E82EE94E0F801D6
:103490003197F1F70197D9F7809180040E94960E39
:1034A00082EE94E0F8013197F1F70197D9F7219670
:1034B000C430D10539F7DF91CF911F910F91089555
:1034C000CF92DF92EF92FF920F931F9390E0FC0157
:1034D0003197ED30F10508F01CC2E55BFF4F0C940D
:1034E000A5258FE694E060E070E040ED57E021E034
:1034F00030E00E9464180E94181020916F043091EF
:10350000700400D000D000D0EDB7FEB731968091A6
:10351000890490918A04ADB7BEB712969C938E939E
:10352000119783EA92E06CC08CE794E040E050E0B1
:1035300068E473E400E010E02AEF34E40F2EFDECC1
:10354000CF2EFCECDF2EFCECEF2EFDE3FF2EF02D5A
:103550000E94B6180E94181020917C0430917D04BE
:1035600040917E0450917F048DB79EB708970FB6A7
:10357000F8949EBF0FBE8DBFEDB7FEB73196809118
:10358000890490918A04ADB7BEB712969C938E932E
:1035900011978EEB92E09383828324833583468355
:1035A00057830E949828EDB7FEB738960FB6F89467
:1035B000FEBF0FBEEDBFADC181E894E060E041E029
:1035C00021E00E9487160E941810409189045091B2
:1035D0008A0480918104882319F026ED32E002C02C
:1035E00029ED32E000D000D000D0EDB7FEB7319623
:1035F000ADB7BEB712965C934E9311978DED92E0E6
:1036000093838283358324830E949828EDB7FEB785
:103610003696CCCF84E694E060E041E021E00E9461
:1036200087160E9418104091890450918A04809155
:103630006404882319F026ED32E002C029ED32E05F
:1036400000D000D000D0EDB7FEB73196ADB7BEB711
:1036500012965C934E9311978BEF92E0D1CF83E853
:1036600094E060E070E040E05AE025E030E00E9445
:1036700012180E941810209183043091840400D005
:1036800000D000D0EDB7FEB73196809189049091BB
:103690008A04ADB7BEB712969C938E9311978DE1B5
:1036A00093E0AECF89E694E060E070E040E05AE05D
:1036B00025E030E00E9412180E9418102091690441
:1036C00030916A0400D000D000D0EDB7FEB731963B
:1036D0008091890490918A04ADB7BEB712969C93ED
:1036E0008E9311978CE393E08BCF81E794E060E0B9
:1036F00041E021E00E9487160E9418104091890441
:1037000050918A0480917104882319F026ED32E0EB
:1037100002C029ED32E000D000D000D0EDB7FEB7F6
:103720003196ADB7BEB712965C934E9311978BE569
:1037300093E066CF82E894E060E041E021E00E94FF
:1037400087160E9418104091890450918A04809134
:103750008204882319F029E733E002C02DE733E023
:1037600000D000D000D0EDB7FEB73196ADB7BEB7F0
:1037700012965C934E93119780E893E041CF88E7CF
:1037800094E00E9419170E9418102091780430913B
:10379000790440917A0450917B048DB79EB70897C5
:1037A0000FB6F8949EBF0FBE8DBFEDB7FEB7319632
:1037B0008091890490918A04ADB7BEB712969C930C
:1037C0008E93119781EA93E09383828324833583D8
:1037D00046835783E6CE83E694E060E040E421E050
:1037E0000E94D0160E9418102091630400D000D0CF
:1037F00000D0EDB7FEB731968091890490918A048C
:10380000ADB7BEB712969C938E93119783EB93E05E
:1038100093838283248315820E9498288091630475
:10382000EDB7FEB736960FB6F894FEBF0FBEEDBFEC
:103830000E94FF0F6EC080E894E060E04FEF25E04B
:103840000E94D0160E9418102091800400D000D051
:1038500000D0EDB7FEB731968091890490918A042B
:10386000ADB7BEB712969C938E93119788EC93E0F8
:1038700093838283248315820E94982880918004F8
:10388000EDB7FEB736960FB6F894FEBF0FBEEDBF8C
:103890000E94960E3EC00E941B1A0E94181000D073
:1038A00000D08091890490918A04ADB7BEB712967A
:1038B0009C938E93119784E193E014969C938E933E
:1038C00013970E94AC28809180040F900F900F9066
:1038D0000F900E94960E3EC080910C0490910D04B2
:1038E0000E943C190E94181000D000D080918904D9
:1038F00090918A04EDB7FEB7928381838EEE92E0B9
:10390000948383830E94AC280F900F900F900F90A8
:1039100021C080E063E00E946F108EED93E00E9472
:10392000EC1087E063E00E946F1082EE93E00E944B
:10393000EC108BE063E00E946F1084EE93E00E9435
:10394000EC10109214041F910F91FF90EF90DF90F4
:10395000CF90089580E063E00E946F1086EE93E0C0
:103960000E94EC1087E063E00E946F108BEE93E002
:10397000DECF1F9390938A048093890410920B04E6
:1039800010920A0411E0109308041093090481E0D6
:103990006EEC72E00E941C1182E066ED72E00E9403
:1039A0001C1183E06EED72E00E941C1184E06EED4C
:1039B00072E00E941C110E9420100E9418101093A7
:1039C0001404809109040E94601A80B108C080919B
:1039D0001404813021F4809109040E94601A8091BE
:1039E00008048130A1F31092080480911204909190
:1039F0001304892B49F0E0911204F0911304099506
:103A00000E9420100E9418101F910895982F8091F5
:103A1000C80085FFFCCF9093CE0081E090E0089530
:103A20001F920F920FB60F9211242F938F939F9393
:103A3000EF93FF932091CE009091AB048091AC0462
:103A40009817D8F4E091AF04F091B00421938091DD
:103A5000B204815021F48091AC04E81BF1098093F9
:103A6000B204F093B004E093AF049FB7F894809150
:103A7000AB048F5F8093AB049FBFFF91EF919F9149
:103A80008F912F910F900FBE0F901F9018951F923E
:103A90000F920FB60F9211242F938F939F93EF9352
:103AA000FF938091B3048823F1F0E091B504F09185
:103AB000B60421918091B904815021F48091B4041D
:103AC000E81BF109F093B604E093B5048093B904C0
:103AD0009FB7F8948091B30481508093B3049FBF43
:103AE0002093CE0005C08091C9008F7D8093C900CE
:103AF000FF91EF919F918F912F910F900FBE0F909B
:103B00001F901895FC0194913196992339F080917A
:103B1000C80085FFFCCF9093CE00F5CF0895982F75
:103B20008091C80085FFFCCF9093CE0080E090E0AC
:103B30000895FC0190818091C80085FFFCCF90938F
:103B4000CE00992311F03196F5CF08958BEA94E0D9
:103B50000E94081608958BEA94E00E94081690E0EF
:103B600008958BEA94E00E9420160895AF92BF92C8
:103B7000CF92DF92EF92FF920F931F936B017C0124
:103B8000142FB22EAFB680E0C81686E9D80680E0C2
:103B9000E80680E0F80609F4AEC081E0C81686E9C0
:103BA000D80680E0E80680E0F80608F047C080E824
:103BB000C81685E2D80680E0E80680E0F80609F439
:103BC00092C081E8C81685E2D80680E0E80680E069
:103BD000F806A8F480E6C81689E0D80680E0E80672
:103BE00080E0F80609F477C080ECC81682E1D806B8
:103BF00080E0E80680E0F80609F091C06EC080E041
:103C0000C8168BE4D80680E0E80680E0F80609F4E0
:103C10006EC080E8C81680E7D80680E0E80680E03D
:103C2000F80609F466C080E4C81688E3D80680E088
:103C3000E80680E0F80609F072C057C080E0C816B8
:103C400084E8D80683E0E80680E0F80609F45BC063
:103C500081E0C81684E8D80683E0E80680E0F8062C
:103C6000F0F480E0C8168CE2D80681E0E80680E037
:103C7000F80609F444C080E0C81682ECD80681E05A
:103C8000E80680E0F806E9F180E0C81681EED80683
:103C900080E0E80680E0F80609F041C02EC080E22E
:103CA000C81681EAD80687E0E80680E0F80669F1E0
:103CB00080E4C81682E4D8068FE0E80680E0F806C3
:103CC00041F180E9C81680EDD80683E0E80680E07F
:103CD000F80629F518C08FEB01C08FE58093CC0062
:103CE0001092CD003AC08FE2F9CF8FE1F7CF87E194
:103CF000F5CF8FE0F3CF8BE0F1CF87E0EFCF85E01A
:103D0000EDCF83E0EBCF81E0E9CF81E08093CC0081
:103D100002C01092CC001092CD0091E01FC0C701EC
:103D2000B6016050704F814F9F4F33E0660F771F91
:103D3000881F991F3A95D1F724E0CC0CDD1CEE1CAE
:103D4000FF1C2A95D1F7A70196010E943125215029
:103D500030402093CC003093CD0090E0F89488E977
:103D60008093C900013019F0023051F404C08091F1
:103D7000CA00806203C08091CA0080638093CA0039
:103D8000173071F0183018F4163099F405C0183057
:103D900059F0193071F408C08091CA00826007C0E0
:103DA0008091CA00846003C08091CA0086608093BD
:103DB000CA0082E0B81629F48091CA008860809316
:103DC000CA00913021F482E08093C80002C01092B2
:103DD000C8008091CE008091C80087FDFACF809105
:103DE000C800806C8093C800AFBE8BEA94E06BE89B
:103DF00074E040E20E94E31583EB94E06BEB74E027
:103E000040E20E94E3151F910F91FF90EF90DF9029
:103E1000CF90BF90AF9008958091C90085FDFCCFF1
:103E20008BEA94E06BE874E040E20E94E3150895A9
:103E3000A1E1B0E0EEE1FFE10C946E253C017F874B
:103E40006E876A01FC0117821682838181FD03C09F
:103E50006FEF7FEF6FC39E012F5F3F4F398B288B32
:103E6000F3012381EE85FF8523FD859123FF819159
:103E7000FF87EE87882309F45AC3853251F4EE8513
:103E8000FF8523FD859123FF8191FF87EE87853292
:103E900029F490E0B3010E94C928E2CF982F10E0E6
:103EA000882499241032B0F49B3269F09C3228F4B3
:103EB000903251F0933271F40BC09D3239F090334F
:103EC00049F4116028C01260146025C0186023C036
:103ED000106121C017FD2AC0892F80538A3078F4E1
:103EE00016FF06C0FAE09F9E902C1124980E13C076
:103EF0003AE0839E802C1124880E10620CC09E3202
:103F000021F416FD14C3106406C09C3611F4106829
:103F100002C0983659F4EE85FF8523FD959123FF65
:103F20009191FF87EE87992309F0BCCF892F8554A3
:103F3000833020F4812F8061905E07C0892F8556E1
:103F4000833008F09FC1812F8F7E86FD02C076E00E
:103F5000972E6FE3F62EF822953619F4F0E4FF2A37
:103F600007C0963619F420E8F22A02C091109A94FC
:103F7000F7FE0AC03BE3391518F45CE3B52E02C026
:103F8000B92CB39427E009C047E0491520F4BB24BD
:103F900047E0942EF7CF292DBB24C60104969D87B8
:103FA0008C87F6016081718182819381AE014F5FC0
:103FB0005F4F0B2D0E942D276C010981202E332489
:103FC00000FF04C003FD02C01DE209C0F1FE02C0F3
:103FD0001BE205C0F2FC02C010E001C010E2C1010A
:103FE0008C709070892BB9F1112311F483E001C01A
:103FF00084E0881510F088240AC0881AF3FC07C0F2
:1040000080E290E0B3010E94C9288A94C9F7112385
:1040100029F0812F90E0B3010E94C92823FE03C03C
:1040200002E913E00EC006E913E00BC0E114F1044D
:1040300009F0805290E0B3010E94C9280F5F1F4F22
:1040400005C0EF2CFF24F0E1EF22FF24F80184915A
:10405000882361F714C1F7FE12C0BC0C24FE04C013
:104060008A81813309F4BA941B141CF0BB24B394E5
:104070002DC0F8E0FB1550F538E0B32E27C0F6FC54
:1040800025C0892D90E08C159D054CF02CEFC216B3
:104090002FEFD20624F030E8F32A01C09A94992039
:1040A00049F0E2E0F0E0EC0FFD1FE90DF11D808129
:1040B0008033A1F3F7FE0AC0B92CB394892D90E0A8
:1040C000C816D90614F0992401C09C18F7FC03C047
:1040D00025E030E009C01C141D041CF021E030E094
:1040E00003C096012F5F3F4F112311F02F5F3F4F09
:1040F000992029F0892D90E00196280F391F882DED
:1041000090E02817390714F0882401C0821A4F2C38
:104110005524C20189709070892B39F008C080E263
:1041200090E0B3010E94C9288A948820C1F7112326
:1041300029F0812F90E0B3010E94C92843FE07C0F7
:1041400008C080E390E0B3010E94C9288A948820C7
:10415000C1F7F7FE46C08601D7FE02C000E010E0BE
:1041600076010894E11CF11CE01AF10A41E050E0EC
:104170004C0F5D1FE40EF51E26014B185108892DCA
:1041800090E0AA24BB24A81AB90A5FEF0F3F1507D5
:1041900029F48EE290E0B3010E94C928C016D1062E
:1041A00034F0401651061CF4F701808101C080E311
:1041B000015010400894E11CF11C0A151B052CF05D
:1041C00090E0B3010E94C928E0CF0C151D0539F419
:1041D0009A81963318F4953311F424FE81E390E02C
:1041E0004BC08A81813309F00F7E90E0B3010E94B9
:1041F000C9289920A1F08EE290E0B3010E94C9285D
:1042000012E0E1E0F0E0EC0FFD1FE10FF11D1F5F98
:10421000808190E0B3010E94C9289A9491F744FCF0
:1042200003C085E690E002C085E490E0B3010E94FF
:10423000C928D7FC05C0C114D10441F404FF06C04D
:10424000D094C194D108D3948DE201C08BE290E068
:10425000B3010E94C92880E305C08F5F26EF3FEFBE
:10426000C20ED31E3AE0C316D104BCF790E0B301EE
:104270000E94C928C601C096B3010E94C928CC84F7
:10428000DD8452C1933631F0933799F0933509F0BC
:1042900059C023C0F601808189835E010894A11C66
:1042A000B11C22E030E0C20ED31E21E0E22EF12C40
:1042B00012C0F601A080B18016FD03C06FEF7FEF42
:1042C00002C0692D70E022E030E0C20ED31EC501AD
:1042D0000E9439287C011F7713C0F601A080B180AD
:1042E00016FD03C06FEF7FEF02C0692D70E022E082
:1042F00030E0C20ED31EC5010E942E287C0110683A
:1043000013FF07C01BC080E290E0B3010E94C928E0
:104310008A94882D90E0E816F906A8F30FC0F501FD
:1043200017FD859117FF81915F0190E0B3010E9415
:10433000C92881108A940894E108F108E114F10475
:1043400071F7F2C0943611F0993689F517FF08C05D
:10435000F601208131814281538184E090E00AC0DE
:10436000F601808191819C01442737FD4095542FAF
:1043700082E090E0C80ED91E9FE6F92EF12257FF89
:1043800009C050954095309521953F4F4F4F5F4F55
:1043900090E8F92ACA01B901AE014F5F5F4F2AE0E8
:1043A00030E00E944229E82EE889EE1A41C0953794
:1043B00021F41F7E2AE030E01CC0197F9F3661F097
:1043C000903720F4983509F0B2C00FC0903739F01B
:1043D000983709F0ACC004C028E030E00AC0106192
:1043E00014FD146020E130E004C014FD166020E1EB
:1043F00032E017FF08C0F6016081718182819381EC
:1044000044E050E008C0F60180819181BC0180E069
:1044100090E042E050E0C40ED51EAE014F5F5F4F0A
:104420000E944229E82E5889E51A8FE7F82EF122DA
:10443000F6FE0BC08EEFF822E91438F4F4FE07C044
:10444000F2FC05C09FEEF92202C01E2D01C0192DFD
:10445000F4FE0DC0FE01EE0DF11D8081803319F4D4
:10446000E9EEFE2208C01F5FF2FE05C003C08F2DDB
:10447000867809F01F5F0F2DF3FC14C0F0FE0FC00B
:10448000181510F09E2C0BC09E2C980C911A182D0C
:1044900006C080E290E0B3010E94C9281F5F181592
:1044A000C0F304C0181510F4811A01C0882404FF59
:1044B0000FC080E390E0B3010E94C92802FF1DC035
:1044C00001FD03C088E790E00EC088E590E00BC0D6
:1044D000802F867891F001FF02C08BE201C080E25C
:1044E000F7FC8DE290E0B3010E94C92806C080E38A
:1044F00090E0B3010E94C9289A94E914C0F3EA94A9
:10450000E1E0F0E0EC0FFD1FEE0DF11D808190E089
:10451000B3010E94C928EE2091F706C080E290E026
:10452000B3010E94C9288A948820C1F799CCF3016D
:1045300066817781CB016196E2E10C948A2550581F
:10454000BB27AA270ED070C161D130F066D120F010
:1045500031F49F3F11F41EF456C10EF4E095E7FBD1
:104560004CC1E92F72D180F3BA1762077307840731
:10457000950718F071F49EF58AC10EF4E0950B2EA4
:10458000BA2FA02D0B01B90190010C01CA01A001A5
:104590001124FF27591B99F0593F50F4503E68F100
:1045A0001A16F040A22F232F342F4427585FF3CF41
:1045B000469537952795A795F0405395C9F77EF412
:1045C0001F16BA0B620B730B840BBAF09150A1F05B
:1045D000FF0FBB1F661F771F881FC2F70EC0BA0FE1
:1045E000621F731F841F48F4879577956795B79569
:1045F000F7959E3F08F0B3CF9395880F08F0992761
:10460000EE0F979587950895D4D008F481E008952A
:104610000CD00AC102D140F0F9D030F021F45F3F54
:1046200019F0EBC0511134C1EEC00FD198F39923AA
:10463000C9F35523B1F3951B550BBB27AA27621766
:104640007307840738F09F5F5F4F220F331F441FAB
:10465000AA1FA9F333D00E2E3AF0E0E830D09150E3
:104660005040E695001CCAF729D0FE2F27D0660FD0
:10467000771F881FBB1F261737074807AB07B0E80F
:1046800009F0BB0B802DBF01FF2793585F4F2AF025
:104690009E3F510568F0B1C0FBC05F3FECF3983E10
:1046A000DCF3869577956795B795F7959F5FC9F782
:1046B000880F911D9695879597F90895E1E0660F0B
:1046C000771F881FBB1F621773078407BA0720F084
:1046D000621B730B840BBA0BEE1F88F7E0950895ED
:1046E000BCD088F09F5790F0B92F9927B751A0F010
:1046F000D1F0660F771F881F991F1AF0BA95C9F776
:1047000012C0B13081F0C3D0B1E00895C0C0672FAE
:10471000782F8827B85F39F0B93FCCF38695779525
:104720006795B395D9F73EF490958095709561950E
:104730007F4F8F4F9F4F0895E89409C097FB3EF439
:1047400090958095709561957F4F8F4F9F4F9923DE
:10475000A9F0F92F96E9BB279395F695879577955C
:104760006795B795F111F8CFFAF4BB0F11F460FF1C
:104770001BC06F5F7F4F8F4F9F4F16C0882311F074
:1047800096E911C0772321F09EE8872F762F05C088
:10479000662371F096E8862F70E060E02AF09A9523
:1047A000660F771F881FDAF7880F9695879597F918
:1047B0000895990F0008550FAA0BE0E8FEEF1616B2
:1047C0001706E807F907C0F012161306E407F50705
:1047D00098F0621B730B840B950B39F40A2661F079
:1047E000232B242B252B21F408950A2609F4A1401C
:1047F000A6958FEF811D811D089597F99F6780E829
:1048000070E060E008959FEF80EC089500240A9422
:104810001616170618060906089500240A9412169B
:104820001306140605060895092E0394000C11F4CE
:10483000882352F0BB0F40F4BF2B11F460FF04C07B
:104840006F5F7F4F8F4F9F4F089557FD9058440FD4
:10485000551F59F05F3F71F04795880F97FB991FDF
:1048600061F09F3F79F0879508951216130614069C
:10487000551FF2CF4695F1DF08C016161706180629
:10488000991FF1CF86957105610508940895E89404
:10489000BB2766277727CB0197F908958ADF08F4AD
:1048A0008FEF08950BD0C0CFB1DF28F0B6DF18F03E
:1048B000952309F0A2CFA7CF1124EACFC6DFA0F33A
:1048C000959FD1F3950F50E0551F629FF001729FA5
:1048D000BB27F00DB11D639FAA27F00DB11DAA1FC4
:1048E000649F6627B00DA11D661F829F2227B00D11
:1048F000A11D621F739FB00DA11D621F839FA00D9C
:10490000611D221F749F3327A00D611D231F849FEB
:10491000600D211D822F762F6A2F11249F57504042
:104920008AF0E1F088234AF0EE0FFF1FBB1F661FDD
:10493000771F881F91505040A9F79E3F510570F096
:104940005CCFA6CF5F3FECF3983EDCF3869577957E
:104950006795B795F795E7959F5FC1F7FE2B880F91
:10496000911D9695879597F9089577DFE0F09E372A
:10497000D8F09639B8F49E3848F4672F782F8827F6
:10498000985FF9CF86957795679593959539D0F38C
:10499000B62FB1706B0F711D811D20F4879577952F
:1049A0006795939502C01CC073CF882371F4772359
:1049B00021F09850872B762F07C0662311F4992792
:1049C0000DC09051862B70E060E02AF09A95660F3A
:1049D000771F881FDAF7880F9695879597F90895BE
:1049E0009F3F31F0915020F4879577956795B79563
:1049F000880F911D9695879597F90895629FD0012C
:104A0000739FF001829FE00DF11D649FE00DF11D89
:104A1000929FF00D839FF00D749FF00D659FF00D38
:104A20009927729FB00DE11DF91F639FB00DE11D25
:104A3000F91FBD01CF0111240895AA1BBB1B51E131
:104A400007C0AA1FBB1FA617B70710F0A61BB70BFE
:104A5000881F991F5A95A9F780959095BC01CD01A3
:104A60000895A1E21A2EAA1BBB1BFD010DC0AA1FAF
:104A7000BB1FEE1FFF1FA217B307E407F50720F0C7
:104A8000A21BB30BE40BF50B661F771F881F991F42
:104A90001A9469F760957095809590959B01AC018B
:104AA000BD01CF01089597FB092E05260ED057FDB5
:104AB00004D0D7DF0AD0001C38F4509540953095CB
:104AC00021953F4F4F4F5F4F0895F6F79095809592
:104AD000709561957F4F8F4F9F4F08952F923F9212
:104AE0004F925F926F927F928F929F92AF92BF92FE
:104AF000CF92DF92EF92FF920F931F93CF93DF93AA
:104B0000CDB7DEB7CA1BDB0B0FB6F894DEBF0FBE06
:104B1000CDBF09942A88398848885F846E847D8453
:104B20008C849B84AA84B984C884DF80EE80FD8055
:104B30000C811B81AA81B981CE0FD11D0FB6F894CB
:104B4000DEBF0FBECDBFED010895EE0FFF1F059034
:104B5000F491E02D0994A0E0B0E0E1EBF5E20C94D3
:104B60007425EC015B016115710519F0FB0191835E
:104B70008083F9908F2D90E00E940528892BC9F73A
:104B8000FDE2FF1621F4F990EE24E39405C02BE238
:104B9000F21609F4F990EE248E0101501040C8017C
:104BA0006AE973E043E050E00E941628892B01F582
:104BB0008E010E5F1F4FC8016DE973E045E050E0C4
:104BC0000E941628892B19F48E01095F1F4FA1142A
:104BD000B10419F0F50111830083E0FC04C070E01A
:104BE00090E080E814C070E090E080E86FEF08C1CA
:104BF000C80162EA73E043E050E00E941628892B66
:104C000069F4A114B10429F470E090E080EC6FE73E
:104C1000F7C02296F501D183C083F6CF882499246A
:104C200040E050E060E070E0EF2DE053EA30A0F5A6
:104C3000F2E0EF2A8E2D90E09C0128703070E2FEA9
:104C400006C0232B79F50894811C911C2BC0232BC3
:104C500019F0089481089108DB01CA0112E0880F5D
:104C6000991FAA1FBB1F1A95D1F7480F591F6A1F1A
:104C70007B1F440F551F661F771F4E0F511D611D6F
:104C8000711D483929E9520729E9620729E17207AC
:104C900048F084E0E82A06C0EE3F31F4E3FC39C076
:104CA00098E0E92AF990C0CFE53311F0E53189F5B4
:104CB00029912D3219F4E0E1EE2A05C02B3219F0CA
:104CC00081E090E003C0299182E090E0E22FE05380
:104CD000EA3018F0C81BD90B1CC020E030E0FCE023
:104CE00020383F075CF4C901880F991F880F991F6E
:104CF000280F391F220F331F2E0F311DE991E0536A
:104D0000EA3068F3E4FE03C0309521953F4F820EF0
:104D1000931ECE2CDD24E1FE07C0A114B10421F0C6
:104D20002197F501D183C083CB01BA010E949C2356
:104D30007B018C01F3E0CF22DD2423E0C216D104F5
:104D400021F417FB109517F9109557016801C80158
:104D5000B70120E030E040E050E00E9404238823C7
:104D600009F44AC097FE0DC029EBE22E23E0F22E93
:104D70009094819491089394C0E2D0E000E010E018
:104D800012C091EDE92E93E0F92EF6CFF7012591AF
:104D9000359145915491C601B5010E9452245B01A1
:104DA0006C018C1A9D0A8C169D0684F7D595C795C3
:104DB0000F5F1F4F0630110529F08CEF9FEFE80EB3
:104DC000F91EF1CFC501D6017C018D018C2D880F14
:104DD0008D2D881F8F3F51F0C601B50120E030E0D6
:104DE00040E050E00E940423882331F482E290E006
:104DF0009093E2048093E1047E2D9F2D802F612FFC
:104E0000272F392F482F562FB901CA01CDB7DEB74A
:104E1000ECE00C949025662777270C94AB25FC01D9
:104E200088279927E89421912032E9F3293010F05E
:104E30002E30C8F32B3241F02D3239F4689404C07F
:104E40000E944428820F911D219120532A30C0F3E3
:104E50001EF4909581959F4F0895283008F027E023
:104E60003327DA01990F311D87FD916000966105A6
:104E7000710539F432602E5F3D9330E32A95E1F7F6
:104E800008959F3F30F080387105610509F03C5F5F
:104E90003C5F3D93913008F08068911DDF93CF9384
:104EA0001F930F93FF92EF92192F987F9695E92FFA
:104EB00096959695E90FFF27E15DFB4F99273327DC
:104EC000EE24FF24A701E70105900894079428F435
:104ED000360FE71EF81E491F511D660F771F881FEA
:104EE000991F0694A1F70590079428F4E70EF81E81
:104EF000491F561FC11D770F881F991F661F0694F3
:104F0000A1F70590079428F4F80E491F561FC71FF4
:104F1000D11D880F991F661F771F0694A1F7059072
:104F2000079420F4490F561FC71FD81F990F661FFB
:104F3000771F881F0694A9F784911095177041F088
:104F4000D695C79557954795F794E7941A95C1F765
:104F5000E5EDF3E068941590159135916591959183
:104F600005907FE27395E118F10A430B560BC90BCC
:104F7000D009C0F7E10CF11E431F561FC91FD01DF9
:104F80007EF4703311F48A95E6CFE894015030F046
:104F9000080F0AF40027021708F4202F2395022F88
:104FA0007A3328F079E37D932A95E9F710C07D9351
:104FB0002A9589F6069497956795379517951794CE
:104FC000E118F10A430B560BC90BD00998F0239551
:104FD0007E9173957A3308F070E37C932013B8F7D1
:104FE0007E9170617D9330F0839571E37D9370E3E2
:104FF0002A95E1F71124EF90FF900F911F91CF9127
:10500000DF91992787FD909508959111EDC2803227
:1050100019F089508550D0F70895FB01DC0102C0DA
:1050200005900D9241505040D8F70895FB01DC01E6
:105030004150504088F08D9181341CF08B350CF438
:10504000805E659161341CF06B350CF4605E861BEC
:10505000611171F3990B0895881BFCCFFC01059039
:10506000615070400110D8F7809590958E0F9F1F6A
:105070000895FC016150704001900110D8F78095AF
:1050800090958E0F9F1F08957AE0979F902D879F90
:10509000802D910D112408950F931F93CF93DF93CB
:1050A0008C01EB01009731F46115710519F420E0D2
:1050B00030E038C081E090E06EE070E00E94D329DB
:1050C000FC019C01009771F180E88383209771F0C7
:1050D000D387C28781E883838091DB049091DC04CD
:1050E000892B21F4F093DC04E093DB040115110516
:1050F000C9F0118700878381826083838091DD04FA
:105100009091DE04892B71F4F093DE04E093DD04CA
:105110008091DF049091E004892B21F4F093E00466
:10512000E093DF04C901DF91CF911F910F910895A2
:10513000A0E0B0E0EEE9F8E20C947E259E01275F46
:105140003F4F8D819E816F817885A9010E94181F34
:105150002096E2E00C949A25A0E0B0E0E2EBF8E2C1
:105160000C947C250F8118859E01255F3F4FF80127
:10517000838188608383C80169857A85A9010E943B
:10518000181FF8012381277F23832096E4E00C94E5
:1051900098250F931F93CF93DF938C01EB018B81A5
:1051A00081FF1BC082FF0DC02E813F818C819D81BC
:1051B0002817390764F4E881F9810193F983E883BA
:1051C00006C0E885F985802F0995892B31F48E81F9
:1051D0009F8101969F838E8302C00FEF1FEFC8014E
:1051E000DF91CF911F910F910895EF92FF920F934E
:1051F0001F93CF93DF937C018B01DB0113968C917E
:1052000081FD03C0CFEFDFEF13C0C0E0D0E00BC0E3
:10521000D8011896ED91FC911997B8010995892B41
:1052200011F0CFEFDFEFF70181917F01882381F744
:10523000CE01CDB7DEB7E6E00C949625AEE0B0E047
:10524000E4E2F9E20C947C250D891E898EE08C83C2
:105250001A8309838FEF9FE79E838D839E01275ECC
:105260003F4FCE0101966F89788DA9010E94181FCA
:105270002F813885020F131FF80110822E96E4E06B
:105280000C949825FA01AA27283051F1203181F198
:10529000E8946F936E7F6E5F7F4F8F4F9F4FAF4F3E
:1052A000B1E03ED0B4E03CD0670F781F891F9A1F51
:1052B000A11D680F791F8A1F911DA11D6A0F711D05
:1052C000811D911DA11D20D009F468943F912AE011
:1052D000269F11243019305D3193DEF6CF010895F9
:1052E000462F4770405D4193B3E00FD0C9F7F6CF2A
:1052F000462F4F70405D4A3318F0495D31FD4052F2
:10530000419302D0A9F7EACFB4E0A6959795879587
:1053100077956795BA95C9F7009761057105089566
:105320009B01AC010A2E0694579547953795279512
:10533000BA95C9F7620F731F841F951FA01D0895AA
:10534000DC01CB01FC01F999FECF06C0F2BDE1BD45
:10535000F89A319600B40D9241505040B8F7089534
:10536000A8E1B0E042E050E00C94A229DC01CB01BE
:1053700003C02D910E94C12941505040D0F708959B
:10538000262FF999FECF1FBA92BD81BD20BD0FB661
:10539000F894FA9AF99A0FBE019608950E94C029CE
:1053A000272F0C94C1290F931F93CF93DF93689FEE
:1053B0008001699F100D789F100D1124C8010E9473
:1053C000EF29EC01009729F060E070E0A8010E944D
:1053D000F72ACE01DF91CF911F910F910895CF93BE
:1053E000DF93BC018230910510F462E070E0A0917F
:1053F000E504B091E604ED01E0E0F0E040E050E0CB
:1054000021C0888199818617970769F48A819B81D9
:10541000309719F09383828304C09093E6048093BD
:10542000E504FE0134C06817790738F441155105C9
:1054300019F08417950708F4AC01FE018A819B815D
:105440009C01E9012097E9F641155105A9F1CA012E
:10545000861B970B049708F4BA01E0E0F0E02AC03D
:105460008D919C91119784179507F9F4641775072E
:1054700081F412968D919C911397309719F0938334
:10548000828304C09093E6048093E504FD01329684
:105490004FC0CA01861B970BFD01E80FF91F6193EE
:1054A000719302978D939C9343C0FD0182819381F8
:1054B0009C01D9011097A1F68091E3049091E40436
:1054C000892B41F48091EF039091F0039093E404D1
:1054D0008093E3044091F1035091F203411551058B
:1054E00041F44DB75EB78091ED039091EE03481BF8
:1054F000590B2091E3043091E40424173507B0F4EC
:10550000CA01821B930B8617970780F0AB014E5F91
:105510005F4F8417950750F0420F531F5093E404D8
:105520004093E304F9016193719302C0E0E0F0E07D
:10553000CF01DF91CF910895CF93DF93009709F4C6
:1055400050C0EC0122971B821A82A091E504B09111
:10555000E604109709F140E050E0AC17BD0708F1F0
:10556000BB83AA83FE0121913191E20FF31FAE1795
:10557000BF0779F48D919C911197280F391F2E5FE9
:105580003F4F3983288312968D919C9113979B836B
:105590008A834115510571F4D093E604C093E50464
:1055A00020C012968D919C911397AD01009711F038
:1055B000DC01D3CFFA01D383C28321913191E20F71
:1055C000F31FCE17DF0769F488819981280F391FEF
:1055D0002E5F3F4FFA01318320838A819B81938321
:1055E0008283DF91CF910895992788270895DC0160
:1055F00001C06D9341505040E0F70895F894FFCFFB
:10560000702025660A00702025660D007020302E5F
:10561000300D0070613F0D00693F0D00663F0D00C9
:105620006C6564733F0D0025643A20000C4C4153B7
:105630004552424F582076256C642E256C642020FC
:105640002020200A2028632925732E2573204A4B09
:1056500020202020202020202020000C4C415345D9
:1056600052424F582076256C642E256C64202020F1
:1056700020200A20696E6974206C61736572202E87
:105680002E2E20202020202020000B200102202070
:1056900020200420204D454E55202020000C503D58
:1056A00025352E31666D5720202020202020200017
:1056B0000C507365743D25352E31666D57202020C2
:1056C000202020000A503D25362E3266202573000A
:1056D0000C257320000B20202020202020202020BB
:1056E0004D454E552020200002010045585402012E
:1056F000000400455854040025640A0A0025660A7F
:105700000A002573202825732E2573290A0A0020F4
:105710002020202020202020202020202020204267
:10572000414420494E5354522E20455252202000CD
:105730004C415345522054494D454F55542020204B
:105740000054454D502E204552524F5220202020CB
:105750002000494E5445524C4F434B204F50454E2C
:10576000202000434F4E535420504F572E46415552
:105770004C5420004C4153455220444953434F4E12
:105780004E2E2020000F02300241025202630274AA
:10579000023130003230313500302E302E31302E93
:1057A0003538000C6D61782E206C61736572207045
:1057B0006F7765720A203D202564206D57000C77B5
:1057C0006176656C656E6774680A203D2025362E0B
:1057D0003166206E6D006F6E006F6666000C64654A
:1057E000627567206D6F64652020202020200A20CC
:1057F0003D202573202020202020000C6578742E69
:1058000020696E74656E7369747920200A20656E54
:1058100061626C65203D202573202020000C657896
:10582000742E20696E74656E7369747920200A2065
:105830006D696E203D202564202020000C65787461
:105840002E20696E74656E7369747920200A206D4C
:105850006178203D202564202020000C6578742E7E
:10586000206F6E2F6F6666206D6F64650A203D2085
:10587000257320202020202000796573006E6F00A2
:105880000C636865636B206C617365722020202057
:10589000200A636F6E6E6563746564203D20257316
:1058A000000C6261756420726174650A203D2025D8
:1058B0006C64000C4C434420636F6E7472617374AB
:1058C0000A203D20253264000C4C43442062616371
:1058D0006B6C696768740A203D20253364002002E0
:1058E000010045000300202041200020002000E7A7
:0458F00004000000B0
:0158F400FDB6
:0158F500D8DA
:0158F600FFB2
:00000001FF
